{
	"contracts/SubdomainRegistrar.sol": {
		"SubdomainRegistrar": {
			"abi": [
				{
					"inputs": [
						{
							"internalType": "address",
							"name": "_resolver",
							"type": "address"
						},
						{
							"internalType": "bytes32",
							"name": "_parentNode",
							"type": "bytes32"
						},
						{
							"internalType": "uint256",
							"name": "_registrationFee",
							"type": "uint256"
						},
						{
							"internalType": "address",
							"name": "_feeRecipient",
							"type": "address"
						}
					],
					"stateMutability": "payable",
					"type": "constructor"
				},
				{
					"anonymous": false,
					"inputs": [
						{
							"indexed": false,
							"internalType": "string",
							"name": "label",
							"type": "string"
						},
						{
							"indexed": false,
							"internalType": "address",
							"name": "sender",
							"type": "address"
						},
						{
							"indexed": false,
							"internalType": "uint256",
							"name": "fee",
							"type": "uint256"
						}
					],
					"name": "DebugInfo",
					"type": "event"
				},
				{
					"anonymous": false,
					"inputs": [
						{
							"indexed": false,
							"internalType": "address",
							"name": "from",
							"type": "address"
						},
						{
							"indexed": false,
							"internalType": "address",
							"name": "to",
							"type": "address"
						},
						{
							"indexed": false,
							"internalType": "uint256",
							"name": "amount",
							"type": "uint256"
						}
					],
					"name": "FeeTransferred",
					"type": "event"
				},
				{
					"anonymous": false,
					"inputs": [
						{
							"indexed": false,
							"internalType": "string",
							"name": "message",
							"type": "string"
						}
					],
					"name": "RegisterCalled",
					"type": "event"
				},
				{
					"inputs": [],
					"name": "feeRecipient",
					"outputs": [
						{
							"internalType": "address",
							"name": "",
							"type": "address"
						}
					],
					"stateMutability": "view",
					"type": "function"
				},
				{
					"inputs": [
						{
							"internalType": "string",
							"name": "label",
							"type": "string"
						}
					],
					"name": "register",
					"outputs": [],
					"stateMutability": "payable",
					"type": "function"
				},
				{
					"inputs": [],
					"name": "registrationFee",
					"outputs": [
						{
							"internalType": "uint256",
							"name": "",
							"type": "uint256"
						}
					],
					"stateMutability": "view",
					"type": "function"
				},
				{
					"inputs": [],
					"name": "resolver",
					"outputs": [
						{
							"internalType": "address",
							"name": "",
							"type": "address"
						}
					],
					"stateMutability": "view",
					"type": "function"
				},
				{
					"inputs": [
						{
							"internalType": "address",
							"name": "_feeRecipient",
							"type": "address"
						}
					],
					"name": "setFeeRecipient",
					"outputs": [],
					"stateMutability": "nonpayable",
					"type": "function"
				},
				{
					"inputs": [
						{
							"internalType": "uint256",
							"name": "_registrationFee",
							"type": "uint256"
						}
					],
					"name": "setRegistrationFee",
					"outputs": [],
					"stateMutability": "nonpayable",
					"type": "function"
				}
			],
			"devdoc": {
				"kind": "dev",
				"methods": {},
				"version": 1
			},
			"evm": {
				"assembly": "    /* \"contracts/SubdomainRegistrar.sol\":459:2140  contract SubdomainRegistrar {... */\n  mstore(0x40, 0x80)\n    /* \"contracts/SubdomainRegistrar.sol\":910:1329  constructor(... */\n  mload(0x40)\n  sub(codesize, bytecodeSize)\n  dup1\n  bytecodeSize\n  dup4\n  codecopy\n  dup2\n  dup2\n  add\n  0x40\n  mstore\n  dup2\n  add\n  swap1\n  tag_1\n  swap2\n  swap1\n  tag_2\n  jump\t// in\ntag_1:\n    /* \"contracts/SubdomainRegistrar.sol\":1169:1178  _resolver */\n  dup4\n    /* \"contracts/SubdomainRegistrar.sol\":1158:1166  resolver */\n  0x00\n  0x00\n    /* \"contracts/SubdomainRegistrar.sol\":1158:1178  resolver = _resolver */\n  0x0100\n  exp\n  dup2\n  sload\n  dup2\n  0xffffffffffffffffffffffffffffffffffffffff\n  mul\n  not\n  and\n  swap1\n  dup4\n  0xffffffffffffffffffffffffffffffffffffffff\n  and\n  mul\n  or\n  swap1\n  sstore\n  pop\n    /* \"contracts/SubdomainRegistrar.sol\":1201:1212  _parentNode */\n  dup3\n    /* \"contracts/SubdomainRegistrar.sol\":1188:1198  parentNode */\n  0x04\n    /* \"contracts/SubdomainRegistrar.sol\":1188:1212  parentNode = _parentNode */\n  dup2\n  swap1\n  sstore\n  pop\n    /* \"contracts/SubdomainRegistrar.sol\":1240:1256  _registrationFee */\n  dup2\n    /* \"contracts/SubdomainRegistrar.sol\":1222:1237  registrationFee */\n  0x01\n    /* \"contracts/SubdomainRegistrar.sol\":1222:1256  registrationFee = _registrationFee */\n  dup2\n  swap1\n  sstore\n  pop\n    /* \"contracts/SubdomainRegistrar.sol\":1281:1294  _feeRecipient */\n  dup1\n    /* \"contracts/SubdomainRegistrar.sol\":1266:1278  feeRecipient */\n  0x02\n  0x00\n    /* \"contracts/SubdomainRegistrar.sol\":1266:1294  feeRecipient = _feeRecipient */\n  0x0100\n  exp\n  dup2\n  sload\n  dup2\n  0xffffffffffffffffffffffffffffffffffffffff\n  mul\n  not\n  and\n  swap1\n  dup4\n  0xffffffffffffffffffffffffffffffffffffffff\n  and\n  mul\n  or\n  swap1\n  sstore\n  pop\n    /* \"contracts/SubdomainRegistrar.sol\":1312:1322  msg.sender */\n  caller\n    /* \"contracts/SubdomainRegistrar.sol\":1304:1309  owner */\n  0x03\n  0x00\n    /* \"contracts/SubdomainRegistrar.sol\":1304:1322  owner = msg.sender */\n  0x0100\n  exp\n  dup2\n  sload\n  dup2\n  0xffffffffffffffffffffffffffffffffffffffff\n  mul\n  not\n  and\n  swap1\n  dup4\n  0xffffffffffffffffffffffffffffffffffffffff\n  and\n  mul\n  or\n  swap1\n  sstore\n  pop\n    /* \"contracts/SubdomainRegistrar.sol\":910:1329  constructor(... */\n  pop\n  pop\n  pop\n  pop\n    /* \"contracts/SubdomainRegistrar.sol\":459:2140  contract SubdomainRegistrar {... */\n  jump(tag_5)\n    /* \"#utility.yul\":88:205   */\ntag_7:\n    /* \"#utility.yul\":197:198   */\n  0x00\n    /* \"#utility.yul\":194:195   */\n  0x00\n    /* \"#utility.yul\":187:199   */\n  revert\n    /* \"#utility.yul\":334:460   */\ntag_9:\n    /* \"#utility.yul\":371:378   */\n  0x00\n    /* \"#utility.yul\":411:453   */\n  0xffffffffffffffffffffffffffffffffffffffff\n    /* \"#utility.yul\":404:409   */\n  dup3\n    /* \"#utility.yul\":400:454   */\n  and\n    /* \"#utility.yul\":389:454   */\n  swap1\n  pop\n    /* \"#utility.yul\":334:460   */\n  swap2\n  swap1\n  pop\n  jump\t// out\n    /* \"#utility.yul\":466:562   */\ntag_10:\n    /* \"#utility.yul\":503:510   */\n  0x00\n    /* \"#utility.yul\":532:556   */\n  tag_25\n    /* \"#utility.yul\":550:555   */\n  dup3\n    /* \"#utility.yul\":532:556   */\n  tag_9\n  jump\t// in\ntag_25:\n    /* \"#utility.yul\":521:556   */\n  swap1\n  pop\n    /* \"#utility.yul\":466:562   */\n  swap2\n  swap1\n  pop\n  jump\t// out\n    /* \"#utility.yul\":568:690   */\ntag_11:\n    /* \"#utility.yul\":641:665   */\n  tag_27\n    /* \"#utility.yul\":659:664   */\n  dup2\n    /* \"#utility.yul\":641:665   */\n  tag_10\n  jump\t// in\ntag_27:\n    /* \"#utility.yul\":634:639   */\n  dup2\n    /* \"#utility.yul\":631:666   */\n  eq\n    /* \"#utility.yul\":621:684   */\n  tag_28\n  jumpi\n    /* \"#utility.yul\":680:681   */\n  0x00\n    /* \"#utility.yul\":677:678   */\n  0x00\n    /* \"#utility.yul\":670:682   */\n  revert\n    /* \"#utility.yul\":621:684   */\ntag_28:\n    /* \"#utility.yul\":568:690   */\n  pop\n  jump\t// out\n    /* \"#utility.yul\":696:839   */\ntag_12:\n    /* \"#utility.yul\":753:758   */\n  0x00\n    /* \"#utility.yul\":784:790   */\n  dup2\n    /* \"#utility.yul\":778:791   */\n  mload\n    /* \"#utility.yul\":769:791   */\n  swap1\n  pop\n    /* \"#utility.yul\":800:833   */\n  tag_30\n    /* \"#utility.yul\":827:832   */\n  dup2\n    /* \"#utility.yul\":800:833   */\n  tag_11\n  jump\t// in\ntag_30:\n    /* \"#utility.yul\":696:839   */\n  swap3\n  swap2\n  pop\n  pop\n  jump\t// out\n    /* \"#utility.yul\":845:922   */\ntag_13:\n    /* \"#utility.yul\":882:889   */\n  0x00\n    /* \"#utility.yul\":911:916   */\n  dup2\n    /* \"#utility.yul\":900:916   */\n  swap1\n  pop\n    /* \"#utility.yul\":845:922   */\n  swap2\n  swap1\n  pop\n  jump\t// out\n    /* \"#utility.yul\":928:1050   */\ntag_14:\n    /* \"#utility.yul\":1001:1025   */\n  tag_33\n    /* \"#utility.yul\":1019:1024   */\n  dup2\n    /* \"#utility.yul\":1001:1025   */\n  tag_13\n  jump\t// in\ntag_33:\n    /* \"#utility.yul\":994:999   */\n  dup2\n    /* \"#utility.yul\":991:1026   */\n  eq\n    /* \"#utility.yul\":981:1044   */\n  tag_34\n  jumpi\n    /* \"#utility.yul\":1040:1041   */\n  0x00\n    /* \"#utility.yul\":1037:1038   */\n  0x00\n    /* \"#utility.yul\":1030:1042   */\n  revert\n    /* \"#utility.yul\":981:1044   */\ntag_34:\n    /* \"#utility.yul\":928:1050   */\n  pop\n  jump\t// out\n    /* \"#utility.yul\":1056:1199   */\ntag_15:\n    /* \"#utility.yul\":1113:1118   */\n  0x00\n    /* \"#utility.yul\":1144:1150   */\n  dup2\n    /* \"#utility.yul\":1138:1151   */\n  mload\n    /* \"#utility.yul\":1129:1151   */\n  swap1\n  pop\n    /* \"#utility.yul\":1160:1193   */\n  tag_36\n    /* \"#utility.yul\":1187:1192   */\n  dup2\n    /* \"#utility.yul\":1160:1193   */\n  tag_14\n  jump\t// in\ntag_36:\n    /* \"#utility.yul\":1056:1199   */\n  swap3\n  swap2\n  pop\n  pop\n  jump\t// out\n    /* \"#utility.yul\":1205:1282   */\ntag_16:\n    /* \"#utility.yul\":1242:1249   */\n  0x00\n    /* \"#utility.yul\":1271:1276   */\n  dup2\n    /* \"#utility.yul\":1260:1276   */\n  swap1\n  pop\n    /* \"#utility.yul\":1205:1282   */\n  swap2\n  swap1\n  pop\n  jump\t// out\n    /* \"#utility.yul\":1288:1410   */\ntag_17:\n    /* \"#utility.yul\":1361:1385   */\n  tag_39\n    /* \"#utility.yul\":1379:1384   */\n  dup2\n    /* \"#utility.yul\":1361:1385   */\n  tag_16\n  jump\t// in\ntag_39:\n    /* \"#utility.yul\":1354:1359   */\n  dup2\n    /* \"#utility.yul\":1351:1386   */\n  eq\n    /* \"#utility.yul\":1341:1404   */\n  tag_40\n  jumpi\n    /* \"#utility.yul\":1400:1401   */\n  0x00\n    /* \"#utility.yul\":1397:1398   */\n  0x00\n    /* \"#utility.yul\":1390:1402   */\n  revert\n    /* \"#utility.yul\":1341:1404   */\ntag_40:\n    /* \"#utility.yul\":1288:1410   */\n  pop\n  jump\t// out\n    /* \"#utility.yul\":1416:1559   */\ntag_18:\n    /* \"#utility.yul\":1473:1478   */\n  0x00\n    /* \"#utility.yul\":1504:1510   */\n  dup2\n    /* \"#utility.yul\":1498:1511   */\n  mload\n    /* \"#utility.yul\":1489:1511   */\n  swap1\n  pop\n    /* \"#utility.yul\":1520:1553   */\n  tag_42\n    /* \"#utility.yul\":1547:1552   */\n  dup2\n    /* \"#utility.yul\":1520:1553   */\n  tag_17\n  jump\t// in\ntag_42:\n    /* \"#utility.yul\":1416:1559   */\n  swap3\n  swap2\n  pop\n  pop\n  jump\t// out\n    /* \"#utility.yul\":1565:2385   */\ntag_2:\n    /* \"#utility.yul\":1662:1668   */\n  0x00\n    /* \"#utility.yul\":1670:1676   */\n  0x00\n    /* \"#utility.yul\":1678:1684   */\n  0x00\n    /* \"#utility.yul\":1686:1692   */\n  0x00\n    /* \"#utility.yul\":1735:1738   */\n  0x80\n    /* \"#utility.yul\":1723:1732   */\n  dup6\n    /* \"#utility.yul\":1714:1721   */\n  dup8\n    /* \"#utility.yul\":1710:1733   */\n  sub\n    /* \"#utility.yul\":1706:1739   */\n  slt\n    /* \"#utility.yul\":1703:1823   */\n  iszero\n  tag_44\n  jumpi\n    /* \"#utility.yul\":1742:1821   */\n  tag_45\n  tag_7\n  jump\t// in\ntag_45:\n    /* \"#utility.yul\":1703:1823   */\ntag_44:\n    /* \"#utility.yul\":1862:1863   */\n  0x00\n    /* \"#utility.yul\":1887:1951   */\n  tag_46\n    /* \"#utility.yul\":1943:1950   */\n  dup8\n    /* \"#utility.yul\":1934:1940   */\n  dup3\n    /* \"#utility.yul\":1923:1932   */\n  dup9\n    /* \"#utility.yul\":1919:1941   */\n  add\n    /* \"#utility.yul\":1887:1951   */\n  tag_12\n  jump\t// in\ntag_46:\n    /* \"#utility.yul\":1877:1951   */\n  swap5\n  pop\n    /* \"#utility.yul\":1833:1961   */\n  pop\n    /* \"#utility.yul\":2000:2002   */\n  0x20\n    /* \"#utility.yul\":2026:2090   */\n  tag_47\n    /* \"#utility.yul\":2082:2089   */\n  dup8\n    /* \"#utility.yul\":2073:2079   */\n  dup3\n    /* \"#utility.yul\":2062:2071   */\n  dup9\n    /* \"#utility.yul\":2058:2080   */\n  add\n    /* \"#utility.yul\":2026:2090   */\n  tag_15\n  jump\t// in\ntag_47:\n    /* \"#utility.yul\":2016:2090   */\n  swap4\n  pop\n    /* \"#utility.yul\":1971:2100   */\n  pop\n    /* \"#utility.yul\":2139:2141   */\n  0x40\n    /* \"#utility.yul\":2165:2229   */\n  tag_48\n    /* \"#utility.yul\":2221:2228   */\n  dup8\n    /* \"#utility.yul\":2212:2218   */\n  dup3\n    /* \"#utility.yul\":2201:2210   */\n  dup9\n    /* \"#utility.yul\":2197:2219   */\n  add\n    /* \"#utility.yul\":2165:2229   */\n  tag_18\n  jump\t// in\ntag_48:\n    /* \"#utility.yul\":2155:2229   */\n  swap3\n  pop\n    /* \"#utility.yul\":2110:2239   */\n  pop\n    /* \"#utility.yul\":2278:2280   */\n  0x60\n    /* \"#utility.yul\":2304:2368   */\n  tag_49\n    /* \"#utility.yul\":2360:2367   */\n  dup8\n    /* \"#utility.yul\":2351:2357   */\n  dup3\n    /* \"#utility.yul\":2340:2349   */\n  dup9\n    /* \"#utility.yul\":2336:2358   */\n  add\n    /* \"#utility.yul\":2304:2368   */\n  tag_12\n  jump\t// in\ntag_49:\n    /* \"#utility.yul\":2294:2368   */\n  swap2\n  pop\n    /* \"#utility.yul\":2249:2378   */\n  pop\n    /* \"#utility.yul\":1565:2385   */\n  swap3\n  swap6\n  swap2\n  swap5\n  pop\n  swap3\n  pop\n  jump\t// out\n    /* \"contracts/SubdomainRegistrar.sol\":459:2140  contract SubdomainRegistrar {... */\ntag_5:\n  dataSize(sub_0)\n  dup1\n  dataOffset(sub_0)\n  0x00\n  codecopy\n  0x00\n  return\nstop\n\nsub_0: assembly {\n        /* \"contracts/SubdomainRegistrar.sol\":459:2140  contract SubdomainRegistrar {... */\n      mstore(0x40, 0x80)\n      jumpi(tag_1, lt(calldatasize, 0x04))\n      shr(0xe0, calldataload(0x00))\n      dup1\n      0x04f3bcec\n      eq\n      tag_2\n      jumpi\n      dup1\n      0x14c44e09\n      eq\n      tag_3\n      jumpi\n      dup1\n      0x46904840\n      eq\n      tag_4\n      jumpi\n      dup1\n      0xc320c727\n      eq\n      tag_5\n      jumpi\n      dup1\n      0xe74b981b\n      eq\n      tag_6\n      jumpi\n      dup1\n      0xf2c298be\n      eq\n      tag_7\n      jumpi\n    tag_1:\n      revert(0x00, 0x00)\n        /* \"contracts/SubdomainRegistrar.sol\":577:600  address public resolver */\n    tag_2:\n      callvalue\n      dup1\n      iszero\n      tag_8\n      jumpi\n      revert(0x00, 0x00)\n    tag_8:\n      pop\n      tag_9\n      tag_10\n      jump\t// in\n    tag_9:\n      mload(0x40)\n      tag_11\n      swap2\n      swap1\n      tag_12\n      jump\t// in\n    tag_11:\n      mload(0x40)\n      dup1\n      swap2\n      sub\n      swap1\n      return\n        /* \"contracts/SubdomainRegistrar.sol\":606:636  uint256 public registrationFee */\n    tag_3:\n      callvalue\n      dup1\n      iszero\n      tag_13\n      jumpi\n      revert(0x00, 0x00)\n    tag_13:\n      pop\n      tag_14\n      tag_15\n      jump\t// in\n    tag_14:\n      mload(0x40)\n      tag_16\n      swap2\n      swap1\n      tag_17\n      jump\t// in\n    tag_16:\n      mload(0x40)\n      dup1\n      swap2\n      sub\n      swap1\n      return\n        /* \"contracts/SubdomainRegistrar.sol\":642:669  address public feeRecipient */\n    tag_4:\n      callvalue\n      dup1\n      iszero\n      tag_18\n      jumpi\n      revert(0x00, 0x00)\n    tag_18:\n      pop\n      tag_19\n      tag_20\n      jump\t// in\n    tag_19:\n      mload(0x40)\n      tag_21\n      swap2\n      swap1\n      tag_12\n      jump\t// in\n    tag_21:\n      mload(0x40)\n      dup1\n      swap2\n      sub\n      swap1\n      return\n        /* \"contracts/SubdomainRegistrar.sol\":1896:2020  function setRegistrationFee(uint256 _registrationFee) external onlyOwner {... */\n    tag_5:\n      callvalue\n      dup1\n      iszero\n      tag_22\n      jumpi\n      revert(0x00, 0x00)\n    tag_22:\n      pop\n      tag_23\n      0x04\n      dup1\n      calldatasize\n      sub\n      dup2\n      add\n      swap1\n      tag_24\n      swap2\n      swap1\n      tag_25\n      jump\t// in\n    tag_24:\n      tag_26\n      jump\t// in\n    tag_23:\n      stop\n        /* \"contracts/SubdomainRegistrar.sol\":2026:2138  function setFeeRecipient(address _feeRecipient) external onlyOwner {... */\n    tag_6:\n      callvalue\n      dup1\n      iszero\n      tag_27\n      jumpi\n      revert(0x00, 0x00)\n    tag_27:\n      pop\n      tag_28\n      0x04\n      dup1\n      calldatasize\n      sub\n      dup2\n      add\n      swap1\n      tag_29\n      swap2\n      swap1\n      tag_30\n      jump\t// in\n    tag_29:\n      tag_31\n      jump\t// in\n    tag_28:\n      stop\n        /* \"contracts/SubdomainRegistrar.sol\":1431:1890  function register(string calldata label) external payable {... */\n    tag_7:\n      tag_32\n      0x04\n      dup1\n      calldatasize\n      sub\n      dup2\n      add\n      swap1\n      tag_33\n      swap2\n      swap1\n      tag_34\n      jump\t// in\n    tag_33:\n      tag_35\n      jump\t// in\n    tag_32:\n      stop\n        /* \"contracts/SubdomainRegistrar.sol\":577:600  address public resolver */\n    tag_10:\n      0x00\n      0x00\n      swap1\n      sload\n      swap1\n      0x0100\n      exp\n      swap1\n      div\n      0xffffffffffffffffffffffffffffffffffffffff\n      and\n      dup2\n      jump\t// out\n        /* \"contracts/SubdomainRegistrar.sol\":606:636  uint256 public registrationFee */\n    tag_15:\n      sload(0x01)\n      dup2\n      jump\t// out\n        /* \"contracts/SubdomainRegistrar.sol\":642:669  address public feeRecipient */\n    tag_20:\n      0x02\n      0x00\n      swap1\n      sload\n      swap1\n      0x0100\n      exp\n      swap1\n      div\n      0xffffffffffffffffffffffffffffffffffffffff\n      and\n      dup2\n      jump\t// out\n        /* \"contracts/SubdomainRegistrar.sol\":1896:2020  function setRegistrationFee(uint256 _registrationFee) external onlyOwner {... */\n    tag_26:\n        /* \"contracts/SubdomainRegistrar.sol\":1388:1393  owner */\n      0x03\n      0x00\n      swap1\n      sload\n      swap1\n      0x0100\n      exp\n      swap1\n      div\n      0xffffffffffffffffffffffffffffffffffffffff\n      and\n        /* \"contracts/SubdomainRegistrar.sol\":1374:1393  msg.sender == owner */\n      0xffffffffffffffffffffffffffffffffffffffff\n      and\n        /* \"contracts/SubdomainRegistrar.sol\":1374:1384  msg.sender */\n      caller\n        /* \"contracts/SubdomainRegistrar.sol\":1374:1393  msg.sender == owner */\n      0xffffffffffffffffffffffffffffffffffffffff\n      and\n      eq\n        /* \"contracts/SubdomainRegistrar.sol\":1366:1407  require(msg.sender == owner, \"Not owner\") */\n      tag_37\n      jumpi\n      mload(0x40)\n      0x08c379a000000000000000000000000000000000000000000000000000000000\n      dup2\n      mstore\n      0x04\n      add\n      tag_38\n      swap1\n      tag_39\n      jump\t// in\n    tag_38:\n      mload(0x40)\n      dup1\n      swap2\n      sub\n      swap1\n      revert\n    tag_37:\n        /* \"contracts/SubdomainRegistrar.sol\":1997:2013  _registrationFee */\n      dup1\n        /* \"contracts/SubdomainRegistrar.sol\":1979:1994  registrationFee */\n      0x01\n        /* \"contracts/SubdomainRegistrar.sol\":1979:2013  registrationFee = _registrationFee */\n      dup2\n      swap1\n      sstore\n      pop\n        /* \"contracts/SubdomainRegistrar.sol\":1896:2020  function setRegistrationFee(uint256 _registrationFee) external onlyOwner {... */\n      pop\n      jump\t// out\n        /* \"contracts/SubdomainRegistrar.sol\":2026:2138  function setFeeRecipient(address _feeRecipient) external onlyOwner {... */\n    tag_31:\n        /* \"contracts/SubdomainRegistrar.sol\":1388:1393  owner */\n      0x03\n      0x00\n      swap1\n      sload\n      swap1\n      0x0100\n      exp\n      swap1\n      div\n      0xffffffffffffffffffffffffffffffffffffffff\n      and\n        /* \"contracts/SubdomainRegistrar.sol\":1374:1393  msg.sender == owner */\n      0xffffffffffffffffffffffffffffffffffffffff\n      and\n        /* \"contracts/SubdomainRegistrar.sol\":1374:1384  msg.sender */\n      caller\n        /* \"contracts/SubdomainRegistrar.sol\":1374:1393  msg.sender == owner */\n      0xffffffffffffffffffffffffffffffffffffffff\n      and\n      eq\n        /* \"contracts/SubdomainRegistrar.sol\":1366:1407  require(msg.sender == owner, \"Not owner\") */\n      tag_42\n      jumpi\n      mload(0x40)\n      0x08c379a000000000000000000000000000000000000000000000000000000000\n      dup2\n      mstore\n      0x04\n      add\n      tag_43\n      swap1\n      tag_39\n      jump\t// in\n    tag_43:\n      mload(0x40)\n      dup1\n      swap2\n      sub\n      swap1\n      revert\n    tag_42:\n        /* \"contracts/SubdomainRegistrar.sol\":2118:2131  _feeRecipient */\n      dup1\n        /* \"contracts/SubdomainRegistrar.sol\":2103:2115  feeRecipient */\n      0x02\n      0x00\n        /* \"contracts/SubdomainRegistrar.sol\":2103:2131  feeRecipient = _feeRecipient */\n      0x0100\n      exp\n      dup2\n      sload\n      dup2\n      0xffffffffffffffffffffffffffffffffffffffff\n      mul\n      not\n      and\n      swap1\n      dup4\n      0xffffffffffffffffffffffffffffffffffffffff\n      and\n      mul\n      or\n      swap1\n      sstore\n      pop\n        /* \"contracts/SubdomainRegistrar.sol\":2026:2138  function setFeeRecipient(address _feeRecipient) external onlyOwner {... */\n      pop\n      jump\t// out\n        /* \"contracts/SubdomainRegistrar.sol\":1431:1890  function register(string calldata label) external payable {... */\n    tag_35:\n        /* \"contracts/SubdomainRegistrar.sol\":1504:1543  DebugInfo(label, msg.sender, msg.value) */\n      0x94deee2420f0dd7bbdd75ed6d495df1463209cffb99669e673d7090363bb0d49\n        /* \"contracts/SubdomainRegistrar.sol\":1514:1519  label */\n      dup3\n      dup3\n        /* \"contracts/SubdomainRegistrar.sol\":1521:1531  msg.sender */\n      caller\n        /* \"contracts/SubdomainRegistrar.sol\":1533:1542  msg.value */\n      callvalue\n        /* \"contracts/SubdomainRegistrar.sol\":1504:1543  DebugInfo(label, msg.sender, msg.value) */\n      mload(0x40)\n      tag_46\n      swap5\n      swap4\n      swap3\n      swap2\n      swap1\n      tag_47\n      jump\t// in\n    tag_46:\n      mload(0x40)\n      dup1\n      swap2\n      sub\n      swap1\n      log1\n        /* \"contracts/SubdomainRegistrar.sol\":1575:1590  registrationFee */\n      sload(0x01)\n        /* \"contracts/SubdomainRegistrar.sol\":1562:1571  msg.value */\n      callvalue\n        /* \"contracts/SubdomainRegistrar.sol\":1562:1590  msg.value >= registrationFee */\n      lt\n      iszero\n        /* \"contracts/SubdomainRegistrar.sol\":1554:1624  require(msg.value >= registrationFee, \"Insufficient registration fee\") */\n      tag_48\n      jumpi\n      mload(0x40)\n      0x08c379a000000000000000000000000000000000000000000000000000000000\n      dup2\n      mstore\n      0x04\n      add\n      tag_49\n      swap1\n      tag_50\n      jump\t// in\n    tag_49:\n      mload(0x40)\n      dup1\n      swap2\n      sub\n      swap1\n      revert\n    tag_48:\n        /* \"contracts/SubdomainRegistrar.sol\":1679:1691  feeRecipient */\n      0x02\n      0x00\n      swap1\n      sload\n      swap1\n      0x0100\n      exp\n      swap1\n      div\n      0xffffffffffffffffffffffffffffffffffffffff\n      and\n        /* \"contracts/SubdomainRegistrar.sol\":1671:1701  payable(feeRecipient).transfer */\n      0xffffffffffffffffffffffffffffffffffffffff\n      and\n        /* \"contracts/SubdomainRegistrar.sol\":1671:1718  payable(feeRecipient).transfer(registrationFee) */\n      0x08fc\n        /* \"contracts/SubdomainRegistrar.sol\":1702:1717  registrationFee */\n      sload(0x01)\n        /* \"contracts/SubdomainRegistrar.sol\":1671:1718  payable(feeRecipient).transfer(registrationFee) */\n      swap1\n      dup2\n      iszero\n      mul\n      swap1\n      mload(0x40)\n      0x00\n      mload(0x40)\n      dup1\n      dup4\n      sub\n      dup2\n      dup6\n      dup9\n      dup9\n      call\n      swap4\n      pop\n      pop\n      pop\n      pop\n      iszero\n      dup1\n      iszero\n      tag_52\n      jumpi\n      returndatacopy(0x00, 0x00, returndatasize)\n      revert(0x00, returndatasize)\n    tag_52:\n      pop\n        /* \"contracts/SubdomainRegistrar.sol\":1733:1790  FeeTransferred(msg.sender, feeRecipient, registrationFee) */\n      0x1d6298f49fc15449b78df91fcca6812136edc2972366cb70aa0d9145a308cd31\n        /* \"contracts/SubdomainRegistrar.sol\":1748:1758  msg.sender */\n      caller\n        /* \"contracts/SubdomainRegistrar.sol\":1760:1772  feeRecipient */\n      0x02\n      0x00\n      swap1\n      sload\n      swap1\n      0x0100\n      exp\n      swap1\n      div\n      0xffffffffffffffffffffffffffffffffffffffff\n      and\n        /* \"contracts/SubdomainRegistrar.sol\":1774:1789  registrationFee */\n      sload(0x01)\n        /* \"contracts/SubdomainRegistrar.sol\":1733:1790  FeeTransferred(msg.sender, feeRecipient, registrationFee) */\n      mload(0x40)\n      tag_53\n      swap4\n      swap3\n      swap2\n      swap1\n      tag_54\n      jump\t// in\n    tag_53:\n      mload(0x40)\n      dup1\n      swap2\n      sub\n      swap1\n      log1\n        /* \"contracts/SubdomainRegistrar.sol\":1849:1883  RegisterCalled(\"registering here\") */\n      0x06604d9ad84808cf542e7534e198d8975ffd0f1534c37b48dc5ff549f74e73f7\n      mload(0x40)\n      tag_55\n      swap1\n      tag_56\n      jump\t// in\n    tag_55:\n      mload(0x40)\n      dup1\n      swap2\n      sub\n      swap1\n      log1\n        /* \"contracts/SubdomainRegistrar.sol\":1431:1890  function register(string calldata label) external payable {... */\n      pop\n      pop\n      jump\t// out\n        /* \"#utility.yul\":7:133   */\n    tag_57:\n        /* \"#utility.yul\":44:51   */\n      0x00\n        /* \"#utility.yul\":84:126   */\n      0xffffffffffffffffffffffffffffffffffffffff\n        /* \"#utility.yul\":77:82   */\n      dup3\n        /* \"#utility.yul\":73:127   */\n      and\n        /* \"#utility.yul\":62:127   */\n      swap1\n      pop\n        /* \"#utility.yul\":7:133   */\n      swap2\n      swap1\n      pop\n      jump\t// out\n        /* \"#utility.yul\":139:235   */\n    tag_58:\n        /* \"#utility.yul\":176:183   */\n      0x00\n        /* \"#utility.yul\":205:229   */\n      tag_86\n        /* \"#utility.yul\":223:228   */\n      dup3\n        /* \"#utility.yul\":205:229   */\n      tag_57\n      jump\t// in\n    tag_86:\n        /* \"#utility.yul\":194:229   */\n      swap1\n      pop\n        /* \"#utility.yul\":139:235   */\n      swap2\n      swap1\n      pop\n      jump\t// out\n        /* \"#utility.yul\":241:359   */\n    tag_59:\n        /* \"#utility.yul\":328:352   */\n      tag_88\n        /* \"#utility.yul\":346:351   */\n      dup2\n        /* \"#utility.yul\":328:352   */\n      tag_58\n      jump\t// in\n    tag_88:\n        /* \"#utility.yul\":323:326   */\n      dup3\n        /* \"#utility.yul\":316:353   */\n      mstore\n        /* \"#utility.yul\":241:359   */\n      pop\n      pop\n      jump\t// out\n        /* \"#utility.yul\":365:587   */\n    tag_12:\n        /* \"#utility.yul\":458:462   */\n      0x00\n        /* \"#utility.yul\":496:498   */\n      0x20\n        /* \"#utility.yul\":485:494   */\n      dup3\n        /* \"#utility.yul\":481:499   */\n      add\n        /* \"#utility.yul\":473:499   */\n      swap1\n      pop\n        /* \"#utility.yul\":509:580   */\n      tag_90\n        /* \"#utility.yul\":577:578   */\n      0x00\n        /* \"#utility.yul\":566:575   */\n      dup4\n        /* \"#utility.yul\":562:579   */\n      add\n        /* \"#utility.yul\":553:559   */\n      dup5\n        /* \"#utility.yul\":509:580   */\n      tag_59\n      jump\t// in\n    tag_90:\n        /* \"#utility.yul\":365:587   */\n      swap3\n      swap2\n      pop\n      pop\n      jump\t// out\n        /* \"#utility.yul\":593:670   */\n    tag_60:\n        /* \"#utility.yul\":630:637   */\n      0x00\n        /* \"#utility.yul\":659:664   */\n      dup2\n        /* \"#utility.yul\":648:664   */\n      swap1\n      pop\n        /* \"#utility.yul\":593:670   */\n      swap2\n      swap1\n      pop\n      jump\t// out\n        /* \"#utility.yul\":676:794   */\n    tag_61:\n        /* \"#utility.yul\":763:787   */\n      tag_93\n        /* \"#utility.yul\":781:786   */\n      dup2\n        /* \"#utility.yul\":763:787   */\n      tag_60\n      jump\t// in\n    tag_93:\n        /* \"#utility.yul\":758:761   */\n      dup3\n        /* \"#utility.yul\":751:788   */\n      mstore\n        /* \"#utility.yul\":676:794   */\n      pop\n      pop\n      jump\t// out\n        /* \"#utility.yul\":800:1022   */\n    tag_17:\n        /* \"#utility.yul\":893:897   */\n      0x00\n        /* \"#utility.yul\":931:933   */\n      0x20\n        /* \"#utility.yul\":920:929   */\n      dup3\n        /* \"#utility.yul\":916:934   */\n      add\n        /* \"#utility.yul\":908:934   */\n      swap1\n      pop\n        /* \"#utility.yul\":944:1015   */\n      tag_95\n        /* \"#utility.yul\":1012:1013   */\n      0x00\n        /* \"#utility.yul\":1001:1010   */\n      dup4\n        /* \"#utility.yul\":997:1014   */\n      add\n        /* \"#utility.yul\":988:994   */\n      dup5\n        /* \"#utility.yul\":944:1015   */\n      tag_61\n      jump\t// in\n    tag_95:\n        /* \"#utility.yul\":800:1022   */\n      swap3\n      swap2\n      pop\n      pop\n      jump\t// out\n        /* \"#utility.yul\":1109:1226   */\n    tag_63:\n        /* \"#utility.yul\":1218:1219   */\n      0x00\n        /* \"#utility.yul\":1215:1216   */\n      0x00\n        /* \"#utility.yul\":1208:1220   */\n      revert\n        /* \"#utility.yul\":1232:1349   */\n    tag_64:\n        /* \"#utility.yul\":1341:1342   */\n      0x00\n        /* \"#utility.yul\":1338:1339   */\n      0x00\n        /* \"#utility.yul\":1331:1343   */\n      revert\n        /* \"#utility.yul\":1355:1477   */\n    tag_65:\n        /* \"#utility.yul\":1428:1452   */\n      tag_100\n        /* \"#utility.yul\":1446:1451   */\n      dup2\n        /* \"#utility.yul\":1428:1452   */\n      tag_60\n      jump\t// in\n    tag_100:\n        /* \"#utility.yul\":1421:1426   */\n      dup2\n        /* \"#utility.yul\":1418:1453   */\n      eq\n        /* \"#utility.yul\":1408:1471   */\n      tag_101\n      jumpi\n        /* \"#utility.yul\":1467:1468   */\n      0x00\n        /* \"#utility.yul\":1464:1465   */\n      0x00\n        /* \"#utility.yul\":1457:1469   */\n      revert\n        /* \"#utility.yul\":1408:1471   */\n    tag_101:\n        /* \"#utility.yul\":1355:1477   */\n      pop\n      jump\t// out\n        /* \"#utility.yul\":1483:1622   */\n    tag_66:\n        /* \"#utility.yul\":1529:1534   */\n      0x00\n        /* \"#utility.yul\":1567:1573   */\n      dup2\n        /* \"#utility.yul\":1554:1574   */\n      calldataload\n        /* \"#utility.yul\":1545:1574   */\n      swap1\n      pop\n        /* \"#utility.yul\":1583:1616   */\n      tag_103\n        /* \"#utility.yul\":1610:1615   */\n      dup2\n        /* \"#utility.yul\":1583:1616   */\n      tag_65\n      jump\t// in\n    tag_103:\n        /* \"#utility.yul\":1483:1622   */\n      swap3\n      swap2\n      pop\n      pop\n      jump\t// out\n        /* \"#utility.yul\":1628:1957   */\n    tag_25:\n        /* \"#utility.yul\":1687:1693   */\n      0x00\n        /* \"#utility.yul\":1736:1738   */\n      0x20\n        /* \"#utility.yul\":1724:1733   */\n      dup3\n        /* \"#utility.yul\":1715:1722   */\n      dup5\n        /* \"#utility.yul\":1711:1734   */\n      sub\n        /* \"#utility.yul\":1707:1739   */\n      slt\n        /* \"#utility.yul\":1704:1823   */\n      iszero\n      tag_105\n      jumpi\n        /* \"#utility.yul\":1742:1821   */\n      tag_106\n      tag_63\n      jump\t// in\n    tag_106:\n        /* \"#utility.yul\":1704:1823   */\n    tag_105:\n        /* \"#utility.yul\":1862:1863   */\n      0x00\n        /* \"#utility.yul\":1887:1940   */\n      tag_107\n        /* \"#utility.yul\":1932:1939   */\n      dup5\n        /* \"#utility.yul\":1923:1929   */\n      dup3\n        /* \"#utility.yul\":1912:1921   */\n      dup6\n        /* \"#utility.yul\":1908:1930   */\n      add\n        /* \"#utility.yul\":1887:1940   */\n      tag_66\n      jump\t// in\n    tag_107:\n        /* \"#utility.yul\":1877:1940   */\n      swap2\n      pop\n        /* \"#utility.yul\":1833:1950   */\n      pop\n        /* \"#utility.yul\":1628:1957   */\n      swap3\n      swap2\n      pop\n      pop\n      jump\t// out\n        /* \"#utility.yul\":1963:2085   */\n    tag_67:\n        /* \"#utility.yul\":2036:2060   */\n      tag_109\n        /* \"#utility.yul\":2054:2059   */\n      dup2\n        /* \"#utility.yul\":2036:2060   */\n      tag_58\n      jump\t// in\n    tag_109:\n        /* \"#utility.yul\":2029:2034   */\n      dup2\n        /* \"#utility.yul\":2026:2061   */\n      eq\n        /* \"#utility.yul\":2016:2079   */\n      tag_110\n      jumpi\n        /* \"#utility.yul\":2075:2076   */\n      0x00\n        /* \"#utility.yul\":2072:2073   */\n      0x00\n        /* \"#utility.yul\":2065:2077   */\n      revert\n        /* \"#utility.yul\":2016:2079   */\n    tag_110:\n        /* \"#utility.yul\":1963:2085   */\n      pop\n      jump\t// out\n        /* \"#utility.yul\":2091:2230   */\n    tag_68:\n        /* \"#utility.yul\":2137:2142   */\n      0x00\n        /* \"#utility.yul\":2175:2181   */\n      dup2\n        /* \"#utility.yul\":2162:2182   */\n      calldataload\n        /* \"#utility.yul\":2153:2182   */\n      swap1\n      pop\n        /* \"#utility.yul\":2191:2224   */\n      tag_112\n        /* \"#utility.yul\":2218:2223   */\n      dup2\n        /* \"#utility.yul\":2191:2224   */\n      tag_67\n      jump\t// in\n    tag_112:\n        /* \"#utility.yul\":2091:2230   */\n      swap3\n      swap2\n      pop\n      pop\n      jump\t// out\n        /* \"#utility.yul\":2236:2565   */\n    tag_30:\n        /* \"#utility.yul\":2295:2301   */\n      0x00\n        /* \"#utility.yul\":2344:2346   */\n      0x20\n        /* \"#utility.yul\":2332:2341   */\n      dup3\n        /* \"#utility.yul\":2323:2330   */\n      dup5\n        /* \"#utility.yul\":2319:2342   */\n      sub\n        /* \"#utility.yul\":2315:2347   */\n      slt\n        /* \"#utility.yul\":2312:2431   */\n      iszero\n      tag_114\n      jumpi\n        /* \"#utility.yul\":2350:2429   */\n      tag_115\n      tag_63\n      jump\t// in\n    tag_115:\n        /* \"#utility.yul\":2312:2431   */\n    tag_114:\n        /* \"#utility.yul\":2470:2471   */\n      0x00\n        /* \"#utility.yul\":2495:2548   */\n      tag_116\n        /* \"#utility.yul\":2540:2547   */\n      dup5\n        /* \"#utility.yul\":2531:2537   */\n      dup3\n        /* \"#utility.yul\":2520:2529   */\n      dup6\n        /* \"#utility.yul\":2516:2538   */\n      add\n        /* \"#utility.yul\":2495:2548   */\n      tag_68\n      jump\t// in\n    tag_116:\n        /* \"#utility.yul\":2485:2548   */\n      swap2\n      pop\n        /* \"#utility.yul\":2441:2558   */\n      pop\n        /* \"#utility.yul\":2236:2565   */\n      swap3\n      swap2\n      pop\n      pop\n      jump\t// out\n        /* \"#utility.yul\":2571:2688   */\n    tag_69:\n        /* \"#utility.yul\":2680:2681   */\n      0x00\n        /* \"#utility.yul\":2677:2678   */\n      0x00\n        /* \"#utility.yul\":2670:2682   */\n      revert\n        /* \"#utility.yul\":2694:2811   */\n    tag_70:\n        /* \"#utility.yul\":2803:2804   */\n      0x00\n        /* \"#utility.yul\":2800:2801   */\n      0x00\n        /* \"#utility.yul\":2793:2805   */\n      revert\n        /* \"#utility.yul\":2817:2934   */\n    tag_71:\n        /* \"#utility.yul\":2926:2927   */\n      0x00\n        /* \"#utility.yul\":2923:2924   */\n      0x00\n        /* \"#utility.yul\":2916:2928   */\n      revert\n        /* \"#utility.yul\":2954:3507   */\n    tag_72:\n        /* \"#utility.yul\":3012:3020   */\n      0x00\n        /* \"#utility.yul\":3022:3028   */\n      0x00\n        /* \"#utility.yul\":3072:3075   */\n      dup4\n        /* \"#utility.yul\":3065:3069   */\n      0x1f\n        /* \"#utility.yul\":3057:3063   */\n      dup5\n        /* \"#utility.yul\":3053:3070   */\n      add\n        /* \"#utility.yul\":3049:3076   */\n      slt\n        /* \"#utility.yul\":3039:3161   */\n      tag_121\n      jumpi\n        /* \"#utility.yul\":3080:3159   */\n      tag_122\n      tag_69\n      jump\t// in\n    tag_122:\n        /* \"#utility.yul\":3039:3161   */\n    tag_121:\n        /* \"#utility.yul\":3193:3199   */\n      dup3\n        /* \"#utility.yul\":3180:3200   */\n      calldataload\n        /* \"#utility.yul\":3170:3200   */\n      swap1\n      pop\n        /* \"#utility.yul\":3223:3241   */\n      0xffffffffffffffff\n        /* \"#utility.yul\":3215:3221   */\n      dup2\n        /* \"#utility.yul\":3212:3242   */\n      gt\n        /* \"#utility.yul\":3209:3326   */\n      iszero\n      tag_123\n      jumpi\n        /* \"#utility.yul\":3245:3324   */\n      tag_124\n      tag_70\n      jump\t// in\n    tag_124:\n        /* \"#utility.yul\":3209:3326   */\n    tag_123:\n        /* \"#utility.yul\":3359:3363   */\n      0x20\n        /* \"#utility.yul\":3351:3357   */\n      dup4\n        /* \"#utility.yul\":3347:3364   */\n      add\n        /* \"#utility.yul\":3335:3364   */\n      swap2\n      pop\n        /* \"#utility.yul\":3413:3416   */\n      dup4\n        /* \"#utility.yul\":3405:3409   */\n      0x01\n        /* \"#utility.yul\":3397:3403   */\n      dup3\n        /* \"#utility.yul\":3393:3410   */\n      mul\n        /* \"#utility.yul\":3383:3391   */\n      dup4\n        /* \"#utility.yul\":3379:3411   */\n      add\n        /* \"#utility.yul\":3376:3417   */\n      gt\n        /* \"#utility.yul\":3373:3501   */\n      iszero\n      tag_125\n      jumpi\n        /* \"#utility.yul\":3420:3499   */\n      tag_126\n      tag_71\n      jump\t// in\n    tag_126:\n        /* \"#utility.yul\":3373:3501   */\n    tag_125:\n        /* \"#utility.yul\":2954:3507   */\n      swap3\n      pop\n      swap3\n      swap1\n      pop\n      jump\t// out\n        /* \"#utility.yul\":3513:4042   */\n    tag_34:\n        /* \"#utility.yul\":3584:3590   */\n      0x00\n        /* \"#utility.yul\":3592:3598   */\n      0x00\n        /* \"#utility.yul\":3641:3643   */\n      0x20\n        /* \"#utility.yul\":3629:3638   */\n      dup4\n        /* \"#utility.yul\":3620:3627   */\n      dup6\n        /* \"#utility.yul\":3616:3639   */\n      sub\n        /* \"#utility.yul\":3612:3644   */\n      slt\n        /* \"#utility.yul\":3609:3728   */\n      iszero\n      tag_128\n      jumpi\n        /* \"#utility.yul\":3647:3726   */\n      tag_129\n      tag_63\n      jump\t// in\n    tag_129:\n        /* \"#utility.yul\":3609:3728   */\n    tag_128:\n        /* \"#utility.yul\":3795:3796   */\n      0x00\n        /* \"#utility.yul\":3784:3793   */\n      dup4\n        /* \"#utility.yul\":3780:3797   */\n      add\n        /* \"#utility.yul\":3767:3798   */\n      calldataload\n        /* \"#utility.yul\":3825:3843   */\n      0xffffffffffffffff\n        /* \"#utility.yul\":3817:3823   */\n      dup2\n        /* \"#utility.yul\":3814:3844   */\n      gt\n        /* \"#utility.yul\":3811:3928   */\n      iszero\n      tag_130\n      jumpi\n        /* \"#utility.yul\":3847:3926   */\n      tag_131\n      tag_64\n      jump\t// in\n    tag_131:\n        /* \"#utility.yul\":3811:3928   */\n    tag_130:\n        /* \"#utility.yul\":3960:4025   */\n      tag_132\n        /* \"#utility.yul\":4017:4024   */\n      dup6\n        /* \"#utility.yul\":4008:4014   */\n      dup3\n        /* \"#utility.yul\":3997:4006   */\n      dup7\n        /* \"#utility.yul\":3993:4015   */\n      add\n        /* \"#utility.yul\":3960:4025   */\n      tag_72\n      jump\t// in\n    tag_132:\n        /* \"#utility.yul\":3942:4025   */\n      swap3\n      pop\n      swap3\n      pop\n        /* \"#utility.yul\":3738:4035   */\n      pop\n        /* \"#utility.yul\":3513:4042   */\n      swap3\n      pop\n      swap3\n      swap1\n      pop\n      jump\t// out\n        /* \"#utility.yul\":4048:4217   */\n    tag_73:\n        /* \"#utility.yul\":4132:4143   */\n      0x00\n        /* \"#utility.yul\":4166:4172   */\n      dup3\n        /* \"#utility.yul\":4161:4164   */\n      dup3\n        /* \"#utility.yul\":4154:4173   */\n      mstore\n        /* \"#utility.yul\":4206:4210   */\n      0x20\n        /* \"#utility.yul\":4201:4204   */\n      dup3\n        /* \"#utility.yul\":4197:4211   */\n      add\n        /* \"#utility.yul\":4182:4211   */\n      swap1\n      pop\n        /* \"#utility.yul\":4048:4217   */\n      swap3\n      swap2\n      pop\n      pop\n      jump\t// out\n        /* \"#utility.yul\":4223:4382   */\n    tag_74:\n        /* \"#utility.yul\":4363:4374   */\n      0x4e6f74206f776e65720000000000000000000000000000000000000000000000\n        /* \"#utility.yul\":4359:4360   */\n      0x00\n        /* \"#utility.yul\":4351:4357   */\n      dup3\n        /* \"#utility.yul\":4347:4361   */\n      add\n        /* \"#utility.yul\":4340:4375   */\n      mstore\n        /* \"#utility.yul\":4223:4382   */\n      pop\n      jump\t// out\n        /* \"#utility.yul\":4388:4753   */\n    tag_75:\n        /* \"#utility.yul\":4530:4533   */\n      0x00\n        /* \"#utility.yul\":4551:4617   */\n      tag_136\n        /* \"#utility.yul\":4615:4616   */\n      0x09\n        /* \"#utility.yul\":4610:4613   */\n      dup4\n        /* \"#utility.yul\":4551:4617   */\n      tag_73\n      jump\t// in\n    tag_136:\n        /* \"#utility.yul\":4544:4617   */\n      swap2\n      pop\n        /* \"#utility.yul\":4626:4719   */\n      tag_137\n        /* \"#utility.yul\":4715:4718   */\n      dup3\n        /* \"#utility.yul\":4626:4719   */\n      tag_74\n      jump\t// in\n    tag_137:\n        /* \"#utility.yul\":4744:4746   */\n      0x20\n        /* \"#utility.yul\":4739:4742   */\n      dup3\n        /* \"#utility.yul\":4735:4747   */\n      add\n        /* \"#utility.yul\":4728:4747   */\n      swap1\n      pop\n        /* \"#utility.yul\":4388:4753   */\n      swap2\n      swap1\n      pop\n      jump\t// out\n        /* \"#utility.yul\":4759:5178   */\n    tag_39:\n        /* \"#utility.yul\":4925:4929   */\n      0x00\n        /* \"#utility.yul\":4963:4965   */\n      0x20\n        /* \"#utility.yul\":4952:4961   */\n      dup3\n        /* \"#utility.yul\":4948:4966   */\n      add\n        /* \"#utility.yul\":4940:4966   */\n      swap1\n      pop\n        /* \"#utility.yul\":5012:5021   */\n      dup2\n        /* \"#utility.yul\":5006:5010   */\n      dup2\n        /* \"#utility.yul\":5002:5022   */\n      sub\n        /* \"#utility.yul\":4998:4999   */\n      0x00\n        /* \"#utility.yul\":4987:4996   */\n      dup4\n        /* \"#utility.yul\":4983:5000   */\n      add\n        /* \"#utility.yul\":4976:5023   */\n      mstore\n        /* \"#utility.yul\":5040:5171   */\n      tag_139\n        /* \"#utility.yul\":5166:5170   */\n      dup2\n        /* \"#utility.yul\":5040:5171   */\n      tag_75\n      jump\t// in\n    tag_139:\n        /* \"#utility.yul\":5032:5171   */\n      swap1\n      pop\n        /* \"#utility.yul\":4759:5178   */\n      swap2\n      swap1\n      pop\n      jump\t// out\n        /* \"#utility.yul\":5184:5332   */\n    tag_76:\n        /* \"#utility.yul\":5282:5288   */\n      dup3\n        /* \"#utility.yul\":5277:5280   */\n      dup2\n        /* \"#utility.yul\":5272:5275   */\n      dup4\n        /* \"#utility.yul\":5259:5289   */\n      calldatacopy\n        /* \"#utility.yul\":5323:5324   */\n      0x00\n        /* \"#utility.yul\":5314:5320   */\n      dup4\n        /* \"#utility.yul\":5309:5312   */\n      dup4\n        /* \"#utility.yul\":5305:5321   */\n      add\n        /* \"#utility.yul\":5298:5325   */\n      mstore\n        /* \"#utility.yul\":5184:5332   */\n      pop\n      pop\n      pop\n      jump\t// out\n        /* \"#utility.yul\":5338:5440   */\n    tag_77:\n        /* \"#utility.yul\":5379:5385   */\n      0x00\n        /* \"#utility.yul\":5430:5432   */\n      0x1f\n        /* \"#utility.yul\":5426:5433   */\n      not\n        /* \"#utility.yul\":5421:5423   */\n      0x1f\n        /* \"#utility.yul\":5414:5419   */\n      dup4\n        /* \"#utility.yul\":5410:5424   */\n      add\n        /* \"#utility.yul\":5406:5434   */\n      and\n        /* \"#utility.yul\":5396:5434   */\n      swap1\n      pop\n        /* \"#utility.yul\":5338:5440   */\n      swap2\n      swap1\n      pop\n      jump\t// out\n        /* \"#utility.yul\":5470:5787   */\n    tag_78:\n        /* \"#utility.yul\":5568:5571   */\n      0x00\n        /* \"#utility.yul\":5589:5660   */\n      tag_143\n        /* \"#utility.yul\":5653:5659   */\n      dup4\n        /* \"#utility.yul\":5648:5651   */\n      dup6\n        /* \"#utility.yul\":5589:5660   */\n      tag_73\n      jump\t// in\n    tag_143:\n        /* \"#utility.yul\":5582:5660   */\n      swap4\n      pop\n        /* \"#utility.yul\":5670:5726   */\n      tag_144\n        /* \"#utility.yul\":5719:5725   */\n      dup4\n        /* \"#utility.yul\":5714:5717   */\n      dup6\n        /* \"#utility.yul\":5707:5712   */\n      dup5\n        /* \"#utility.yul\":5670:5726   */\n      tag_76\n      jump\t// in\n    tag_144:\n        /* \"#utility.yul\":5751:5780   */\n      tag_145\n        /* \"#utility.yul\":5773:5779   */\n      dup4\n        /* \"#utility.yul\":5751:5780   */\n      tag_77\n      jump\t// in\n    tag_145:\n        /* \"#utility.yul\":5746:5749   */\n      dup5\n        /* \"#utility.yul\":5742:5781   */\n      add\n        /* \"#utility.yul\":5735:5781   */\n      swap1\n      pop\n        /* \"#utility.yul\":5470:5787   */\n      swap4\n      swap3\n      pop\n      pop\n      pop\n      jump\t// out\n        /* \"#utility.yul\":5793:6346   */\n    tag_47:\n        /* \"#utility.yul\":5972:5976   */\n      0x00\n        /* \"#utility.yul\":6010:6012   */\n      0x60\n        /* \"#utility.yul\":5999:6008   */\n      dup3\n        /* \"#utility.yul\":5995:6013   */\n      add\n        /* \"#utility.yul\":5987:6013   */\n      swap1\n      pop\n        /* \"#utility.yul\":6059:6068   */\n      dup2\n        /* \"#utility.yul\":6053:6057   */\n      dup2\n        /* \"#utility.yul\":6049:6069   */\n      sub\n        /* \"#utility.yul\":6045:6046   */\n      0x00\n        /* \"#utility.yul\":6034:6043   */\n      dup4\n        /* \"#utility.yul\":6030:6047   */\n      add\n        /* \"#utility.yul\":6023:6070   */\n      mstore\n        /* \"#utility.yul\":6087:6175   */\n      tag_147\n        /* \"#utility.yul\":6170:6174   */\n      dup2\n        /* \"#utility.yul\":6161:6167   */\n      dup7\n        /* \"#utility.yul\":6153:6159   */\n      dup9\n        /* \"#utility.yul\":6087:6175   */\n      tag_78\n      jump\t// in\n    tag_147:\n        /* \"#utility.yul\":6079:6175   */\n      swap1\n      pop\n        /* \"#utility.yul\":6185:6257   */\n      tag_148\n        /* \"#utility.yul\":6253:6255   */\n      0x20\n        /* \"#utility.yul\":6242:6251   */\n      dup4\n        /* \"#utility.yul\":6238:6256   */\n      add\n        /* \"#utility.yul\":6229:6235   */\n      dup6\n        /* \"#utility.yul\":6185:6257   */\n      tag_59\n      jump\t// in\n    tag_148:\n        /* \"#utility.yul\":6267:6339   */\n      tag_149\n        /* \"#utility.yul\":6335:6337   */\n      0x40\n        /* \"#utility.yul\":6324:6333   */\n      dup4\n        /* \"#utility.yul\":6320:6338   */\n      add\n        /* \"#utility.yul\":6311:6317   */\n      dup5\n        /* \"#utility.yul\":6267:6339   */\n      tag_61\n      jump\t// in\n    tag_149:\n        /* \"#utility.yul\":5793:6346   */\n      swap6\n      swap5\n      pop\n      pop\n      pop\n      pop\n      pop\n      jump\t// out\n        /* \"#utility.yul\":6352:6531   */\n    tag_79:\n        /* \"#utility.yul\":6492:6523   */\n      0x496e73756666696369656e7420726567697374726174696f6e20666565000000\n        /* \"#utility.yul\":6488:6489   */\n      0x00\n        /* \"#utility.yul\":6480:6486   */\n      dup3\n        /* \"#utility.yul\":6476:6490   */\n      add\n        /* \"#utility.yul\":6469:6524   */\n      mstore\n        /* \"#utility.yul\":6352:6531   */\n      pop\n      jump\t// out\n        /* \"#utility.yul\":6537:6903   */\n    tag_80:\n        /* \"#utility.yul\":6679:6682   */\n      0x00\n        /* \"#utility.yul\":6700:6767   */\n      tag_152\n        /* \"#utility.yul\":6764:6766   */\n      0x1d\n        /* \"#utility.yul\":6759:6762   */\n      dup4\n        /* \"#utility.yul\":6700:6767   */\n      tag_73\n      jump\t// in\n    tag_152:\n        /* \"#utility.yul\":6693:6767   */\n      swap2\n      pop\n        /* \"#utility.yul\":6776:6869   */\n      tag_153\n        /* \"#utility.yul\":6865:6868   */\n      dup3\n        /* \"#utility.yul\":6776:6869   */\n      tag_79\n      jump\t// in\n    tag_153:\n        /* \"#utility.yul\":6894:6896   */\n      0x20\n        /* \"#utility.yul\":6889:6892   */\n      dup3\n        /* \"#utility.yul\":6885:6897   */\n      add\n        /* \"#utility.yul\":6878:6897   */\n      swap1\n      pop\n        /* \"#utility.yul\":6537:6903   */\n      swap2\n      swap1\n      pop\n      jump\t// out\n        /* \"#utility.yul\":6909:7328   */\n    tag_50:\n        /* \"#utility.yul\":7075:7079   */\n      0x00\n        /* \"#utility.yul\":7113:7115   */\n      0x20\n        /* \"#utility.yul\":7102:7111   */\n      dup3\n        /* \"#utility.yul\":7098:7116   */\n      add\n        /* \"#utility.yul\":7090:7116   */\n      swap1\n      pop\n        /* \"#utility.yul\":7162:7171   */\n      dup2\n        /* \"#utility.yul\":7156:7160   */\n      dup2\n        /* \"#utility.yul\":7152:7172   */\n      sub\n        /* \"#utility.yul\":7148:7149   */\n      0x00\n        /* \"#utility.yul\":7137:7146   */\n      dup4\n        /* \"#utility.yul\":7133:7150   */\n      add\n        /* \"#utility.yul\":7126:7173   */\n      mstore\n        /* \"#utility.yul\":7190:7321   */\n      tag_155\n        /* \"#utility.yul\":7316:7320   */\n      dup2\n        /* \"#utility.yul\":7190:7321   */\n      tag_80\n      jump\t// in\n    tag_155:\n        /* \"#utility.yul\":7182:7321   */\n      swap1\n      pop\n        /* \"#utility.yul\":6909:7328   */\n      swap2\n      swap1\n      pop\n      jump\t// out\n        /* \"#utility.yul\":7334:7776   */\n    tag_54:\n        /* \"#utility.yul\":7483:7487   */\n      0x00\n        /* \"#utility.yul\":7521:7523   */\n      0x60\n        /* \"#utility.yul\":7510:7519   */\n      dup3\n        /* \"#utility.yul\":7506:7524   */\n      add\n        /* \"#utility.yul\":7498:7524   */\n      swap1\n      pop\n        /* \"#utility.yul\":7534:7605   */\n      tag_157\n        /* \"#utility.yul\":7602:7603   */\n      0x00\n        /* \"#utility.yul\":7591:7600   */\n      dup4\n        /* \"#utility.yul\":7587:7604   */\n      add\n        /* \"#utility.yul\":7578:7584   */\n      dup7\n        /* \"#utility.yul\":7534:7605   */\n      tag_59\n      jump\t// in\n    tag_157:\n        /* \"#utility.yul\":7615:7687   */\n      tag_158\n        /* \"#utility.yul\":7683:7685   */\n      0x20\n        /* \"#utility.yul\":7672:7681   */\n      dup4\n        /* \"#utility.yul\":7668:7686   */\n      add\n        /* \"#utility.yul\":7659:7665   */\n      dup6\n        /* \"#utility.yul\":7615:7687   */\n      tag_59\n      jump\t// in\n    tag_158:\n        /* \"#utility.yul\":7697:7769   */\n      tag_159\n        /* \"#utility.yul\":7765:7767   */\n      0x40\n        /* \"#utility.yul\":7754:7763   */\n      dup4\n        /* \"#utility.yul\":7750:7768   */\n      add\n        /* \"#utility.yul\":7741:7747   */\n      dup5\n        /* \"#utility.yul\":7697:7769   */\n      tag_61\n      jump\t// in\n    tag_159:\n        /* \"#utility.yul\":7334:7776   */\n      swap5\n      swap4\n      pop\n      pop\n      pop\n      pop\n      jump\t// out\n        /* \"#utility.yul\":7782:7948   */\n    tag_81:\n        /* \"#utility.yul\":7922:7940   */\n      0x7265676973746572696e67206865726500000000000000000000000000000000\n        /* \"#utility.yul\":7918:7919   */\n      0x00\n        /* \"#utility.yul\":7910:7916   */\n      dup3\n        /* \"#utility.yul\":7906:7920   */\n      add\n        /* \"#utility.yul\":7899:7941   */\n      mstore\n        /* \"#utility.yul\":7782:7948   */\n      pop\n      jump\t// out\n        /* \"#utility.yul\":7954:8320   */\n    tag_82:\n        /* \"#utility.yul\":8096:8099   */\n      0x00\n        /* \"#utility.yul\":8117:8184   */\n      tag_162\n        /* \"#utility.yul\":8181:8183   */\n      0x10\n        /* \"#utility.yul\":8176:8179   */\n      dup4\n        /* \"#utility.yul\":8117:8184   */\n      tag_73\n      jump\t// in\n    tag_162:\n        /* \"#utility.yul\":8110:8184   */\n      swap2\n      pop\n        /* \"#utility.yul\":8193:8286   */\n      tag_163\n        /* \"#utility.yul\":8282:8285   */\n      dup3\n        /* \"#utility.yul\":8193:8286   */\n      tag_81\n      jump\t// in\n    tag_163:\n        /* \"#utility.yul\":8311:8313   */\n      0x20\n        /* \"#utility.yul\":8306:8309   */\n      dup3\n        /* \"#utility.yul\":8302:8314   */\n      add\n        /* \"#utility.yul\":8295:8314   */\n      swap1\n      pop\n        /* \"#utility.yul\":7954:8320   */\n      swap2\n      swap1\n      pop\n      jump\t// out\n        /* \"#utility.yul\":8326:8745   */\n    tag_56:\n        /* \"#utility.yul\":8492:8496   */\n      0x00\n        /* \"#utility.yul\":8530:8532   */\n      0x20\n        /* \"#utility.yul\":8519:8528   */\n      dup3\n        /* \"#utility.yul\":8515:8533   */\n      add\n        /* \"#utility.yul\":8507:8533   */\n      swap1\n      pop\n        /* \"#utility.yul\":8579:8588   */\n      dup2\n        /* \"#utility.yul\":8573:8577   */\n      dup2\n        /* \"#utility.yul\":8569:8589   */\n      sub\n        /* \"#utility.yul\":8565:8566   */\n      0x00\n        /* \"#utility.yul\":8554:8563   */\n      dup4\n        /* \"#utility.yul\":8550:8567   */\n      add\n        /* \"#utility.yul\":8543:8590   */\n      mstore\n        /* \"#utility.yul\":8607:8738   */\n      tag_165\n        /* \"#utility.yul\":8733:8737   */\n      dup2\n        /* \"#utility.yul\":8607:8738   */\n      tag_82\n      jump\t// in\n    tag_165:\n        /* \"#utility.yul\":8599:8738   */\n      swap1\n      pop\n        /* \"#utility.yul\":8326:8745   */\n      swap2\n      swap1\n      pop\n      jump\t// out\n\n    auxdata: 0xa26469706673582212206888d95cd3a340ff8f0cca297561d7de8d13097fccf65ef21b79cae84f5695c164736f6c634300081d0033\n}\n",
				"bytecode": {
					"linkReferences": {},
					"object": "6080604052604051610ace380380610ace833981810160405281019061002591906101bf565b835f5f6101000a81548173ffffffffffffffffffffffffffffffffffffffff021916908373ffffffffffffffffffffffffffffffffffffffff16021790555082600481905550816001819055508060025f6101000a81548173ffffffffffffffffffffffffffffffffffffffff021916908373ffffffffffffffffffffffffffffffffffffffff1602179055503360035f6101000a81548173ffffffffffffffffffffffffffffffffffffffff021916908373ffffffffffffffffffffffffffffffffffffffff16021790555050505050610223565b5f5ffd5b5f73ffffffffffffffffffffffffffffffffffffffff82169050919050565b5f610128826100ff565b9050919050565b6101388161011e565b8114610142575f5ffd5b50565b5f815190506101538161012f565b92915050565b5f819050919050565b61016b81610159565b8114610175575f5ffd5b50565b5f8151905061018681610162565b92915050565b5f819050919050565b61019e8161018c565b81146101a8575f5ffd5b50565b5f815190506101b981610195565b92915050565b5f5f5f5f608085870312156101d7576101d66100fb565b5b5f6101e487828801610145565b94505060206101f587828801610178565b9350506040610206878288016101ab565b925050606061021787828801610145565b91505092959194509250565b61089e806102305f395ff3fe608060405260043610610054575f3560e01c806304f3bcec1461005857806314c44e091461008257806346904840146100ac578063c320c727146100d6578063e74b981b146100fe578063f2c298be14610126575b5f5ffd5b348015610063575f5ffd5b5061006c610142565b60405161007991906104bb565b60405180910390f35b34801561008d575f5ffd5b50610096610166565b6040516100a391906104ec565b60405180910390f35b3480156100b7575f5ffd5b506100c061016c565b6040516100cd91906104bb565b60405180910390f35b3480156100e1575f5ffd5b506100fc60048036038101906100f79190610537565b610191565b005b348015610109575f5ffd5b50610124600480360381019061011f919061058c565b61022a565b005b610140600480360381019061013b9190610618565b6102fc565b005b5f5f9054906101000a900473ffffffffffffffffffffffffffffffffffffffff1681565b60015481565b60025f9054906101000a900473ffffffffffffffffffffffffffffffffffffffff1681565b60035f9054906101000a900473ffffffffffffffffffffffffffffffffffffffff1673ffffffffffffffffffffffffffffffffffffffff163373ffffffffffffffffffffffffffffffffffffffff1614610220576040517f08c379a0000000000000000000000000000000000000000000000000000000008152600401610217906106bd565b60405180910390fd5b8060018190555050565b60035f9054906101000a900473ffffffffffffffffffffffffffffffffffffffff1673ffffffffffffffffffffffffffffffffffffffff163373ffffffffffffffffffffffffffffffffffffffff16146102b9576040517f08c379a00000000000000000000000000000000000000000000000000000000081526004016102b0906106bd565b60405180910390fd5b8060025f6101000a81548173ffffffffffffffffffffffffffffffffffffffff021916908373ffffffffffffffffffffffffffffffffffffffff16021790555050565b7f94deee2420f0dd7bbdd75ed6d495df1463209cffb99669e673d7090363bb0d49828233346040516103319493929190610725565b60405180910390a160015434101561037e576040517f08c379a0000000000000000000000000000000000000000000000000000000008152600401610375906107ad565b60405180910390fd5b60025f9054906101000a900473ffffffffffffffffffffffffffffffffffffffff1673ffffffffffffffffffffffffffffffffffffffff166108fc60015490811502906040515f60405180830381858888f193505050501580156103e4573d5f5f3e3d5ffd5b507f1d6298f49fc15449b78df91fcca6812136edc2972366cb70aa0d9145a308cd313360025f9054906101000a900473ffffffffffffffffffffffffffffffffffffffff1660015460405161043b939291906107cb565b60405180910390a17f06604d9ad84808cf542e7534e198d8975ffd0f1534c37b48dc5ff549f74e73f76040516104709061084a565b60405180910390a15050565b5f73ffffffffffffffffffffffffffffffffffffffff82169050919050565b5f6104a58261047c565b9050919050565b6104b58161049b565b82525050565b5f6020820190506104ce5f8301846104ac565b92915050565b5f819050919050565b6104e6816104d4565b82525050565b5f6020820190506104ff5f8301846104dd565b92915050565b5f5ffd5b5f5ffd5b610516816104d4565b8114610520575f5ffd5b50565b5f813590506105318161050d565b92915050565b5f6020828403121561054c5761054b610505565b5b5f61055984828501610523565b91505092915050565b61056b8161049b565b8114610575575f5ffd5b50565b5f8135905061058681610562565b92915050565b5f602082840312156105a1576105a0610505565b5b5f6105ae84828501610578565b91505092915050565b5f5ffd5b5f5ffd5b5f5ffd5b5f5f83601f8401126105d8576105d76105b7565b5b8235905067ffffffffffffffff8111156105f5576105f46105bb565b5b602083019150836001820283011115610611576106106105bf565b5b9250929050565b5f5f6020838503121561062e5761062d610505565b5b5f83013567ffffffffffffffff81111561064b5761064a610509565b5b610657858286016105c3565b92509250509250929050565b5f82825260208201905092915050565b7f4e6f74206f776e657200000000000000000000000000000000000000000000005f82015250565b5f6106a7600983610663565b91506106b282610673565b602082019050919050565b5f6020820190508181035f8301526106d48161069b565b9050919050565b828183375f83830152505050565b5f601f19601f8301169050919050565b5f6107048385610663565b93506107118385846106db565b61071a836106e9565b840190509392505050565b5f6060820190508181035f83015261073e8186886106f9565b905061074d60208301856104ac565b61075a60408301846104dd565b95945050505050565b7f496e73756666696369656e7420726567697374726174696f6e206665650000005f82015250565b5f610797601d83610663565b91506107a282610763565b602082019050919050565b5f6020820190508181035f8301526107c48161078b565b9050919050565b5f6060820190506107de5f8301866104ac565b6107eb60208301856104ac565b6107f860408301846104dd565b949350505050565b7f7265676973746572696e672068657265000000000000000000000000000000005f82015250565b5f610834601083610663565b915061083f82610800565b602082019050919050565b5f6020820190508181035f83015261086181610828565b905091905056fea26469706673582212206888d95cd3a340ff8f0cca297561d7de8d13097fccf65ef21b79cae84f5695c164736f6c634300081d0033",
					"opcodes": "PUSH1 0x80 PUSH1 0x40 MSTORE PUSH1 0x40 MLOAD PUSH2 0xACE CODESIZE SUB DUP1 PUSH2 0xACE DUP4 CODECOPY DUP2 DUP2 ADD PUSH1 0x40 MSTORE DUP2 ADD SWAP1 PUSH2 0x25 SWAP2 SWAP1 PUSH2 0x1BF JUMP JUMPDEST DUP4 PUSH0 PUSH0 PUSH2 0x100 EXP DUP2 SLOAD DUP2 PUSH20 0xFFFFFFFFFFFFFFFFFFFFFFFFFFFFFFFFFFFFFFFF MUL NOT AND SWAP1 DUP4 PUSH20 0xFFFFFFFFFFFFFFFFFFFFFFFFFFFFFFFFFFFFFFFF AND MUL OR SWAP1 SSTORE POP DUP3 PUSH1 0x4 DUP2 SWAP1 SSTORE POP DUP2 PUSH1 0x1 DUP2 SWAP1 SSTORE POP DUP1 PUSH1 0x2 PUSH0 PUSH2 0x100 EXP DUP2 SLOAD DUP2 PUSH20 0xFFFFFFFFFFFFFFFFFFFFFFFFFFFFFFFFFFFFFFFF MUL NOT AND SWAP1 DUP4 PUSH20 0xFFFFFFFFFFFFFFFFFFFFFFFFFFFFFFFFFFFFFFFF AND MUL OR SWAP1 SSTORE POP CALLER PUSH1 0x3 PUSH0 PUSH2 0x100 EXP DUP2 SLOAD DUP2 PUSH20 0xFFFFFFFFFFFFFFFFFFFFFFFFFFFFFFFFFFFFFFFF MUL NOT AND SWAP1 DUP4 PUSH20 0xFFFFFFFFFFFFFFFFFFFFFFFFFFFFFFFFFFFFFFFF AND MUL OR SWAP1 SSTORE POP POP POP POP POP PUSH2 0x223 JUMP JUMPDEST PUSH0 PUSH0 REVERT JUMPDEST PUSH0 PUSH20 0xFFFFFFFFFFFFFFFFFFFFFFFFFFFFFFFFFFFFFFFF DUP3 AND SWAP1 POP SWAP2 SWAP1 POP JUMP JUMPDEST PUSH0 PUSH2 0x128 DUP3 PUSH2 0xFF JUMP JUMPDEST SWAP1 POP SWAP2 SWAP1 POP JUMP JUMPDEST PUSH2 0x138 DUP2 PUSH2 0x11E JUMP JUMPDEST DUP2 EQ PUSH2 0x142 JUMPI PUSH0 PUSH0 REVERT JUMPDEST POP JUMP JUMPDEST PUSH0 DUP2 MLOAD SWAP1 POP PUSH2 0x153 DUP2 PUSH2 0x12F JUMP JUMPDEST SWAP3 SWAP2 POP POP JUMP JUMPDEST PUSH0 DUP2 SWAP1 POP SWAP2 SWAP1 POP JUMP JUMPDEST PUSH2 0x16B DUP2 PUSH2 0x159 JUMP JUMPDEST DUP2 EQ PUSH2 0x175 JUMPI PUSH0 PUSH0 REVERT JUMPDEST POP JUMP JUMPDEST PUSH0 DUP2 MLOAD SWAP1 POP PUSH2 0x186 DUP2 PUSH2 0x162 JUMP JUMPDEST SWAP3 SWAP2 POP POP JUMP JUMPDEST PUSH0 DUP2 SWAP1 POP SWAP2 SWAP1 POP JUMP JUMPDEST PUSH2 0x19E DUP2 PUSH2 0x18C JUMP JUMPDEST DUP2 EQ PUSH2 0x1A8 JUMPI PUSH0 PUSH0 REVERT JUMPDEST POP JUMP JUMPDEST PUSH0 DUP2 MLOAD SWAP1 POP PUSH2 0x1B9 DUP2 PUSH2 0x195 JUMP JUMPDEST SWAP3 SWAP2 POP POP JUMP JUMPDEST PUSH0 PUSH0 PUSH0 PUSH0 PUSH1 0x80 DUP6 DUP8 SUB SLT ISZERO PUSH2 0x1D7 JUMPI PUSH2 0x1D6 PUSH2 0xFB JUMP JUMPDEST JUMPDEST PUSH0 PUSH2 0x1E4 DUP8 DUP3 DUP9 ADD PUSH2 0x145 JUMP JUMPDEST SWAP5 POP POP PUSH1 0x20 PUSH2 0x1F5 DUP8 DUP3 DUP9 ADD PUSH2 0x178 JUMP JUMPDEST SWAP4 POP POP PUSH1 0x40 PUSH2 0x206 DUP8 DUP3 DUP9 ADD PUSH2 0x1AB JUMP JUMPDEST SWAP3 POP POP PUSH1 0x60 PUSH2 0x217 DUP8 DUP3 DUP9 ADD PUSH2 0x145 JUMP JUMPDEST SWAP2 POP POP SWAP3 SWAP6 SWAP2 SWAP5 POP SWAP3 POP JUMP JUMPDEST PUSH2 0x89E DUP1 PUSH2 0x230 PUSH0 CODECOPY PUSH0 RETURN INVALID PUSH1 0x80 PUSH1 0x40 MSTORE PUSH1 0x4 CALLDATASIZE LT PUSH2 0x54 JUMPI PUSH0 CALLDATALOAD PUSH1 0xE0 SHR DUP1 PUSH4 0x4F3BCEC EQ PUSH2 0x58 JUMPI DUP1 PUSH4 0x14C44E09 EQ PUSH2 0x82 JUMPI DUP1 PUSH4 0x46904840 EQ PUSH2 0xAC JUMPI DUP1 PUSH4 0xC320C727 EQ PUSH2 0xD6 JUMPI DUP1 PUSH4 0xE74B981B EQ PUSH2 0xFE JUMPI DUP1 PUSH4 0xF2C298BE EQ PUSH2 0x126 JUMPI JUMPDEST PUSH0 PUSH0 REVERT JUMPDEST CALLVALUE DUP1 ISZERO PUSH2 0x63 JUMPI PUSH0 PUSH0 REVERT JUMPDEST POP PUSH2 0x6C PUSH2 0x142 JUMP JUMPDEST PUSH1 0x40 MLOAD PUSH2 0x79 SWAP2 SWAP1 PUSH2 0x4BB JUMP JUMPDEST PUSH1 0x40 MLOAD DUP1 SWAP2 SUB SWAP1 RETURN JUMPDEST CALLVALUE DUP1 ISZERO PUSH2 0x8D JUMPI PUSH0 PUSH0 REVERT JUMPDEST POP PUSH2 0x96 PUSH2 0x166 JUMP JUMPDEST PUSH1 0x40 MLOAD PUSH2 0xA3 SWAP2 SWAP1 PUSH2 0x4EC JUMP JUMPDEST PUSH1 0x40 MLOAD DUP1 SWAP2 SUB SWAP1 RETURN JUMPDEST CALLVALUE DUP1 ISZERO PUSH2 0xB7 JUMPI PUSH0 PUSH0 REVERT JUMPDEST POP PUSH2 0xC0 PUSH2 0x16C JUMP JUMPDEST PUSH1 0x40 MLOAD PUSH2 0xCD SWAP2 SWAP1 PUSH2 0x4BB JUMP JUMPDEST PUSH1 0x40 MLOAD DUP1 SWAP2 SUB SWAP1 RETURN JUMPDEST CALLVALUE DUP1 ISZERO PUSH2 0xE1 JUMPI PUSH0 PUSH0 REVERT JUMPDEST POP PUSH2 0xFC PUSH1 0x4 DUP1 CALLDATASIZE SUB DUP2 ADD SWAP1 PUSH2 0xF7 SWAP2 SWAP1 PUSH2 0x537 JUMP JUMPDEST PUSH2 0x191 JUMP JUMPDEST STOP JUMPDEST CALLVALUE DUP1 ISZERO PUSH2 0x109 JUMPI PUSH0 PUSH0 REVERT JUMPDEST POP PUSH2 0x124 PUSH1 0x4 DUP1 CALLDATASIZE SUB DUP2 ADD SWAP1 PUSH2 0x11F SWAP2 SWAP1 PUSH2 0x58C JUMP JUMPDEST PUSH2 0x22A JUMP JUMPDEST STOP JUMPDEST PUSH2 0x140 PUSH1 0x4 DUP1 CALLDATASIZE SUB DUP2 ADD SWAP1 PUSH2 0x13B SWAP2 SWAP1 PUSH2 0x618 JUMP JUMPDEST PUSH2 0x2FC JUMP JUMPDEST STOP JUMPDEST PUSH0 PUSH0 SWAP1 SLOAD SWAP1 PUSH2 0x100 EXP SWAP1 DIV PUSH20 0xFFFFFFFFFFFFFFFFFFFFFFFFFFFFFFFFFFFFFFFF AND DUP2 JUMP JUMPDEST PUSH1 0x1 SLOAD DUP2 JUMP JUMPDEST PUSH1 0x2 PUSH0 SWAP1 SLOAD SWAP1 PUSH2 0x100 EXP SWAP1 DIV PUSH20 0xFFFFFFFFFFFFFFFFFFFFFFFFFFFFFFFFFFFFFFFF AND DUP2 JUMP JUMPDEST PUSH1 0x3 PUSH0 SWAP1 SLOAD SWAP1 PUSH2 0x100 EXP SWAP1 DIV PUSH20 0xFFFFFFFFFFFFFFFFFFFFFFFFFFFFFFFFFFFFFFFF AND PUSH20 0xFFFFFFFFFFFFFFFFFFFFFFFFFFFFFFFFFFFFFFFF AND CALLER PUSH20 0xFFFFFFFFFFFFFFFFFFFFFFFFFFFFFFFFFFFFFFFF AND EQ PUSH2 0x220 JUMPI PUSH1 0x40 MLOAD PUSH32 0x8C379A000000000000000000000000000000000000000000000000000000000 DUP2 MSTORE PUSH1 0x4 ADD PUSH2 0x217 SWAP1 PUSH2 0x6BD JUMP JUMPDEST PUSH1 0x40 MLOAD DUP1 SWAP2 SUB SWAP1 REVERT JUMPDEST DUP1 PUSH1 0x1 DUP2 SWAP1 SSTORE POP POP JUMP JUMPDEST PUSH1 0x3 PUSH0 SWAP1 SLOAD SWAP1 PUSH2 0x100 EXP SWAP1 DIV PUSH20 0xFFFFFFFFFFFFFFFFFFFFFFFFFFFFFFFFFFFFFFFF AND PUSH20 0xFFFFFFFFFFFFFFFFFFFFFFFFFFFFFFFFFFFFFFFF AND CALLER PUSH20 0xFFFFFFFFFFFFFFFFFFFFFFFFFFFFFFFFFFFFFFFF AND EQ PUSH2 0x2B9 JUMPI PUSH1 0x40 MLOAD PUSH32 0x8C379A000000000000000000000000000000000000000000000000000000000 DUP2 MSTORE PUSH1 0x4 ADD PUSH2 0x2B0 SWAP1 PUSH2 0x6BD JUMP JUMPDEST PUSH1 0x40 MLOAD DUP1 SWAP2 SUB SWAP1 REVERT JUMPDEST DUP1 PUSH1 0x2 PUSH0 PUSH2 0x100 EXP DUP2 SLOAD DUP2 PUSH20 0xFFFFFFFFFFFFFFFFFFFFFFFFFFFFFFFFFFFFFFFF MUL NOT AND SWAP1 DUP4 PUSH20 0xFFFFFFFFFFFFFFFFFFFFFFFFFFFFFFFFFFFFFFFF AND MUL OR SWAP1 SSTORE POP POP JUMP JUMPDEST PUSH32 0x94DEEE2420F0DD7BBDD75ED6D495DF1463209CFFB99669E673D7090363BB0D49 DUP3 DUP3 CALLER CALLVALUE PUSH1 0x40 MLOAD PUSH2 0x331 SWAP5 SWAP4 SWAP3 SWAP2 SWAP1 PUSH2 0x725 JUMP JUMPDEST PUSH1 0x40 MLOAD DUP1 SWAP2 SUB SWAP1 LOG1 PUSH1 0x1 SLOAD CALLVALUE LT ISZERO PUSH2 0x37E JUMPI PUSH1 0x40 MLOAD PUSH32 0x8C379A000000000000000000000000000000000000000000000000000000000 DUP2 MSTORE PUSH1 0x4 ADD PUSH2 0x375 SWAP1 PUSH2 0x7AD JUMP JUMPDEST PUSH1 0x40 MLOAD DUP1 SWAP2 SUB SWAP1 REVERT JUMPDEST PUSH1 0x2 PUSH0 SWAP1 SLOAD SWAP1 PUSH2 0x100 EXP SWAP1 DIV PUSH20 0xFFFFFFFFFFFFFFFFFFFFFFFFFFFFFFFFFFFFFFFF AND PUSH20 0xFFFFFFFFFFFFFFFFFFFFFFFFFFFFFFFFFFFFFFFF AND PUSH2 0x8FC PUSH1 0x1 SLOAD SWAP1 DUP2 ISZERO MUL SWAP1 PUSH1 0x40 MLOAD PUSH0 PUSH1 0x40 MLOAD DUP1 DUP4 SUB DUP2 DUP6 DUP9 DUP9 CALL SWAP4 POP POP POP POP ISZERO DUP1 ISZERO PUSH2 0x3E4 JUMPI RETURNDATASIZE PUSH0 PUSH0 RETURNDATACOPY RETURNDATASIZE PUSH0 REVERT JUMPDEST POP PUSH32 0x1D6298F49FC15449B78DF91FCCA6812136EDC2972366CB70AA0D9145A308CD31 CALLER PUSH1 0x2 PUSH0 SWAP1 SLOAD SWAP1 PUSH2 0x100 EXP SWAP1 DIV PUSH20 0xFFFFFFFFFFFFFFFFFFFFFFFFFFFFFFFFFFFFFFFF AND PUSH1 0x1 SLOAD PUSH1 0x40 MLOAD PUSH2 0x43B SWAP4 SWAP3 SWAP2 SWAP1 PUSH2 0x7CB JUMP JUMPDEST PUSH1 0x40 MLOAD DUP1 SWAP2 SUB SWAP1 LOG1 PUSH32 0x6604D9AD84808CF542E7534E198D8975FFD0F1534C37B48DC5FF549F74E73F7 PUSH1 0x40 MLOAD PUSH2 0x470 SWAP1 PUSH2 0x84A JUMP JUMPDEST PUSH1 0x40 MLOAD DUP1 SWAP2 SUB SWAP1 LOG1 POP POP JUMP JUMPDEST PUSH0 PUSH20 0xFFFFFFFFFFFFFFFFFFFFFFFFFFFFFFFFFFFFFFFF DUP3 AND SWAP1 POP SWAP2 SWAP1 POP JUMP JUMPDEST PUSH0 PUSH2 0x4A5 DUP3 PUSH2 0x47C JUMP JUMPDEST SWAP1 POP SWAP2 SWAP1 POP JUMP JUMPDEST PUSH2 0x4B5 DUP2 PUSH2 0x49B JUMP JUMPDEST DUP3 MSTORE POP POP JUMP JUMPDEST PUSH0 PUSH1 0x20 DUP3 ADD SWAP1 POP PUSH2 0x4CE PUSH0 DUP4 ADD DUP5 PUSH2 0x4AC JUMP JUMPDEST SWAP3 SWAP2 POP POP JUMP JUMPDEST PUSH0 DUP2 SWAP1 POP SWAP2 SWAP1 POP JUMP JUMPDEST PUSH2 0x4E6 DUP2 PUSH2 0x4D4 JUMP JUMPDEST DUP3 MSTORE POP POP JUMP JUMPDEST PUSH0 PUSH1 0x20 DUP3 ADD SWAP1 POP PUSH2 0x4FF PUSH0 DUP4 ADD DUP5 PUSH2 0x4DD JUMP JUMPDEST SWAP3 SWAP2 POP POP JUMP JUMPDEST PUSH0 PUSH0 REVERT JUMPDEST PUSH0 PUSH0 REVERT JUMPDEST PUSH2 0x516 DUP2 PUSH2 0x4D4 JUMP JUMPDEST DUP2 EQ PUSH2 0x520 JUMPI PUSH0 PUSH0 REVERT JUMPDEST POP JUMP JUMPDEST PUSH0 DUP2 CALLDATALOAD SWAP1 POP PUSH2 0x531 DUP2 PUSH2 0x50D JUMP JUMPDEST SWAP3 SWAP2 POP POP JUMP JUMPDEST PUSH0 PUSH1 0x20 DUP3 DUP5 SUB SLT ISZERO PUSH2 0x54C JUMPI PUSH2 0x54B PUSH2 0x505 JUMP JUMPDEST JUMPDEST PUSH0 PUSH2 0x559 DUP5 DUP3 DUP6 ADD PUSH2 0x523 JUMP JUMPDEST SWAP2 POP POP SWAP3 SWAP2 POP POP JUMP JUMPDEST PUSH2 0x56B DUP2 PUSH2 0x49B JUMP JUMPDEST DUP2 EQ PUSH2 0x575 JUMPI PUSH0 PUSH0 REVERT JUMPDEST POP JUMP JUMPDEST PUSH0 DUP2 CALLDATALOAD SWAP1 POP PUSH2 0x586 DUP2 PUSH2 0x562 JUMP JUMPDEST SWAP3 SWAP2 POP POP JUMP JUMPDEST PUSH0 PUSH1 0x20 DUP3 DUP5 SUB SLT ISZERO PUSH2 0x5A1 JUMPI PUSH2 0x5A0 PUSH2 0x505 JUMP JUMPDEST JUMPDEST PUSH0 PUSH2 0x5AE DUP5 DUP3 DUP6 ADD PUSH2 0x578 JUMP JUMPDEST SWAP2 POP POP SWAP3 SWAP2 POP POP JUMP JUMPDEST PUSH0 PUSH0 REVERT JUMPDEST PUSH0 PUSH0 REVERT JUMPDEST PUSH0 PUSH0 REVERT JUMPDEST PUSH0 PUSH0 DUP4 PUSH1 0x1F DUP5 ADD SLT PUSH2 0x5D8 JUMPI PUSH2 0x5D7 PUSH2 0x5B7 JUMP JUMPDEST JUMPDEST DUP3 CALLDATALOAD SWAP1 POP PUSH8 0xFFFFFFFFFFFFFFFF DUP2 GT ISZERO PUSH2 0x5F5 JUMPI PUSH2 0x5F4 PUSH2 0x5BB JUMP JUMPDEST JUMPDEST PUSH1 0x20 DUP4 ADD SWAP2 POP DUP4 PUSH1 0x1 DUP3 MUL DUP4 ADD GT ISZERO PUSH2 0x611 JUMPI PUSH2 0x610 PUSH2 0x5BF JUMP JUMPDEST JUMPDEST SWAP3 POP SWAP3 SWAP1 POP JUMP JUMPDEST PUSH0 PUSH0 PUSH1 0x20 DUP4 DUP6 SUB SLT ISZERO PUSH2 0x62E JUMPI PUSH2 0x62D PUSH2 0x505 JUMP JUMPDEST JUMPDEST PUSH0 DUP4 ADD CALLDATALOAD PUSH8 0xFFFFFFFFFFFFFFFF DUP2 GT ISZERO PUSH2 0x64B JUMPI PUSH2 0x64A PUSH2 0x509 JUMP JUMPDEST JUMPDEST PUSH2 0x657 DUP6 DUP3 DUP7 ADD PUSH2 0x5C3 JUMP JUMPDEST SWAP3 POP SWAP3 POP POP SWAP3 POP SWAP3 SWAP1 POP JUMP JUMPDEST PUSH0 DUP3 DUP3 MSTORE PUSH1 0x20 DUP3 ADD SWAP1 POP SWAP3 SWAP2 POP POP JUMP JUMPDEST PUSH32 0x4E6F74206F776E65720000000000000000000000000000000000000000000000 PUSH0 DUP3 ADD MSTORE POP JUMP JUMPDEST PUSH0 PUSH2 0x6A7 PUSH1 0x9 DUP4 PUSH2 0x663 JUMP JUMPDEST SWAP2 POP PUSH2 0x6B2 DUP3 PUSH2 0x673 JUMP JUMPDEST PUSH1 0x20 DUP3 ADD SWAP1 POP SWAP2 SWAP1 POP JUMP JUMPDEST PUSH0 PUSH1 0x20 DUP3 ADD SWAP1 POP DUP2 DUP2 SUB PUSH0 DUP4 ADD MSTORE PUSH2 0x6D4 DUP2 PUSH2 0x69B JUMP JUMPDEST SWAP1 POP SWAP2 SWAP1 POP JUMP JUMPDEST DUP3 DUP2 DUP4 CALLDATACOPY PUSH0 DUP4 DUP4 ADD MSTORE POP POP POP JUMP JUMPDEST PUSH0 PUSH1 0x1F NOT PUSH1 0x1F DUP4 ADD AND SWAP1 POP SWAP2 SWAP1 POP JUMP JUMPDEST PUSH0 PUSH2 0x704 DUP4 DUP6 PUSH2 0x663 JUMP JUMPDEST SWAP4 POP PUSH2 0x711 DUP4 DUP6 DUP5 PUSH2 0x6DB JUMP JUMPDEST PUSH2 0x71A DUP4 PUSH2 0x6E9 JUMP JUMPDEST DUP5 ADD SWAP1 POP SWAP4 SWAP3 POP POP POP JUMP JUMPDEST PUSH0 PUSH1 0x60 DUP3 ADD SWAP1 POP DUP2 DUP2 SUB PUSH0 DUP4 ADD MSTORE PUSH2 0x73E DUP2 DUP7 DUP9 PUSH2 0x6F9 JUMP JUMPDEST SWAP1 POP PUSH2 0x74D PUSH1 0x20 DUP4 ADD DUP6 PUSH2 0x4AC JUMP JUMPDEST PUSH2 0x75A PUSH1 0x40 DUP4 ADD DUP5 PUSH2 0x4DD JUMP JUMPDEST SWAP6 SWAP5 POP POP POP POP POP JUMP JUMPDEST PUSH32 0x496E73756666696369656E7420726567697374726174696F6E20666565000000 PUSH0 DUP3 ADD MSTORE POP JUMP JUMPDEST PUSH0 PUSH2 0x797 PUSH1 0x1D DUP4 PUSH2 0x663 JUMP JUMPDEST SWAP2 POP PUSH2 0x7A2 DUP3 PUSH2 0x763 JUMP JUMPDEST PUSH1 0x20 DUP3 ADD SWAP1 POP SWAP2 SWAP1 POP JUMP JUMPDEST PUSH0 PUSH1 0x20 DUP3 ADD SWAP1 POP DUP2 DUP2 SUB PUSH0 DUP4 ADD MSTORE PUSH2 0x7C4 DUP2 PUSH2 0x78B JUMP JUMPDEST SWAP1 POP SWAP2 SWAP1 POP JUMP JUMPDEST PUSH0 PUSH1 0x60 DUP3 ADD SWAP1 POP PUSH2 0x7DE PUSH0 DUP4 ADD DUP7 PUSH2 0x4AC JUMP JUMPDEST PUSH2 0x7EB PUSH1 0x20 DUP4 ADD DUP6 PUSH2 0x4AC JUMP JUMPDEST PUSH2 0x7F8 PUSH1 0x40 DUP4 ADD DUP5 PUSH2 0x4DD JUMP JUMPDEST SWAP5 SWAP4 POP POP POP POP JUMP JUMPDEST PUSH32 0x7265676973746572696E67206865726500000000000000000000000000000000 PUSH0 DUP3 ADD MSTORE POP JUMP JUMPDEST PUSH0 PUSH2 0x834 PUSH1 0x10 DUP4 PUSH2 0x663 JUMP JUMPDEST SWAP2 POP PUSH2 0x83F DUP3 PUSH2 0x800 JUMP JUMPDEST PUSH1 0x20 DUP3 ADD SWAP1 POP SWAP2 SWAP1 POP JUMP JUMPDEST PUSH0 PUSH1 0x20 DUP3 ADD SWAP1 POP DUP2 DUP2 SUB PUSH0 DUP4 ADD MSTORE PUSH2 0x861 DUP2 PUSH2 0x828 JUMP JUMPDEST SWAP1 POP SWAP2 SWAP1 POP JUMP INVALID LOG2 PUSH5 0x6970667358 0x22 SLT KECCAK256 PUSH9 0x88D95CD3A340FF8F0C 0xCA 0x29 PUSH22 0x61D7DE8D13097FCCF65EF21B79CAE84F5695C164736F PUSH13 0x634300081D0033000000000000 "
				},
				"gasEstimates": {
					"creation": {
						"codeDepositCost": "441200",
						"executionCost": "infinite",
						"totalCost": "infinite"
					},
					"external": {
						"feeRecipient()": "2530",
						"register(string)": "infinite",
						"registrationFee()": "2425",
						"resolver()": "2485",
						"setFeeRecipient(address)": "26950",
						"setRegistrationFee(uint256)": "24728"
					}
				},
				"methodIdentifiers": {
					"feeRecipient()": "46904840",
					"register(string)": "f2c298be",
					"registrationFee()": "14c44e09",
					"resolver()": "04f3bcec",
					"setFeeRecipient(address)": "e74b981b",
					"setRegistrationFee(uint256)": "c320c727"
				}
			},
			"storageLayout": {
				"storage": [
					{
						"astId": 3,
						"contract": "contracts/SubdomainRegistrar.sol:SubdomainRegistrar",
						"label": "resolver",
						"offset": 0,
						"slot": "0",
						"type": "t_address"
					},
					{
						"astId": 5,
						"contract": "contracts/SubdomainRegistrar.sol:SubdomainRegistrar",
						"label": "registrationFee",
						"offset": 0,
						"slot": "1",
						"type": "t_uint256"
					},
					{
						"astId": 7,
						"contract": "contracts/SubdomainRegistrar.sol:SubdomainRegistrar",
						"label": "feeRecipient",
						"offset": 0,
						"slot": "2",
						"type": "t_address"
					},
					{
						"astId": 9,
						"contract": "contracts/SubdomainRegistrar.sol:SubdomainRegistrar",
						"label": "owner",
						"offset": 0,
						"slot": "3",
						"type": "t_address"
					},
					{
						"astId": 11,
						"contract": "contracts/SubdomainRegistrar.sol:SubdomainRegistrar",
						"label": "parentNode",
						"offset": 0,
						"slot": "4",
						"type": "t_bytes32"
					}
				],
				"types": {
					"t_address": {
						"encoding": "inplace",
						"label": "address",
						"numberOfBytes": "20"
					},
					"t_bytes32": {
						"encoding": "inplace",
						"label": "bytes32",
						"numberOfBytes": "32"
					},
					"t_uint256": {
						"encoding": "inplace",
						"label": "uint256",
						"numberOfBytes": "32"
					}
				}
			},
			"userdoc": {
				"kind": "user",
				"methods": {},
				"version": 1
			}
		}
	}
}