{
	"contracts/SubdomainRegistrar.sol": {
		"SubdomainRegistrar": {
			"abi": [
				{
					"inputs": [
						{
							"internalType": "address",
							"name": "_nameWrapper",
							"type": "address"
						},
						{
							"internalType": "address",
							"name": "_ensRegistrar",
							"type": "address"
						},
						{
							"internalType": "address",
							"name": "_resolver",
							"type": "address"
						},
						{
							"internalType": "bytes32",
							"name": "_parentNode",
							"type": "bytes32"
						},
						{
							"internalType": "uint256",
							"name": "_registrationFee",
							"type": "uint256"
						},
						{
							"internalType": "address",
							"name": "_feeRecipient",
							"type": "address"
						}
					],
					"stateMutability": "payable",
					"type": "constructor"
				},
				{
					"anonymous": false,
					"inputs": [
						{
							"indexed": false,
							"internalType": "uint256",
							"name": "msgValue",
							"type": "uint256"
						},
						{
							"indexed": false,
							"internalType": "uint256",
							"name": "registrationFee",
							"type": "uint256"
						}
					],
					"name": "LogPaymentDetails",
					"type": "event"
				},
				{
					"anonymous": false,
					"inputs": [
						{
							"indexed": true,
							"internalType": "bytes32",
							"name": "parentNode",
							"type": "bytes32"
						},
						{
							"indexed": false,
							"internalType": "string",
							"name": "label",
							"type": "string"
						},
						{
							"indexed": true,
							"internalType": "address",
							"name": "owner",
							"type": "address"
						}
					],
					"name": "SubdomainRegistered",
					"type": "event"
				},
				{
					"inputs": [],
					"name": "approveWrapperForDomain",
					"outputs": [],
					"stateMutability": "nonpayable",
					"type": "function"
				},
				{
					"inputs": [],
					"name": "ensRegistrar",
					"outputs": [
						{
							"internalType": "contract IENSRegistrar",
							"name": "",
							"type": "address"
						}
					],
					"stateMutability": "view",
					"type": "function"
				},
				{
					"inputs": [],
					"name": "feeRecipient",
					"outputs": [
						{
							"internalType": "address",
							"name": "",
							"type": "address"
						}
					],
					"stateMutability": "view",
					"type": "function"
				},
				{
					"inputs": [],
					"name": "nameWrapper",
					"outputs": [
						{
							"internalType": "contract INameWrapper",
							"name": "",
							"type": "address"
						}
					],
					"stateMutability": "view",
					"type": "function"
				},
				{
					"inputs": [
						{
							"internalType": "string",
							"name": "label",
							"type": "string"
						}
					],
					"name": "register",
					"outputs": [],
					"stateMutability": "payable",
					"type": "function"
				},
				{
					"inputs": [],
					"name": "registrationFee",
					"outputs": [
						{
							"internalType": "uint256",
							"name": "",
							"type": "uint256"
						}
					],
					"stateMutability": "view",
					"type": "function"
				},
				{
					"inputs": [],
					"name": "resolver",
					"outputs": [
						{
							"internalType": "address",
							"name": "",
							"type": "address"
						}
					],
					"stateMutability": "view",
					"type": "function"
				},
				{
					"inputs": [
						{
							"internalType": "address",
							"name": "_feeRecipient",
							"type": "address"
						}
					],
					"name": "setFeeRecipient",
					"outputs": [],
					"stateMutability": "nonpayable",
					"type": "function"
				},
				{
					"inputs": [
						{
							"internalType": "uint256",
							"name": "_registrationFee",
							"type": "uint256"
						}
					],
					"name": "setRegistrationFee",
					"outputs": [],
					"stateMutability": "nonpayable",
					"type": "function"
				},
				{
					"inputs": [],
					"name": "wrapDomain",
					"outputs": [],
					"stateMutability": "nonpayable",
					"type": "function"
				}
			],
			"devdoc": {
				"kind": "dev",
				"methods": {},
				"version": 1
			},
			"evm": {
				"assembly": "    /* \"contracts/SubdomainRegistrar.sol\":795:3008  contract SubdomainRegistrar {... */\n  mstore(0x40, 0x80)\n    /* \"contracts/SubdomainRegistrar.sol\":1234:1726  constructor(... */\n  mload(0x40)\n  sub(codesize, bytecodeSize)\n  dup1\n  bytecodeSize\n  dup4\n  codecopy\n  dup2\n  dup2\n  add\n  0x40\n  mstore\n  dup2\n  add\n  swap1\n  tag_1\n  swap2\n  swap1\n  tag_2\n  jump\t// in\ntag_1:\n    /* \"contracts/SubdomainRegistrar.sol\":1479:1491  _nameWrapper */\n  dup6\n    /* \"contracts/SubdomainRegistrar.sol\":1452:1463  nameWrapper */\n  0x00\n  dup1\n    /* \"contracts/SubdomainRegistrar.sol\":1452:1492  nameWrapper = INameWrapper(_nameWrapper) */\n  0x0100\n  exp\n  dup2\n  sload\n  dup2\n  0xffffffffffffffffffffffffffffffffffffffff\n  mul\n  not\n  and\n  swap1\n  dup4\n  0xffffffffffffffffffffffffffffffffffffffff\n  and\n  mul\n  or\n  swap1\n  sstore\n  pop\n    /* \"contracts/SubdomainRegistrar.sol\":1531:1544  _ensRegistrar */\n  dup5\n    /* \"contracts/SubdomainRegistrar.sol\":1502:1514  ensRegistrar */\n  0x01\n  0x00\n    /* \"contracts/SubdomainRegistrar.sol\":1502:1545  ensRegistrar = IENSRegistrar(_ensRegistrar) */\n  0x0100\n  exp\n  dup2\n  sload\n  dup2\n  0xffffffffffffffffffffffffffffffffffffffff\n  mul\n  not\n  and\n  swap1\n  dup4\n  0xffffffffffffffffffffffffffffffffffffffff\n  and\n  mul\n  or\n  swap1\n  sstore\n  pop\n    /* \"contracts/SubdomainRegistrar.sol\":1566:1575  _resolver */\n  dup4\n    /* \"contracts/SubdomainRegistrar.sol\":1555:1563  resolver */\n  0x02\n  0x00\n    /* \"contracts/SubdomainRegistrar.sol\":1555:1575  resolver = _resolver */\n  0x0100\n  exp\n  dup2\n  sload\n  dup2\n  0xffffffffffffffffffffffffffffffffffffffff\n  mul\n  not\n  and\n  swap1\n  dup4\n  0xffffffffffffffffffffffffffffffffffffffff\n  and\n  mul\n  or\n  swap1\n  sstore\n  pop\n    /* \"contracts/SubdomainRegistrar.sol\":1598:1609  _parentNode */\n  dup3\n    /* \"contracts/SubdomainRegistrar.sol\":1585:1595  parentNode */\n  0x06\n    /* \"contracts/SubdomainRegistrar.sol\":1585:1609  parentNode = _parentNode */\n  dup2\n  swap1\n  sstore\n  pop\n    /* \"contracts/SubdomainRegistrar.sol\":1637:1653  _registrationFee */\n  dup2\n    /* \"contracts/SubdomainRegistrar.sol\":1619:1634  registrationFee */\n  0x03\n    /* \"contracts/SubdomainRegistrar.sol\":1619:1653  registrationFee = _registrationFee */\n  dup2\n  swap1\n  sstore\n  pop\n    /* \"contracts/SubdomainRegistrar.sol\":1678:1691  _feeRecipient */\n  dup1\n    /* \"contracts/SubdomainRegistrar.sol\":1663:1675  feeRecipient */\n  0x04\n  0x00\n    /* \"contracts/SubdomainRegistrar.sol\":1663:1691  feeRecipient = _feeRecipient */\n  0x0100\n  exp\n  dup2\n  sload\n  dup2\n  0xffffffffffffffffffffffffffffffffffffffff\n  mul\n  not\n  and\n  swap1\n  dup4\n  0xffffffffffffffffffffffffffffffffffffffff\n  and\n  mul\n  or\n  swap1\n  sstore\n  pop\n    /* \"contracts/SubdomainRegistrar.sol\":1709:1719  msg.sender */\n  caller\n    /* \"contracts/SubdomainRegistrar.sol\":1701:1706  owner */\n  0x05\n  0x00\n    /* \"contracts/SubdomainRegistrar.sol\":1701:1719  owner = msg.sender */\n  0x0100\n  exp\n  dup2\n  sload\n  dup2\n  0xffffffffffffffffffffffffffffffffffffffff\n  mul\n  not\n  and\n  swap1\n  dup4\n  0xffffffffffffffffffffffffffffffffffffffff\n  and\n  mul\n  or\n  swap1\n  sstore\n  pop\n    /* \"contracts/SubdomainRegistrar.sol\":1234:1726  constructor(... */\n  pop\n  pop\n  pop\n  pop\n  pop\n  pop\n    /* \"contracts/SubdomainRegistrar.sol\":795:3008  contract SubdomainRegistrar {... */\n  jump(tag_5)\n    /* \"#utility.yul\":88:205   */\ntag_7:\n    /* \"#utility.yul\":197:198   */\n  0x00\n    /* \"#utility.yul\":194:195   */\n  dup1\n    /* \"#utility.yul\":187:199   */\n  revert\n    /* \"#utility.yul\":334:460   */\ntag_9:\n    /* \"#utility.yul\":371:378   */\n  0x00\n    /* \"#utility.yul\":411:453   */\n  0xffffffffffffffffffffffffffffffffffffffff\n    /* \"#utility.yul\":404:409   */\n  dup3\n    /* \"#utility.yul\":400:454   */\n  and\n    /* \"#utility.yul\":389:454   */\n  swap1\n  pop\n    /* \"#utility.yul\":334:460   */\n  swap2\n  swap1\n  pop\n  jump\t// out\n    /* \"#utility.yul\":466:562   */\ntag_10:\n    /* \"#utility.yul\":503:510   */\n  0x00\n    /* \"#utility.yul\":532:556   */\n  tag_25\n    /* \"#utility.yul\":550:555   */\n  dup3\n    /* \"#utility.yul\":532:556   */\n  tag_9\n  jump\t// in\ntag_25:\n    /* \"#utility.yul\":521:556   */\n  swap1\n  pop\n    /* \"#utility.yul\":466:562   */\n  swap2\n  swap1\n  pop\n  jump\t// out\n    /* \"#utility.yul\":568:690   */\ntag_11:\n    /* \"#utility.yul\":641:665   */\n  tag_27\n    /* \"#utility.yul\":659:664   */\n  dup2\n    /* \"#utility.yul\":641:665   */\n  tag_10\n  jump\t// in\ntag_27:\n    /* \"#utility.yul\":634:639   */\n  dup2\n    /* \"#utility.yul\":631:666   */\n  eq\n    /* \"#utility.yul\":621:684   */\n  tag_28\n  jumpi\n    /* \"#utility.yul\":680:681   */\n  0x00\n    /* \"#utility.yul\":677:678   */\n  dup1\n    /* \"#utility.yul\":670:682   */\n  revert\n    /* \"#utility.yul\":621:684   */\ntag_28:\n    /* \"#utility.yul\":568:690   */\n  pop\n  jump\t// out\n    /* \"#utility.yul\":696:839   */\ntag_12:\n    /* \"#utility.yul\":753:758   */\n  0x00\n    /* \"#utility.yul\":784:790   */\n  dup2\n    /* \"#utility.yul\":778:791   */\n  mload\n    /* \"#utility.yul\":769:791   */\n  swap1\n  pop\n    /* \"#utility.yul\":800:833   */\n  tag_30\n    /* \"#utility.yul\":827:832   */\n  dup2\n    /* \"#utility.yul\":800:833   */\n  tag_11\n  jump\t// in\ntag_30:\n    /* \"#utility.yul\":696:839   */\n  swap3\n  swap2\n  pop\n  pop\n  jump\t// out\n    /* \"#utility.yul\":845:922   */\ntag_13:\n    /* \"#utility.yul\":882:889   */\n  0x00\n    /* \"#utility.yul\":911:916   */\n  dup2\n    /* \"#utility.yul\":900:916   */\n  swap1\n  pop\n    /* \"#utility.yul\":845:922   */\n  swap2\n  swap1\n  pop\n  jump\t// out\n    /* \"#utility.yul\":928:1050   */\ntag_14:\n    /* \"#utility.yul\":1001:1025   */\n  tag_33\n    /* \"#utility.yul\":1019:1024   */\n  dup2\n    /* \"#utility.yul\":1001:1025   */\n  tag_13\n  jump\t// in\ntag_33:\n    /* \"#utility.yul\":994:999   */\n  dup2\n    /* \"#utility.yul\":991:1026   */\n  eq\n    /* \"#utility.yul\":981:1044   */\n  tag_34\n  jumpi\n    /* \"#utility.yul\":1040:1041   */\n  0x00\n    /* \"#utility.yul\":1037:1038   */\n  dup1\n    /* \"#utility.yul\":1030:1042   */\n  revert\n    /* \"#utility.yul\":981:1044   */\ntag_34:\n    /* \"#utility.yul\":928:1050   */\n  pop\n  jump\t// out\n    /* \"#utility.yul\":1056:1199   */\ntag_15:\n    /* \"#utility.yul\":1113:1118   */\n  0x00\n    /* \"#utility.yul\":1144:1150   */\n  dup2\n    /* \"#utility.yul\":1138:1151   */\n  mload\n    /* \"#utility.yul\":1129:1151   */\n  swap1\n  pop\n    /* \"#utility.yul\":1160:1193   */\n  tag_36\n    /* \"#utility.yul\":1187:1192   */\n  dup2\n    /* \"#utility.yul\":1160:1193   */\n  tag_14\n  jump\t// in\ntag_36:\n    /* \"#utility.yul\":1056:1199   */\n  swap3\n  swap2\n  pop\n  pop\n  jump\t// out\n    /* \"#utility.yul\":1205:1282   */\ntag_16:\n    /* \"#utility.yul\":1242:1249   */\n  0x00\n    /* \"#utility.yul\":1271:1276   */\n  dup2\n    /* \"#utility.yul\":1260:1276   */\n  swap1\n  pop\n    /* \"#utility.yul\":1205:1282   */\n  swap2\n  swap1\n  pop\n  jump\t// out\n    /* \"#utility.yul\":1288:1410   */\ntag_17:\n    /* \"#utility.yul\":1361:1385   */\n  tag_39\n    /* \"#utility.yul\":1379:1384   */\n  dup2\n    /* \"#utility.yul\":1361:1385   */\n  tag_16\n  jump\t// in\ntag_39:\n    /* \"#utility.yul\":1354:1359   */\n  dup2\n    /* \"#utility.yul\":1351:1386   */\n  eq\n    /* \"#utility.yul\":1341:1404   */\n  tag_40\n  jumpi\n    /* \"#utility.yul\":1400:1401   */\n  0x00\n    /* \"#utility.yul\":1397:1398   */\n  dup1\n    /* \"#utility.yul\":1390:1402   */\n  revert\n    /* \"#utility.yul\":1341:1404   */\ntag_40:\n    /* \"#utility.yul\":1288:1410   */\n  pop\n  jump\t// out\n    /* \"#utility.yul\":1416:1559   */\ntag_18:\n    /* \"#utility.yul\":1473:1478   */\n  0x00\n    /* \"#utility.yul\":1504:1510   */\n  dup2\n    /* \"#utility.yul\":1498:1511   */\n  mload\n    /* \"#utility.yul\":1489:1511   */\n  swap1\n  pop\n    /* \"#utility.yul\":1520:1553   */\n  tag_42\n    /* \"#utility.yul\":1547:1552   */\n  dup2\n    /* \"#utility.yul\":1520:1553   */\n  tag_17\n  jump\t// in\ntag_42:\n    /* \"#utility.yul\":1416:1559   */\n  swap3\n  swap2\n  pop\n  pop\n  jump\t// out\n    /* \"#utility.yul\":1565:2699   */\ntag_2:\n    /* \"#utility.yul\":1680:1686   */\n  0x00\n    /* \"#utility.yul\":1688:1694   */\n  dup1\n    /* \"#utility.yul\":1696:1702   */\n  0x00\n    /* \"#utility.yul\":1704:1710   */\n  dup1\n    /* \"#utility.yul\":1712:1718   */\n  0x00\n    /* \"#utility.yul\":1720:1726   */\n  dup1\n    /* \"#utility.yul\":1769:1772   */\n  0xc0\n    /* \"#utility.yul\":1757:1766   */\n  dup8\n    /* \"#utility.yul\":1748:1755   */\n  dup10\n    /* \"#utility.yul\":1744:1767   */\n  sub\n    /* \"#utility.yul\":1740:1773   */\n  slt\n    /* \"#utility.yul\":1737:1857   */\n  iszero\n  tag_44\n  jumpi\n    /* \"#utility.yul\":1776:1855   */\n  tag_45\n  tag_7\n  jump\t// in\ntag_45:\n    /* \"#utility.yul\":1737:1857   */\ntag_44:\n    /* \"#utility.yul\":1896:1897   */\n  0x00\n    /* \"#utility.yul\":1921:1985   */\n  tag_46\n    /* \"#utility.yul\":1977:1984   */\n  dup10\n    /* \"#utility.yul\":1968:1974   */\n  dup3\n    /* \"#utility.yul\":1957:1966   */\n  dup11\n    /* \"#utility.yul\":1953:1975   */\n  add\n    /* \"#utility.yul\":1921:1985   */\n  tag_12\n  jump\t// in\ntag_46:\n    /* \"#utility.yul\":1911:1985   */\n  swap7\n  pop\n    /* \"#utility.yul\":1867:1995   */\n  pop\n    /* \"#utility.yul\":2034:2036   */\n  0x20\n    /* \"#utility.yul\":2060:2124   */\n  tag_47\n    /* \"#utility.yul\":2116:2123   */\n  dup10\n    /* \"#utility.yul\":2107:2113   */\n  dup3\n    /* \"#utility.yul\":2096:2105   */\n  dup11\n    /* \"#utility.yul\":2092:2114   */\n  add\n    /* \"#utility.yul\":2060:2124   */\n  tag_12\n  jump\t// in\ntag_47:\n    /* \"#utility.yul\":2050:2124   */\n  swap6\n  pop\n    /* \"#utility.yul\":2005:2134   */\n  pop\n    /* \"#utility.yul\":2173:2175   */\n  0x40\n    /* \"#utility.yul\":2199:2263   */\n  tag_48\n    /* \"#utility.yul\":2255:2262   */\n  dup10\n    /* \"#utility.yul\":2246:2252   */\n  dup3\n    /* \"#utility.yul\":2235:2244   */\n  dup11\n    /* \"#utility.yul\":2231:2253   */\n  add\n    /* \"#utility.yul\":2199:2263   */\n  tag_12\n  jump\t// in\ntag_48:\n    /* \"#utility.yul\":2189:2263   */\n  swap5\n  pop\n    /* \"#utility.yul\":2144:2273   */\n  pop\n    /* \"#utility.yul\":2312:2314   */\n  0x60\n    /* \"#utility.yul\":2338:2402   */\n  tag_49\n    /* \"#utility.yul\":2394:2401   */\n  dup10\n    /* \"#utility.yul\":2385:2391   */\n  dup3\n    /* \"#utility.yul\":2374:2383   */\n  dup11\n    /* \"#utility.yul\":2370:2392   */\n  add\n    /* \"#utility.yul\":2338:2402   */\n  tag_15\n  jump\t// in\ntag_49:\n    /* \"#utility.yul\":2328:2402   */\n  swap4\n  pop\n    /* \"#utility.yul\":2283:2412   */\n  pop\n    /* \"#utility.yul\":2451:2454   */\n  0x80\n    /* \"#utility.yul\":2478:2542   */\n  tag_50\n    /* \"#utility.yul\":2534:2541   */\n  dup10\n    /* \"#utility.yul\":2525:2531   */\n  dup3\n    /* \"#utility.yul\":2514:2523   */\n  dup11\n    /* \"#utility.yul\":2510:2532   */\n  add\n    /* \"#utility.yul\":2478:2542   */\n  tag_18\n  jump\t// in\ntag_50:\n    /* \"#utility.yul\":2468:2542   */\n  swap3\n  pop\n    /* \"#utility.yul\":2422:2552   */\n  pop\n    /* \"#utility.yul\":2591:2594   */\n  0xa0\n    /* \"#utility.yul\":2618:2682   */\n  tag_51\n    /* \"#utility.yul\":2674:2681   */\n  dup10\n    /* \"#utility.yul\":2665:2671   */\n  dup3\n    /* \"#utility.yul\":2654:2663   */\n  dup11\n    /* \"#utility.yul\":2650:2672   */\n  add\n    /* \"#utility.yul\":2618:2682   */\n  tag_12\n  jump\t// in\ntag_51:\n    /* \"#utility.yul\":2608:2682   */\n  swap2\n  pop\n    /* \"#utility.yul\":2562:2692   */\n  pop\n    /* \"#utility.yul\":1565:2699   */\n  swap3\n  swap6\n  pop\n  swap3\n  swap6\n  pop\n  swap3\n  swap6\n  jump\t// out\n    /* \"contracts/SubdomainRegistrar.sol\":795:3008  contract SubdomainRegistrar {... */\ntag_5:\n  dataSize(sub_0)\n  dup1\n  dataOffset(sub_0)\n  0x00\n  codecopy\n  0x00\n  return\nstop\n\nsub_0: assembly {\n        /* \"contracts/SubdomainRegistrar.sol\":795:3008  contract SubdomainRegistrar {... */\n      mstore(0x40, 0x80)\n      jumpi(tag_1, lt(calldatasize, 0x04))\n      shr(0xe0, calldataload(0x00))\n      dup1\n      0xab2397eb\n      gt\n      tag_12\n      jumpi\n      dup1\n      0xab2397eb\n      eq\n      tag_7\n      jumpi\n      dup1\n      0xc2c589f0\n      eq\n      tag_8\n      jumpi\n      dup1\n      0xc320c727\n      eq\n      tag_9\n      jumpi\n      dup1\n      0xe74b981b\n      eq\n      tag_10\n      jumpi\n      dup1\n      0xf2c298be\n      eq\n      tag_11\n      jumpi\n      jump(tag_1)\n    tag_12:\n      dup1\n      0x04f3bcec\n      eq\n      tag_2\n      jumpi\n      dup1\n      0x14c44e09\n      eq\n      tag_3\n      jumpi\n      dup1\n      0x46904840\n      eq\n      tag_4\n      jumpi\n      dup1\n      0x7bf8f27a\n      eq\n      tag_5\n      jumpi\n      dup1\n      0xa8e5fbc0\n      eq\n      tag_6\n      jumpi\n    tag_1:\n      0x00\n      dup1\n      revert\n        /* \"contracts/SubdomainRegistrar.sol\":905:928  address public resolver */\n    tag_2:\n      callvalue\n      dup1\n      iszero\n      tag_13\n      jumpi\n      0x00\n      dup1\n      revert\n    tag_13:\n      pop\n      tag_14\n      tag_15\n      jump\t// in\n    tag_14:\n      mload(0x40)\n      tag_16\n      swap2\n      swap1\n      tag_17\n      jump\t// in\n    tag_16:\n      mload(0x40)\n      dup1\n      swap2\n      sub\n      swap1\n      return\n        /* \"contracts/SubdomainRegistrar.sol\":935:965  uint256 public registrationFee */\n    tag_3:\n      callvalue\n      dup1\n      iszero\n      tag_18\n      jumpi\n      0x00\n      dup1\n      revert\n    tag_18:\n      pop\n      tag_19\n      tag_20\n      jump\t// in\n    tag_19:\n      mload(0x40)\n      tag_21\n      swap2\n      swap1\n      tag_22\n      jump\t// in\n    tag_21:\n      mload(0x40)\n      dup1\n      swap2\n      sub\n      swap1\n      return\n        /* \"contracts/SubdomainRegistrar.sol\":971:998  address public feeRecipient */\n    tag_4:\n      callvalue\n      dup1\n      iszero\n      tag_23\n      jumpi\n      0x00\n      dup1\n      revert\n    tag_23:\n      pop\n      tag_24\n      tag_25\n      jump\t// in\n    tag_24:\n      mload(0x40)\n      tag_26\n      swap2\n      swap1\n      tag_17\n      jump\t// in\n    tag_26:\n      mload(0x40)\n      dup1\n      swap2\n      sub\n      swap1\n      return\n        /* \"contracts/SubdomainRegistrar.sol\":2689:2806  function wrapDomain() external onlyOwner {... */\n    tag_5:\n      callvalue\n      dup1\n      iszero\n      tag_27\n      jumpi\n      0x00\n      dup1\n      revert\n    tag_27:\n      pop\n      tag_28\n      tag_29\n      jump\t// in\n    tag_28:\n      stop\n        /* \"contracts/SubdomainRegistrar.sol\":829:860  INameWrapper public nameWrapper */\n    tag_6:\n      callvalue\n      dup1\n      iszero\n      tag_30\n      jumpi\n      0x00\n      dup1\n      revert\n    tag_30:\n      pop\n      tag_31\n      tag_32\n      jump\t// in\n    tag_31:\n      mload(0x40)\n      tag_33\n      swap2\n      swap1\n      tag_34\n      jump\t// in\n    tag_33:\n      mload(0x40)\n      dup1\n      swap2\n      sub\n      swap1\n      return\n        /* \"contracts/SubdomainRegistrar.sol\":2877:3006  function approveWrapperForDomain() external onlyOwner {... */\n    tag_7:\n      callvalue\n      dup1\n      iszero\n      tag_35\n      jumpi\n      0x00\n      dup1\n      revert\n    tag_35:\n      pop\n      tag_36\n      tag_37\n      jump\t// in\n    tag_36:\n      stop\n        /* \"contracts/SubdomainRegistrar.sol\":866:899  IENSRegistrar public ensRegistrar */\n    tag_8:\n      callvalue\n      dup1\n      iszero\n      tag_38\n      jumpi\n      0x00\n      dup1\n      revert\n    tag_38:\n      pop\n      tag_39\n      tag_40\n      jump\t// in\n    tag_39:\n      mload(0x40)\n      tag_41\n      swap2\n      swap1\n      tag_42\n      jump\t// in\n    tag_41:\n      mload(0x40)\n      dup1\n      swap2\n      sub\n      swap1\n      return\n        /* \"contracts/SubdomainRegistrar.sol\":2401:2525  function setRegistrationFee(uint256 _registrationFee) external onlyOwner {... */\n    tag_9:\n      callvalue\n      dup1\n      iszero\n      tag_43\n      jumpi\n      0x00\n      dup1\n      revert\n    tag_43:\n      pop\n      tag_44\n      0x04\n      dup1\n      calldatasize\n      sub\n      dup2\n      add\n      swap1\n      tag_45\n      swap2\n      swap1\n      tag_46\n      jump\t// in\n    tag_45:\n      tag_47\n      jump\t// in\n    tag_44:\n      stop\n        /* \"contracts/SubdomainRegistrar.sol\":2531:2643  function setFeeRecipient(address _feeRecipient) external onlyOwner {... */\n    tag_10:\n      callvalue\n      dup1\n      iszero\n      tag_48\n      jumpi\n      0x00\n      dup1\n      revert\n    tag_48:\n      pop\n      tag_49\n      0x04\n      dup1\n      calldatasize\n      sub\n      dup2\n      add\n      swap1\n      tag_50\n      swap2\n      swap1\n      tag_51\n      jump\t// in\n    tag_50:\n      tag_52\n      jump\t// in\n    tag_49:\n      stop\n        /* \"contracts/SubdomainRegistrar.sol\":1828:2395  function register(string calldata label) external payable {... */\n    tag_11:\n      tag_53\n      0x04\n      dup1\n      calldatasize\n      sub\n      dup2\n      add\n      swap1\n      tag_54\n      swap2\n      swap1\n      tag_55\n      jump\t// in\n    tag_54:\n      tag_56\n      jump\t// in\n    tag_53:\n      stop\n        /* \"contracts/SubdomainRegistrar.sol\":905:928  address public resolver */\n    tag_15:\n      0x02\n      0x00\n      swap1\n      sload\n      swap1\n      0x0100\n      exp\n      swap1\n      div\n      0xffffffffffffffffffffffffffffffffffffffff\n      and\n      dup2\n      jump\t// out\n        /* \"contracts/SubdomainRegistrar.sol\":935:965  uint256 public registrationFee */\n    tag_20:\n      sload(0x03)\n      dup2\n      jump\t// out\n        /* \"contracts/SubdomainRegistrar.sol\":971:998  address public feeRecipient */\n    tag_25:\n      0x04\n      0x00\n      swap1\n      sload\n      swap1\n      0x0100\n      exp\n      swap1\n      div\n      0xffffffffffffffffffffffffffffffffffffffff\n      and\n      dup2\n      jump\t// out\n        /* \"contracts/SubdomainRegistrar.sol\":2689:2806  function wrapDomain() external onlyOwner {... */\n    tag_29:\n        /* \"contracts/SubdomainRegistrar.sol\":1785:1790  owner */\n      0x05\n      0x00\n      swap1\n      sload\n      swap1\n      0x0100\n      exp\n      swap1\n      div\n      0xffffffffffffffffffffffffffffffffffffffff\n      and\n        /* \"contracts/SubdomainRegistrar.sol\":1771:1790  msg.sender == owner */\n      0xffffffffffffffffffffffffffffffffffffffff\n      and\n        /* \"contracts/SubdomainRegistrar.sol\":1771:1781  msg.sender */\n      caller\n        /* \"contracts/SubdomainRegistrar.sol\":1771:1790  msg.sender == owner */\n      0xffffffffffffffffffffffffffffffffffffffff\n      and\n      eq\n        /* \"contracts/SubdomainRegistrar.sol\":1763:1804  require(msg.sender == owner, \"Not owner\") */\n      tag_58\n      jumpi\n      mload(0x40)\n      0x08c379a000000000000000000000000000000000000000000000000000000000\n      dup2\n      mstore\n      0x04\n      add\n      tag_59\n      swap1\n      tag_60\n      jump\t// in\n    tag_59:\n      mload(0x40)\n      dup1\n      swap2\n      sub\n      swap1\n      revert\n    tag_58:\n        /* \"contracts/SubdomainRegistrar.sol\":2740:2751  nameWrapper */\n      0x00\n      dup1\n      sload\n      swap1\n      0x0100\n      exp\n      swap1\n      div\n      0xffffffffffffffffffffffffffffffffffffffff\n      and\n        /* \"contracts/SubdomainRegistrar.sol\":2740:2762  nameWrapper.wrapETH2LD */\n      0xffffffffffffffffffffffffffffffffffffffff\n      and\n      0x8cf8b41e\n        /* \"contracts/SubdomainRegistrar.sol\":2780:2784  this */\n      address\n        /* \"contracts/SubdomainRegistrar.sol\":2787:2788  0 */\n      0x00\n        /* \"contracts/SubdomainRegistrar.sol\":2790:2798  resolver */\n      0x02\n      0x00\n      swap1\n      sload\n      swap1\n      0x0100\n      exp\n      swap1\n      div\n      0xffffffffffffffffffffffffffffffffffffffff\n      and\n        /* \"contracts/SubdomainRegistrar.sol\":2740:2799  nameWrapper.wrapETH2LD(\"talha\", address(this), 0, resolver) */\n      mload(0x40)\n      dup5\n      0xffffffff\n      and\n      0xe0\n      shl\n      dup2\n      mstore\n      0x04\n      add\n      tag_62\n      swap4\n      swap3\n      swap2\n      swap1\n      tag_63\n      jump\t// in\n    tag_62:\n      0x00\n      mload(0x40)\n      dup1\n      dup4\n      sub\n      dup2\n      0x00\n      dup8\n      dup1\n      extcodesize\n      iszero\n      dup1\n      iszero\n      tag_64\n      jumpi\n      0x00\n      dup1\n      revert\n    tag_64:\n      pop\n      gas\n      call\n      iszero\n      dup1\n      iszero\n      tag_66\n      jumpi\n      returndatasize\n      0x00\n      dup1\n      returndatacopy\n      revert(0x00, returndatasize)\n    tag_66:\n      pop\n      pop\n      pop\n      pop\n        /* \"contracts/SubdomainRegistrar.sol\":2689:2806  function wrapDomain() external onlyOwner {... */\n      jump\t// out\n        /* \"contracts/SubdomainRegistrar.sol\":829:860  INameWrapper public nameWrapper */\n    tag_32:\n      0x00\n      dup1\n      sload\n      swap1\n      0x0100\n      exp\n      swap1\n      div\n      0xffffffffffffffffffffffffffffffffffffffff\n      and\n      dup2\n      jump\t// out\n        /* \"contracts/SubdomainRegistrar.sol\":2877:3006  function approveWrapperForDomain() external onlyOwner {... */\n    tag_37:\n        /* \"contracts/SubdomainRegistrar.sol\":1785:1790  owner */\n      0x05\n      0x00\n      swap1\n      sload\n      swap1\n      0x0100\n      exp\n      swap1\n      div\n      0xffffffffffffffffffffffffffffffffffffffff\n      and\n        /* \"contracts/SubdomainRegistrar.sol\":1771:1790  msg.sender == owner */\n      0xffffffffffffffffffffffffffffffffffffffff\n      and\n        /* \"contracts/SubdomainRegistrar.sol\":1771:1781  msg.sender */\n      caller\n        /* \"contracts/SubdomainRegistrar.sol\":1771:1790  msg.sender == owner */\n      0xffffffffffffffffffffffffffffffffffffffff\n      and\n      eq\n        /* \"contracts/SubdomainRegistrar.sol\":1763:1804  require(msg.sender == owner, \"Not owner\") */\n      tag_68\n      jumpi\n      mload(0x40)\n      0x08c379a000000000000000000000000000000000000000000000000000000000\n      dup2\n      mstore\n      0x04\n      add\n      tag_69\n      swap1\n      tag_60\n      jump\t// in\n    tag_69:\n      mload(0x40)\n      dup1\n      swap2\n      sub\n      swap1\n      revert\n    tag_68:\n        /* \"contracts/SubdomainRegistrar.sol\":2941:2953  ensRegistrar */\n      0x01\n      0x00\n      swap1\n      sload\n      swap1\n      0x0100\n      exp\n      swap1\n      div\n      0xffffffffffffffffffffffffffffffffffffffff\n      and\n        /* \"contracts/SubdomainRegistrar.sol\":2941:2971  ensRegistrar.setApprovalForAll */\n      0xffffffffffffffffffffffffffffffffffffffff\n      and\n      0xa22cb465\n        /* \"contracts/SubdomainRegistrar.sol\":2980:2991  nameWrapper */\n      0x00\n      dup1\n      sload\n      swap1\n      0x0100\n      exp\n      swap1\n      div\n      0xffffffffffffffffffffffffffffffffffffffff\n      and\n        /* \"contracts/SubdomainRegistrar.sol\":2994:2998  true */\n      0x01\n        /* \"contracts/SubdomainRegistrar.sol\":2941:2999  ensRegistrar.setApprovalForAll(address(nameWrapper), true) */\n      mload(0x40)\n      dup4\n      0xffffffff\n      and\n      0xe0\n      shl\n      dup2\n      mstore\n      0x04\n      add\n      tag_71\n      swap3\n      swap2\n      swap1\n      tag_72\n      jump\t// in\n    tag_71:\n      0x00\n      mload(0x40)\n      dup1\n      dup4\n      sub\n      dup2\n      0x00\n      dup8\n      dup1\n      extcodesize\n      iszero\n      dup1\n      iszero\n      tag_73\n      jumpi\n      0x00\n      dup1\n      revert\n    tag_73:\n      pop\n      gas\n      call\n      iszero\n      dup1\n      iszero\n      tag_75\n      jumpi\n      returndatasize\n      0x00\n      dup1\n      returndatacopy\n      revert(0x00, returndatasize)\n    tag_75:\n      pop\n      pop\n      pop\n      pop\n        /* \"contracts/SubdomainRegistrar.sol\":2877:3006  function approveWrapperForDomain() external onlyOwner {... */\n      jump\t// out\n        /* \"contracts/SubdomainRegistrar.sol\":866:899  IENSRegistrar public ensRegistrar */\n    tag_40:\n      0x01\n      0x00\n      swap1\n      sload\n      swap1\n      0x0100\n      exp\n      swap1\n      div\n      0xffffffffffffffffffffffffffffffffffffffff\n      and\n      dup2\n      jump\t// out\n        /* \"contracts/SubdomainRegistrar.sol\":2401:2525  function setRegistrationFee(uint256 _registrationFee) external onlyOwner {... */\n    tag_47:\n        /* \"contracts/SubdomainRegistrar.sol\":1785:1790  owner */\n      0x05\n      0x00\n      swap1\n      sload\n      swap1\n      0x0100\n      exp\n      swap1\n      div\n      0xffffffffffffffffffffffffffffffffffffffff\n      and\n        /* \"contracts/SubdomainRegistrar.sol\":1771:1790  msg.sender == owner */\n      0xffffffffffffffffffffffffffffffffffffffff\n      and\n        /* \"contracts/SubdomainRegistrar.sol\":1771:1781  msg.sender */\n      caller\n        /* \"contracts/SubdomainRegistrar.sol\":1771:1790  msg.sender == owner */\n      0xffffffffffffffffffffffffffffffffffffffff\n      and\n      eq\n        /* \"contracts/SubdomainRegistrar.sol\":1763:1804  require(msg.sender == owner, \"Not owner\") */\n      tag_77\n      jumpi\n      mload(0x40)\n      0x08c379a000000000000000000000000000000000000000000000000000000000\n      dup2\n      mstore\n      0x04\n      add\n      tag_78\n      swap1\n      tag_60\n      jump\t// in\n    tag_78:\n      mload(0x40)\n      dup1\n      swap2\n      sub\n      swap1\n      revert\n    tag_77:\n        /* \"contracts/SubdomainRegistrar.sol\":2502:2518  _registrationFee */\n      dup1\n        /* \"contracts/SubdomainRegistrar.sol\":2484:2499  registrationFee */\n      0x03\n        /* \"contracts/SubdomainRegistrar.sol\":2484:2518  registrationFee = _registrationFee */\n      dup2\n      swap1\n      sstore\n      pop\n        /* \"contracts/SubdomainRegistrar.sol\":2401:2525  function setRegistrationFee(uint256 _registrationFee) external onlyOwner {... */\n      pop\n      jump\t// out\n        /* \"contracts/SubdomainRegistrar.sol\":2531:2643  function setFeeRecipient(address _feeRecipient) external onlyOwner {... */\n    tag_52:\n        /* \"contracts/SubdomainRegistrar.sol\":1785:1790  owner */\n      0x05\n      0x00\n      swap1\n      sload\n      swap1\n      0x0100\n      exp\n      swap1\n      div\n      0xffffffffffffffffffffffffffffffffffffffff\n      and\n        /* \"contracts/SubdomainRegistrar.sol\":1771:1790  msg.sender == owner */\n      0xffffffffffffffffffffffffffffffffffffffff\n      and\n        /* \"contracts/SubdomainRegistrar.sol\":1771:1781  msg.sender */\n      caller\n        /* \"contracts/SubdomainRegistrar.sol\":1771:1790  msg.sender == owner */\n      0xffffffffffffffffffffffffffffffffffffffff\n      and\n      eq\n        /* \"contracts/SubdomainRegistrar.sol\":1763:1804  require(msg.sender == owner, \"Not owner\") */\n      tag_81\n      jumpi\n      mload(0x40)\n      0x08c379a000000000000000000000000000000000000000000000000000000000\n      dup2\n      mstore\n      0x04\n      add\n      tag_82\n      swap1\n      tag_60\n      jump\t// in\n    tag_82:\n      mload(0x40)\n      dup1\n      swap2\n      sub\n      swap1\n      revert\n    tag_81:\n        /* \"contracts/SubdomainRegistrar.sol\":2623:2636  _feeRecipient */\n      dup1\n        /* \"contracts/SubdomainRegistrar.sol\":2608:2620  feeRecipient */\n      0x04\n      0x00\n        /* \"contracts/SubdomainRegistrar.sol\":2608:2636  feeRecipient = _feeRecipient */\n      0x0100\n      exp\n      dup2\n      sload\n      dup2\n      0xffffffffffffffffffffffffffffffffffffffff\n      mul\n      not\n      and\n      swap1\n      dup4\n      0xffffffffffffffffffffffffffffffffffffffff\n      and\n      mul\n      or\n      swap1\n      sstore\n      pop\n        /* \"contracts/SubdomainRegistrar.sol\":2531:2643  function setFeeRecipient(address _feeRecipient) external onlyOwner {... */\n      pop\n      jump\t// out\n        /* \"contracts/SubdomainRegistrar.sol\":1828:2395  function register(string calldata label) external payable {... */\n    tag_56:\n        /* \"contracts/SubdomainRegistrar.sol\":1901:1946  LogPaymentDetails(msg.value, registrationFee) */\n      0x6709f8c20cab685a0bc846fd193679b20dc9a5d814dfabfef5c66ce0564f5460\n        /* \"contracts/SubdomainRegistrar.sol\":1919:1928  msg.value */\n      callvalue\n        /* \"contracts/SubdomainRegistrar.sol\":1930:1945  registrationFee */\n      sload(0x03)\n        /* \"contracts/SubdomainRegistrar.sol\":1901:1946  LogPaymentDetails(msg.value, registrationFee) */\n      mload(0x40)\n      tag_85\n      swap3\n      swap2\n      swap1\n      tag_86\n      jump\t// in\n    tag_85:\n      mload(0x40)\n      dup1\n      swap2\n      sub\n      swap1\n      log1\n        /* \"contracts/SubdomainRegistrar.sol\":1977:1992  registrationFee */\n      sload(0x03)\n        /* \"contracts/SubdomainRegistrar.sol\":1964:1973  msg.value */\n      callvalue\n        /* \"contracts/SubdomainRegistrar.sol\":1964:1992  msg.value >= registrationFee */\n      lt\n      iszero\n        /* \"contracts/SubdomainRegistrar.sol\":1956:2026  require(msg.value >= registrationFee, \"Insufficient registration fee\") */\n      tag_87\n      jumpi\n      mload(0x40)\n      0x08c379a000000000000000000000000000000000000000000000000000000000\n      dup2\n      mstore\n      0x04\n      add\n      tag_88\n      swap1\n      tag_89\n      jump\t// in\n    tag_88:\n      mload(0x40)\n      dup1\n      swap2\n      sub\n      swap1\n      revert\n    tag_87:\n        /* \"contracts/SubdomainRegistrar.sol\":2059:2060  0 */\n      0x00\n        /* \"contracts/SubdomainRegistrar.sol\":2041:2056  registrationFee */\n      sload(0x03)\n        /* \"contracts/SubdomainRegistrar.sol\":2041:2060  registrationFee > 0 */\n      gt\n        /* \"contracts/SubdomainRegistrar.sol\":2037:2134  if (registrationFee > 0) {... */\n      iszero\n      tag_90\n      jumpi\n        /* \"contracts/SubdomainRegistrar.sol\":2084:2096  feeRecipient */\n      0x04\n      0x00\n      swap1\n      sload\n      swap1\n      0x0100\n      exp\n      swap1\n      div\n      0xffffffffffffffffffffffffffffffffffffffff\n      and\n        /* \"contracts/SubdomainRegistrar.sol\":2076:2106  payable(feeRecipient).transfer */\n      0xffffffffffffffffffffffffffffffffffffffff\n      and\n        /* \"contracts/SubdomainRegistrar.sol\":2076:2123  payable(feeRecipient).transfer(registrationFee) */\n      0x08fc\n        /* \"contracts/SubdomainRegistrar.sol\":2107:2122  registrationFee */\n      sload(0x03)\n        /* \"contracts/SubdomainRegistrar.sol\":2076:2123  payable(feeRecipient).transfer(registrationFee) */\n      swap1\n      dup2\n      iszero\n      mul\n      swap1\n      mload(0x40)\n      0x00\n      mload(0x40)\n      dup1\n      dup4\n      sub\n      dup2\n      dup6\n      dup9\n      dup9\n      call\n      swap4\n      pop\n      pop\n      pop\n      pop\n      iszero\n      dup1\n      iszero\n      tag_92\n      jumpi\n      returndatasize\n      0x00\n      dup1\n      returndatacopy\n      revert(0x00, returndatasize)\n    tag_92:\n      pop\n        /* \"contracts/SubdomainRegistrar.sol\":2037:2134  if (registrationFee > 0) {... */\n    tag_90:\n        /* \"contracts/SubdomainRegistrar.sol\":2144:2156  uint32 fuses */\n      0x00\n        /* \"contracts/SubdomainRegistrar.sol\":2159:2165  327680 */\n      0x050000\n        /* \"contracts/SubdomainRegistrar.sol\":2144:2165  uint32 fuses = 327680 */\n      swap1\n      pop\n        /* \"contracts/SubdomainRegistrar.sol\":2175:2188  uint64 expiry */\n      0x00\n        /* \"contracts/SubdomainRegistrar.sol\":2216:2224  31536000 */\n      0x01e13380\n        /* \"contracts/SubdomainRegistrar.sol\":2198:2213  block.timestamp */\n      timestamp\n        /* \"contracts/SubdomainRegistrar.sol\":2198:2224  block.timestamp + 31536000 */\n      tag_93\n      swap2\n      swap1\n      tag_94\n      jump\t// in\n    tag_93:\n        /* \"contracts/SubdomainRegistrar.sol\":2175:2225  uint64 expiry = uint64(block.timestamp + 31536000) */\n      swap1\n      pop\n        /* \"contracts/SubdomainRegistrar.sol\":2236:2247  nameWrapper */\n      0x00\n      dup1\n      sload\n      swap1\n      0x0100\n      exp\n      swap1\n      div\n      0xffffffffffffffffffffffffffffffffffffffff\n      and\n        /* \"contracts/SubdomainRegistrar.sol\":2236:2264  nameWrapper.setSubnodeRecord */\n      0xffffffffffffffffffffffffffffffffffffffff\n      and\n      0x24c1af44\n        /* \"contracts/SubdomainRegistrar.sol\":2265:2275  parentNode */\n      sload(0x06)\n        /* \"contracts/SubdomainRegistrar.sol\":2277:2282  label */\n      dup7\n      dup7\n        /* \"contracts/SubdomainRegistrar.sol\":2284:2294  msg.sender */\n      caller\n        /* \"contracts/SubdomainRegistrar.sol\":2296:2304  resolver */\n      0x02\n      0x00\n      swap1\n      sload\n      swap1\n      0x0100\n      exp\n      swap1\n      div\n      0xffffffffffffffffffffffffffffffffffffffff\n      and\n        /* \"contracts/SubdomainRegistrar.sol\":2306:2307  0 */\n      0x00\n        /* \"contracts/SubdomainRegistrar.sol\":2309:2314  fuses */\n      dup10\n        /* \"contracts/SubdomainRegistrar.sol\":2316:2322  expiry */\n      dup10\n        /* \"contracts/SubdomainRegistrar.sol\":2236:2323  nameWrapper.setSubnodeRecord(parentNode, label, msg.sender, resolver, 0, fuses, expiry) */\n      mload(0x40)\n      dup10\n      0xffffffff\n      and\n      0xe0\n      shl\n      dup2\n      mstore\n      0x04\n      add\n      tag_95\n      swap9\n      swap8\n      swap7\n      swap6\n      swap5\n      swap4\n      swap3\n      swap2\n      swap1\n      tag_96\n      jump\t// in\n    tag_95:\n      0x00\n      mload(0x40)\n      dup1\n      dup4\n      sub\n      dup2\n      0x00\n      dup8\n      dup1\n      extcodesize\n      iszero\n      dup1\n      iszero\n      tag_97\n      jumpi\n      0x00\n      dup1\n      revert\n    tag_97:\n      pop\n      gas\n      call\n      iszero\n      dup1\n      iszero\n      tag_99\n      jumpi\n      returndatasize\n      0x00\n      dup1\n      returndatacopy\n      revert(0x00, returndatasize)\n    tag_99:\n      pop\n      pop\n      pop\n      pop\n        /* \"contracts/SubdomainRegistrar.sol\":2377:2387  msg.sender */\n      caller\n        /* \"contracts/SubdomainRegistrar.sol\":2338:2388  SubdomainRegistered(parentNode, label, msg.sender) */\n      0xffffffffffffffffffffffffffffffffffffffff\n      and\n        /* \"contracts/SubdomainRegistrar.sol\":2358:2368  parentNode */\n      sload(0x06)\n        /* \"contracts/SubdomainRegistrar.sol\":2338:2388  SubdomainRegistered(parentNode, label, msg.sender) */\n      0x38506b5a4c15fa3526645437424431e9107debed02363450779158fa3713be63\n        /* \"contracts/SubdomainRegistrar.sol\":2370:2375  label */\n      dup7\n      dup7\n        /* \"contracts/SubdomainRegistrar.sol\":2338:2388  SubdomainRegistered(parentNode, label, msg.sender) */\n      mload(0x40)\n      tag_100\n      swap3\n      swap2\n      swap1\n      tag_101\n      jump\t// in\n    tag_100:\n      mload(0x40)\n      dup1\n      swap2\n      sub\n      swap1\n      log3\n        /* \"contracts/SubdomainRegistrar.sol\":1886:2395  {... */\n      pop\n      pop\n        /* \"contracts/SubdomainRegistrar.sol\":1828:2395  function register(string calldata label) external payable {... */\n      pop\n      pop\n      jump\t// out\n        /* \"#utility.yul\":7:133   */\n    tag_102:\n        /* \"#utility.yul\":44:51   */\n      0x00\n        /* \"#utility.yul\":84:126   */\n      0xffffffffffffffffffffffffffffffffffffffff\n        /* \"#utility.yul\":77:82   */\n      dup3\n        /* \"#utility.yul\":73:127   */\n      and\n        /* \"#utility.yul\":62:127   */\n      swap1\n      pop\n        /* \"#utility.yul\":7:133   */\n      swap2\n      swap1\n      pop\n      jump\t// out\n        /* \"#utility.yul\":139:235   */\n    tag_103:\n        /* \"#utility.yul\":176:183   */\n      0x00\n        /* \"#utility.yul\":205:229   */\n      tag_153\n        /* \"#utility.yul\":223:228   */\n      dup3\n        /* \"#utility.yul\":205:229   */\n      tag_102\n      jump\t// in\n    tag_153:\n        /* \"#utility.yul\":194:229   */\n      swap1\n      pop\n        /* \"#utility.yul\":139:235   */\n      swap2\n      swap1\n      pop\n      jump\t// out\n        /* \"#utility.yul\":241:359   */\n    tag_104:\n        /* \"#utility.yul\":328:352   */\n      tag_155\n        /* \"#utility.yul\":346:351   */\n      dup2\n        /* \"#utility.yul\":328:352   */\n      tag_103\n      jump\t// in\n    tag_155:\n        /* \"#utility.yul\":323:326   */\n      dup3\n        /* \"#utility.yul\":316:353   */\n      mstore\n        /* \"#utility.yul\":241:359   */\n      pop\n      pop\n      jump\t// out\n        /* \"#utility.yul\":365:587   */\n    tag_17:\n        /* \"#utility.yul\":458:462   */\n      0x00\n        /* \"#utility.yul\":496:498   */\n      0x20\n        /* \"#utility.yul\":485:494   */\n      dup3\n        /* \"#utility.yul\":481:499   */\n      add\n        /* \"#utility.yul\":473:499   */\n      swap1\n      pop\n        /* \"#utility.yul\":509:580   */\n      tag_157\n        /* \"#utility.yul\":577:578   */\n      0x00\n        /* \"#utility.yul\":566:575   */\n      dup4\n        /* \"#utility.yul\":562:579   */\n      add\n        /* \"#utility.yul\":553:559   */\n      dup5\n        /* \"#utility.yul\":509:580   */\n      tag_104\n      jump\t// in\n    tag_157:\n        /* \"#utility.yul\":365:587   */\n      swap3\n      swap2\n      pop\n      pop\n      jump\t// out\n        /* \"#utility.yul\":593:670   */\n    tag_105:\n        /* \"#utility.yul\":630:637   */\n      0x00\n        /* \"#utility.yul\":659:664   */\n      dup2\n        /* \"#utility.yul\":648:664   */\n      swap1\n      pop\n        /* \"#utility.yul\":593:670   */\n      swap2\n      swap1\n      pop\n      jump\t// out\n        /* \"#utility.yul\":676:794   */\n    tag_106:\n        /* \"#utility.yul\":763:787   */\n      tag_160\n        /* \"#utility.yul\":781:786   */\n      dup2\n        /* \"#utility.yul\":763:787   */\n      tag_105\n      jump\t// in\n    tag_160:\n        /* \"#utility.yul\":758:761   */\n      dup3\n        /* \"#utility.yul\":751:788   */\n      mstore\n        /* \"#utility.yul\":676:794   */\n      pop\n      pop\n      jump\t// out\n        /* \"#utility.yul\":800:1022   */\n    tag_22:\n        /* \"#utility.yul\":893:897   */\n      0x00\n        /* \"#utility.yul\":931:933   */\n      0x20\n        /* \"#utility.yul\":920:929   */\n      dup3\n        /* \"#utility.yul\":916:934   */\n      add\n        /* \"#utility.yul\":908:934   */\n      swap1\n      pop\n        /* \"#utility.yul\":944:1015   */\n      tag_162\n        /* \"#utility.yul\":1012:1013   */\n      0x00\n        /* \"#utility.yul\":1001:1010   */\n      dup4\n        /* \"#utility.yul\":997:1014   */\n      add\n        /* \"#utility.yul\":988:994   */\n      dup5\n        /* \"#utility.yul\":944:1015   */\n      tag_106\n      jump\t// in\n    tag_162:\n        /* \"#utility.yul\":800:1022   */\n      swap3\n      swap2\n      pop\n      pop\n      jump\t// out\n        /* \"#utility.yul\":1028:1088   */\n    tag_107:\n        /* \"#utility.yul\":1056:1059   */\n      0x00\n        /* \"#utility.yul\":1077:1082   */\n      dup2\n        /* \"#utility.yul\":1070:1082   */\n      swap1\n      pop\n        /* \"#utility.yul\":1028:1088   */\n      swap2\n      swap1\n      pop\n      jump\t// out\n        /* \"#utility.yul\":1094:1236   */\n    tag_108:\n        /* \"#utility.yul\":1144:1153   */\n      0x00\n        /* \"#utility.yul\":1177:1230   */\n      tag_165\n        /* \"#utility.yul\":1195:1229   */\n      tag_166\n        /* \"#utility.yul\":1204:1228   */\n      tag_167\n        /* \"#utility.yul\":1222:1227   */\n      dup5\n        /* \"#utility.yul\":1204:1228   */\n      tag_102\n      jump\t// in\n    tag_167:\n        /* \"#utility.yul\":1195:1229   */\n      tag_107\n      jump\t// in\n    tag_166:\n        /* \"#utility.yul\":1177:1230   */\n      tag_102\n      jump\t// in\n    tag_165:\n        /* \"#utility.yul\":1164:1230   */\n      swap1\n      pop\n        /* \"#utility.yul\":1094:1236   */\n      swap2\n      swap1\n      pop\n      jump\t// out\n        /* \"#utility.yul\":1242:1368   */\n    tag_109:\n        /* \"#utility.yul\":1292:1301   */\n      0x00\n        /* \"#utility.yul\":1325:1362   */\n      tag_169\n        /* \"#utility.yul\":1356:1361   */\n      dup3\n        /* \"#utility.yul\":1325:1362   */\n      tag_108\n      jump\t// in\n    tag_169:\n        /* \"#utility.yul\":1312:1362   */\n      swap1\n      pop\n        /* \"#utility.yul\":1242:1368   */\n      swap2\n      swap1\n      pop\n      jump\t// out\n        /* \"#utility.yul\":1374:1519   */\n    tag_110:\n        /* \"#utility.yul\":1443:1452   */\n      0x00\n        /* \"#utility.yul\":1476:1513   */\n      tag_171\n        /* \"#utility.yul\":1507:1512   */\n      dup3\n        /* \"#utility.yul\":1476:1513   */\n      tag_109\n      jump\t// in\n    tag_171:\n        /* \"#utility.yul\":1463:1513   */\n      swap1\n      pop\n        /* \"#utility.yul\":1374:1519   */\n      swap2\n      swap1\n      pop\n      jump\t// out\n        /* \"#utility.yul\":1525:1694   */\n    tag_111:\n        /* \"#utility.yul\":1631:1687   */\n      tag_173\n        /* \"#utility.yul\":1681:1686   */\n      dup2\n        /* \"#utility.yul\":1631:1687   */\n      tag_110\n      jump\t// in\n    tag_173:\n        /* \"#utility.yul\":1626:1629   */\n      dup3\n        /* \"#utility.yul\":1619:1688   */\n      mstore\n        /* \"#utility.yul\":1525:1694   */\n      pop\n      pop\n      jump\t// out\n        /* \"#utility.yul\":1700:1960   */\n    tag_34:\n        /* \"#utility.yul\":1812:1816   */\n      0x00\n        /* \"#utility.yul\":1850:1852   */\n      0x20\n        /* \"#utility.yul\":1839:1848   */\n      dup3\n        /* \"#utility.yul\":1835:1853   */\n      add\n        /* \"#utility.yul\":1827:1853   */\n      swap1\n      pop\n        /* \"#utility.yul\":1863:1953   */\n      tag_175\n        /* \"#utility.yul\":1950:1951   */\n      0x00\n        /* \"#utility.yul\":1939:1948   */\n      dup4\n        /* \"#utility.yul\":1935:1952   */\n      add\n        /* \"#utility.yul\":1926:1932   */\n      dup5\n        /* \"#utility.yul\":1863:1953   */\n      tag_111\n      jump\t// in\n    tag_175:\n        /* \"#utility.yul\":1700:1960   */\n      swap3\n      swap2\n      pop\n      pop\n      jump\t// out\n        /* \"#utility.yul\":1966:2112   */\n    tag_112:\n        /* \"#utility.yul\":2036:2045   */\n      0x00\n        /* \"#utility.yul\":2069:2106   */\n      tag_177\n        /* \"#utility.yul\":2100:2105   */\n      dup3\n        /* \"#utility.yul\":2069:2106   */\n      tag_109\n      jump\t// in\n    tag_177:\n        /* \"#utility.yul\":2056:2106   */\n      swap1\n      pop\n        /* \"#utility.yul\":1966:2112   */\n      swap2\n      swap1\n      pop\n      jump\t// out\n        /* \"#utility.yul\":2118:2289   */\n    tag_113:\n        /* \"#utility.yul\":2225:2282   */\n      tag_179\n        /* \"#utility.yul\":2276:2281   */\n      dup2\n        /* \"#utility.yul\":2225:2282   */\n      tag_112\n      jump\t// in\n    tag_179:\n        /* \"#utility.yul\":2220:2223   */\n      dup3\n        /* \"#utility.yul\":2213:2283   */\n      mstore\n        /* \"#utility.yul\":2118:2289   */\n      pop\n      pop\n      jump\t// out\n        /* \"#utility.yul\":2295:2557   */\n    tag_42:\n        /* \"#utility.yul\":2408:2412   */\n      0x00\n        /* \"#utility.yul\":2446:2448   */\n      0x20\n        /* \"#utility.yul\":2435:2444   */\n      dup3\n        /* \"#utility.yul\":2431:2449   */\n      add\n        /* \"#utility.yul\":2423:2449   */\n      swap1\n      pop\n        /* \"#utility.yul\":2459:2550   */\n      tag_181\n        /* \"#utility.yul\":2547:2548   */\n      0x00\n        /* \"#utility.yul\":2536:2545   */\n      dup4\n        /* \"#utility.yul\":2532:2549   */\n      add\n        /* \"#utility.yul\":2523:2529   */\n      dup5\n        /* \"#utility.yul\":2459:2550   */\n      tag_113\n      jump\t// in\n    tag_181:\n        /* \"#utility.yul\":2295:2557   */\n      swap3\n      swap2\n      pop\n      pop\n      jump\t// out\n        /* \"#utility.yul\":2644:2761   */\n    tag_115:\n        /* \"#utility.yul\":2753:2754   */\n      0x00\n        /* \"#utility.yul\":2750:2751   */\n      dup1\n        /* \"#utility.yul\":2743:2755   */\n      revert\n        /* \"#utility.yul\":2767:2884   */\n    tag_116:\n        /* \"#utility.yul\":2876:2877   */\n      0x00\n        /* \"#utility.yul\":2873:2874   */\n      dup1\n        /* \"#utility.yul\":2866:2878   */\n      revert\n        /* \"#utility.yul\":2890:3012   */\n    tag_117:\n        /* \"#utility.yul\":2963:2987   */\n      tag_186\n        /* \"#utility.yul\":2981:2986   */\n      dup2\n        /* \"#utility.yul\":2963:2987   */\n      tag_105\n      jump\t// in\n    tag_186:\n        /* \"#utility.yul\":2956:2961   */\n      dup2\n        /* \"#utility.yul\":2953:2988   */\n      eq\n        /* \"#utility.yul\":2943:3006   */\n      tag_187\n      jumpi\n        /* \"#utility.yul\":3002:3003   */\n      0x00\n        /* \"#utility.yul\":2999:3000   */\n      dup1\n        /* \"#utility.yul\":2992:3004   */\n      revert\n        /* \"#utility.yul\":2943:3006   */\n    tag_187:\n        /* \"#utility.yul\":2890:3012   */\n      pop\n      jump\t// out\n        /* \"#utility.yul\":3018:3157   */\n    tag_118:\n        /* \"#utility.yul\":3064:3069   */\n      0x00\n        /* \"#utility.yul\":3102:3108   */\n      dup2\n        /* \"#utility.yul\":3089:3109   */\n      calldataload\n        /* \"#utility.yul\":3080:3109   */\n      swap1\n      pop\n        /* \"#utility.yul\":3118:3151   */\n      tag_189\n        /* \"#utility.yul\":3145:3150   */\n      dup2\n        /* \"#utility.yul\":3118:3151   */\n      tag_117\n      jump\t// in\n    tag_189:\n        /* \"#utility.yul\":3018:3157   */\n      swap3\n      swap2\n      pop\n      pop\n      jump\t// out\n        /* \"#utility.yul\":3163:3492   */\n    tag_46:\n        /* \"#utility.yul\":3222:3228   */\n      0x00\n        /* \"#utility.yul\":3271:3273   */\n      0x20\n        /* \"#utility.yul\":3259:3268   */\n      dup3\n        /* \"#utility.yul\":3250:3257   */\n      dup5\n        /* \"#utility.yul\":3246:3269   */\n      sub\n        /* \"#utility.yul\":3242:3274   */\n      slt\n        /* \"#utility.yul\":3239:3358   */\n      iszero\n      tag_191\n      jumpi\n        /* \"#utility.yul\":3277:3356   */\n      tag_192\n      tag_115\n      jump\t// in\n    tag_192:\n        /* \"#utility.yul\":3239:3358   */\n    tag_191:\n        /* \"#utility.yul\":3397:3398   */\n      0x00\n        /* \"#utility.yul\":3422:3475   */\n      tag_193\n        /* \"#utility.yul\":3467:3474   */\n      dup5\n        /* \"#utility.yul\":3458:3464   */\n      dup3\n        /* \"#utility.yul\":3447:3456   */\n      dup6\n        /* \"#utility.yul\":3443:3465   */\n      add\n        /* \"#utility.yul\":3422:3475   */\n      tag_118\n      jump\t// in\n    tag_193:\n        /* \"#utility.yul\":3412:3475   */\n      swap2\n      pop\n        /* \"#utility.yul\":3368:3485   */\n      pop\n        /* \"#utility.yul\":3163:3492   */\n      swap3\n      swap2\n      pop\n      pop\n      jump\t// out\n        /* \"#utility.yul\":3498:3620   */\n    tag_119:\n        /* \"#utility.yul\":3571:3595   */\n      tag_195\n        /* \"#utility.yul\":3589:3594   */\n      dup2\n        /* \"#utility.yul\":3571:3595   */\n      tag_103\n      jump\t// in\n    tag_195:\n        /* \"#utility.yul\":3564:3569   */\n      dup2\n        /* \"#utility.yul\":3561:3596   */\n      eq\n        /* \"#utility.yul\":3551:3614   */\n      tag_196\n      jumpi\n        /* \"#utility.yul\":3610:3611   */\n      0x00\n        /* \"#utility.yul\":3607:3608   */\n      dup1\n        /* \"#utility.yul\":3600:3612   */\n      revert\n        /* \"#utility.yul\":3551:3614   */\n    tag_196:\n        /* \"#utility.yul\":3498:3620   */\n      pop\n      jump\t// out\n        /* \"#utility.yul\":3626:3765   */\n    tag_120:\n        /* \"#utility.yul\":3672:3677   */\n      0x00\n        /* \"#utility.yul\":3710:3716   */\n      dup2\n        /* \"#utility.yul\":3697:3717   */\n      calldataload\n        /* \"#utility.yul\":3688:3717   */\n      swap1\n      pop\n        /* \"#utility.yul\":3726:3759   */\n      tag_198\n        /* \"#utility.yul\":3753:3758   */\n      dup2\n        /* \"#utility.yul\":3726:3759   */\n      tag_119\n      jump\t// in\n    tag_198:\n        /* \"#utility.yul\":3626:3765   */\n      swap3\n      swap2\n      pop\n      pop\n      jump\t// out\n        /* \"#utility.yul\":3771:4100   */\n    tag_51:\n        /* \"#utility.yul\":3830:3836   */\n      0x00\n        /* \"#utility.yul\":3879:3881   */\n      0x20\n        /* \"#utility.yul\":3867:3876   */\n      dup3\n        /* \"#utility.yul\":3858:3865   */\n      dup5\n        /* \"#utility.yul\":3854:3877   */\n      sub\n        /* \"#utility.yul\":3850:3882   */\n      slt\n        /* \"#utility.yul\":3847:3966   */\n      iszero\n      tag_200\n      jumpi\n        /* \"#utility.yul\":3885:3964   */\n      tag_201\n      tag_115\n      jump\t// in\n    tag_201:\n        /* \"#utility.yul\":3847:3966   */\n    tag_200:\n        /* \"#utility.yul\":4005:4006   */\n      0x00\n        /* \"#utility.yul\":4030:4083   */\n      tag_202\n        /* \"#utility.yul\":4075:4082   */\n      dup5\n        /* \"#utility.yul\":4066:4072   */\n      dup3\n        /* \"#utility.yul\":4055:4064   */\n      dup6\n        /* \"#utility.yul\":4051:4073   */\n      add\n        /* \"#utility.yul\":4030:4083   */\n      tag_120\n      jump\t// in\n    tag_202:\n        /* \"#utility.yul\":4020:4083   */\n      swap2\n      pop\n        /* \"#utility.yul\":3976:4093   */\n      pop\n        /* \"#utility.yul\":3771:4100   */\n      swap3\n      swap2\n      pop\n      pop\n      jump\t// out\n        /* \"#utility.yul\":4106:4223   */\n    tag_121:\n        /* \"#utility.yul\":4215:4216   */\n      0x00\n        /* \"#utility.yul\":4212:4213   */\n      dup1\n        /* \"#utility.yul\":4205:4217   */\n      revert\n        /* \"#utility.yul\":4229:4346   */\n    tag_122:\n        /* \"#utility.yul\":4338:4339   */\n      0x00\n        /* \"#utility.yul\":4335:4336   */\n      dup1\n        /* \"#utility.yul\":4328:4340   */\n      revert\n        /* \"#utility.yul\":4352:4469   */\n    tag_123:\n        /* \"#utility.yul\":4461:4462   */\n      0x00\n        /* \"#utility.yul\":4458:4459   */\n      dup1\n        /* \"#utility.yul\":4451:4463   */\n      revert\n        /* \"#utility.yul\":4489:5042   */\n    tag_124:\n        /* \"#utility.yul\":4547:4555   */\n      0x00\n        /* \"#utility.yul\":4557:4563   */\n      dup1\n        /* \"#utility.yul\":4607:4610   */\n      dup4\n        /* \"#utility.yul\":4600:4604   */\n      0x1f\n        /* \"#utility.yul\":4592:4598   */\n      dup5\n        /* \"#utility.yul\":4588:4605   */\n      add\n        /* \"#utility.yul\":4584:4611   */\n      slt\n        /* \"#utility.yul\":4574:4696   */\n      tag_207\n      jumpi\n        /* \"#utility.yul\":4615:4694   */\n      tag_208\n      tag_121\n      jump\t// in\n    tag_208:\n        /* \"#utility.yul\":4574:4696   */\n    tag_207:\n        /* \"#utility.yul\":4728:4734   */\n      dup3\n        /* \"#utility.yul\":4715:4735   */\n      calldataload\n        /* \"#utility.yul\":4705:4735   */\n      swap1\n      pop\n        /* \"#utility.yul\":4758:4776   */\n      0xffffffffffffffff\n        /* \"#utility.yul\":4750:4756   */\n      dup2\n        /* \"#utility.yul\":4747:4777   */\n      gt\n        /* \"#utility.yul\":4744:4861   */\n      iszero\n      tag_209\n      jumpi\n        /* \"#utility.yul\":4780:4859   */\n      tag_210\n      tag_122\n      jump\t// in\n    tag_210:\n        /* \"#utility.yul\":4744:4861   */\n    tag_209:\n        /* \"#utility.yul\":4894:4898   */\n      0x20\n        /* \"#utility.yul\":4886:4892   */\n      dup4\n        /* \"#utility.yul\":4882:4899   */\n      add\n        /* \"#utility.yul\":4870:4899   */\n      swap2\n      pop\n        /* \"#utility.yul\":4948:4951   */\n      dup4\n        /* \"#utility.yul\":4940:4944   */\n      0x01\n        /* \"#utility.yul\":4932:4938   */\n      dup3\n        /* \"#utility.yul\":4928:4945   */\n      mul\n        /* \"#utility.yul\":4918:4926   */\n      dup4\n        /* \"#utility.yul\":4914:4946   */\n      add\n        /* \"#utility.yul\":4911:4952   */\n      gt\n        /* \"#utility.yul\":4908:5036   */\n      iszero\n      tag_211\n      jumpi\n        /* \"#utility.yul\":4955:5034   */\n      tag_212\n      tag_123\n      jump\t// in\n    tag_212:\n        /* \"#utility.yul\":4908:5036   */\n    tag_211:\n        /* \"#utility.yul\":4489:5042   */\n      swap3\n      pop\n      swap3\n      swap1\n      pop\n      jump\t// out\n        /* \"#utility.yul\":5048:5577   */\n    tag_55:\n        /* \"#utility.yul\":5119:5125   */\n      0x00\n        /* \"#utility.yul\":5127:5133   */\n      dup1\n        /* \"#utility.yul\":5176:5178   */\n      0x20\n        /* \"#utility.yul\":5164:5173   */\n      dup4\n        /* \"#utility.yul\":5155:5162   */\n      dup6\n        /* \"#utility.yul\":5151:5174   */\n      sub\n        /* \"#utility.yul\":5147:5179   */\n      slt\n        /* \"#utility.yul\":5144:5263   */\n      iszero\n      tag_214\n      jumpi\n        /* \"#utility.yul\":5182:5261   */\n      tag_215\n      tag_115\n      jump\t// in\n    tag_215:\n        /* \"#utility.yul\":5144:5263   */\n    tag_214:\n        /* \"#utility.yul\":5330:5331   */\n      0x00\n        /* \"#utility.yul\":5319:5328   */\n      dup4\n        /* \"#utility.yul\":5315:5332   */\n      add\n        /* \"#utility.yul\":5302:5333   */\n      calldataload\n        /* \"#utility.yul\":5360:5378   */\n      0xffffffffffffffff\n        /* \"#utility.yul\":5352:5358   */\n      dup2\n        /* \"#utility.yul\":5349:5379   */\n      gt\n        /* \"#utility.yul\":5346:5463   */\n      iszero\n      tag_216\n      jumpi\n        /* \"#utility.yul\":5382:5461   */\n      tag_217\n      tag_116\n      jump\t// in\n    tag_217:\n        /* \"#utility.yul\":5346:5463   */\n    tag_216:\n        /* \"#utility.yul\":5495:5560   */\n      tag_218\n        /* \"#utility.yul\":5552:5559   */\n      dup6\n        /* \"#utility.yul\":5543:5549   */\n      dup3\n        /* \"#utility.yul\":5532:5541   */\n      dup7\n        /* \"#utility.yul\":5528:5550   */\n      add\n        /* \"#utility.yul\":5495:5560   */\n      tag_124\n      jump\t// in\n    tag_218:\n        /* \"#utility.yul\":5477:5560   */\n      swap3\n      pop\n      swap3\n      pop\n        /* \"#utility.yul\":5273:5570   */\n      pop\n        /* \"#utility.yul\":5048:5577   */\n      swap3\n      pop\n      swap3\n      swap1\n      pop\n      jump\t// out\n        /* \"#utility.yul\":5583:5752   */\n    tag_125:\n        /* \"#utility.yul\":5667:5678   */\n      0x00\n        /* \"#utility.yul\":5701:5707   */\n      dup3\n        /* \"#utility.yul\":5696:5699   */\n      dup3\n        /* \"#utility.yul\":5689:5708   */\n      mstore\n        /* \"#utility.yul\":5741:5745   */\n      0x20\n        /* \"#utility.yul\":5736:5739   */\n      dup3\n        /* \"#utility.yul\":5732:5746   */\n      add\n        /* \"#utility.yul\":5717:5746   */\n      swap1\n      pop\n        /* \"#utility.yul\":5583:5752   */\n      swap3\n      swap2\n      pop\n      pop\n      jump\t// out\n        /* \"#utility.yul\":5758:5917   */\n    tag_126:\n        /* \"#utility.yul\":5898:5909   */\n      0x4e6f74206f776e65720000000000000000000000000000000000000000000000\n        /* \"#utility.yul\":5894:5895   */\n      0x00\n        /* \"#utility.yul\":5886:5892   */\n      dup3\n        /* \"#utility.yul\":5882:5896   */\n      add\n        /* \"#utility.yul\":5875:5910   */\n      mstore\n        /* \"#utility.yul\":5758:5917   */\n      pop\n      jump\t// out\n        /* \"#utility.yul\":5923:6288   */\n    tag_127:\n        /* \"#utility.yul\":6065:6068   */\n      0x00\n        /* \"#utility.yul\":6086:6152   */\n      tag_222\n        /* \"#utility.yul\":6150:6151   */\n      0x09\n        /* \"#utility.yul\":6145:6148   */\n      dup4\n        /* \"#utility.yul\":6086:6152   */\n      tag_125\n      jump\t// in\n    tag_222:\n        /* \"#utility.yul\":6079:6152   */\n      swap2\n      pop\n        /* \"#utility.yul\":6161:6254   */\n      tag_223\n        /* \"#utility.yul\":6250:6253   */\n      dup3\n        /* \"#utility.yul\":6161:6254   */\n      tag_126\n      jump\t// in\n    tag_223:\n        /* \"#utility.yul\":6279:6281   */\n      0x20\n        /* \"#utility.yul\":6274:6277   */\n      dup3\n        /* \"#utility.yul\":6270:6282   */\n      add\n        /* \"#utility.yul\":6263:6282   */\n      swap1\n      pop\n        /* \"#utility.yul\":5923:6288   */\n      swap2\n      swap1\n      pop\n      jump\t// out\n        /* \"#utility.yul\":6294:6713   */\n    tag_60:\n        /* \"#utility.yul\":6460:6464   */\n      0x00\n        /* \"#utility.yul\":6498:6500   */\n      0x20\n        /* \"#utility.yul\":6487:6496   */\n      dup3\n        /* \"#utility.yul\":6483:6501   */\n      add\n        /* \"#utility.yul\":6475:6501   */\n      swap1\n      pop\n        /* \"#utility.yul\":6547:6556   */\n      dup2\n        /* \"#utility.yul\":6541:6545   */\n      dup2\n        /* \"#utility.yul\":6537:6557   */\n      sub\n        /* \"#utility.yul\":6533:6534   */\n      0x00\n        /* \"#utility.yul\":6522:6531   */\n      dup4\n        /* \"#utility.yul\":6518:6535   */\n      add\n        /* \"#utility.yul\":6511:6558   */\n      mstore\n        /* \"#utility.yul\":6575:6706   */\n      tag_225\n        /* \"#utility.yul\":6701:6705   */\n      dup2\n        /* \"#utility.yul\":6575:6706   */\n      tag_127\n      jump\t// in\n    tag_225:\n        /* \"#utility.yul\":6567:6706   */\n      swap1\n      pop\n        /* \"#utility.yul\":6294:6713   */\n      swap2\n      swap1\n      pop\n      jump\t// out\n        /* \"#utility.yul\":6719:6874   */\n    tag_128:\n        /* \"#utility.yul\":6859:6866   */\n      0x74616c6861000000000000000000000000000000000000000000000000000000\n        /* \"#utility.yul\":6855:6856   */\n      0x00\n        /* \"#utility.yul\":6847:6853   */\n      dup3\n        /* \"#utility.yul\":6843:6857   */\n      add\n        /* \"#utility.yul\":6836:6867   */\n      mstore\n        /* \"#utility.yul\":6719:6874   */\n      pop\n      jump\t// out\n        /* \"#utility.yul\":6880:7245   */\n    tag_129:\n        /* \"#utility.yul\":7022:7025   */\n      0x00\n        /* \"#utility.yul\":7043:7109   */\n      tag_228\n        /* \"#utility.yul\":7107:7108   */\n      0x05\n        /* \"#utility.yul\":7102:7105   */\n      dup4\n        /* \"#utility.yul\":7043:7109   */\n      tag_125\n      jump\t// in\n    tag_228:\n        /* \"#utility.yul\":7036:7109   */\n      swap2\n      pop\n        /* \"#utility.yul\":7118:7211   */\n      tag_229\n        /* \"#utility.yul\":7207:7210   */\n      dup3\n        /* \"#utility.yul\":7118:7211   */\n      tag_128\n      jump\t// in\n    tag_229:\n        /* \"#utility.yul\":7236:7238   */\n      0x20\n        /* \"#utility.yul\":7231:7234   */\n      dup3\n        /* \"#utility.yul\":7227:7239   */\n      add\n        /* \"#utility.yul\":7220:7239   */\n      swap1\n      pop\n        /* \"#utility.yul\":6880:7245   */\n      swap2\n      swap1\n      pop\n      jump\t// out\n        /* \"#utility.yul\":7251:7336   */\n    tag_130:\n        /* \"#utility.yul\":7296:7303   */\n      0x00\n        /* \"#utility.yul\":7325:7330   */\n      dup2\n        /* \"#utility.yul\":7314:7330   */\n      swap1\n      pop\n        /* \"#utility.yul\":7251:7336   */\n      swap2\n      swap1\n      pop\n      jump\t// out\n        /* \"#utility.yul\":7342:7431   */\n    tag_131:\n        /* \"#utility.yul\":7378:7385   */\n      0x00\n        /* \"#utility.yul\":7418:7424   */\n      0xffff\n        /* \"#utility.yul\":7411:7416   */\n      dup3\n        /* \"#utility.yul\":7407:7425   */\n      and\n        /* \"#utility.yul\":7396:7425   */\n      swap1\n      pop\n        /* \"#utility.yul\":7342:7431   */\n      swap2\n      swap1\n      pop\n      jump\t// out\n        /* \"#utility.yul\":7437:7593   */\n    tag_132:\n        /* \"#utility.yul\":7494:7503   */\n      0x00\n        /* \"#utility.yul\":7527:7587   */\n      tag_233\n        /* \"#utility.yul\":7544:7586   */\n      tag_234\n        /* \"#utility.yul\":7553:7585   */\n      tag_235\n        /* \"#utility.yul\":7579:7584   */\n      dup5\n        /* \"#utility.yul\":7553:7585   */\n      tag_130\n      jump\t// in\n    tag_235:\n        /* \"#utility.yul\":7544:7586   */\n      tag_107\n      jump\t// in\n    tag_234:\n        /* \"#utility.yul\":7527:7587   */\n      tag_131\n      jump\t// in\n    tag_233:\n        /* \"#utility.yul\":7514:7587   */\n      swap1\n      pop\n        /* \"#utility.yul\":7437:7593   */\n      swap2\n      swap1\n      pop\n      jump\t// out\n        /* \"#utility.yul\":7599:7744   */\n    tag_133:\n        /* \"#utility.yul\":7693:7737   */\n      tag_237\n        /* \"#utility.yul\":7731:7736   */\n      dup2\n        /* \"#utility.yul\":7693:7737   */\n      tag_132\n      jump\t// in\n    tag_237:\n        /* \"#utility.yul\":7688:7691   */\n      dup3\n        /* \"#utility.yul\":7681:7738   */\n      mstore\n        /* \"#utility.yul\":7599:7744   */\n      pop\n      pop\n      jump\t// out\n        /* \"#utility.yul\":7750:8514   */\n    tag_63:\n        /* \"#utility.yul\":8007:8011   */\n      0x00\n        /* \"#utility.yul\":8045:8048   */\n      0x80\n        /* \"#utility.yul\":8034:8043   */\n      dup3\n        /* \"#utility.yul\":8030:8049   */\n      add\n        /* \"#utility.yul\":8022:8049   */\n      swap1\n      pop\n        /* \"#utility.yul\":8095:8104   */\n      dup2\n        /* \"#utility.yul\":8089:8093   */\n      dup2\n        /* \"#utility.yul\":8085:8105   */\n      sub\n        /* \"#utility.yul\":8081:8082   */\n      0x00\n        /* \"#utility.yul\":8070:8079   */\n      dup4\n        /* \"#utility.yul\":8066:8083   */\n      add\n        /* \"#utility.yul\":8059:8106   */\n      mstore\n        /* \"#utility.yul\":8123:8254   */\n      tag_239\n        /* \"#utility.yul\":8249:8253   */\n      dup2\n        /* \"#utility.yul\":8123:8254   */\n      tag_129\n      jump\t// in\n    tag_239:\n        /* \"#utility.yul\":8115:8254   */\n      swap1\n      pop\n        /* \"#utility.yul\":8264:8336   */\n      tag_240\n        /* \"#utility.yul\":8332:8334   */\n      0x20\n        /* \"#utility.yul\":8321:8330   */\n      dup4\n        /* \"#utility.yul\":8317:8335   */\n      add\n        /* \"#utility.yul\":8308:8314   */\n      dup7\n        /* \"#utility.yul\":8264:8336   */\n      tag_104\n      jump\t// in\n    tag_240:\n        /* \"#utility.yul\":8346:8425   */\n      tag_241\n        /* \"#utility.yul\":8421:8423   */\n      0x40\n        /* \"#utility.yul\":8410:8419   */\n      dup4\n        /* \"#utility.yul\":8406:8424   */\n      add\n        /* \"#utility.yul\":8397:8403   */\n      dup6\n        /* \"#utility.yul\":8346:8425   */\n      tag_133\n      jump\t// in\n    tag_241:\n        /* \"#utility.yul\":8435:8507   */\n      tag_242\n        /* \"#utility.yul\":8503:8505   */\n      0x60\n        /* \"#utility.yul\":8492:8501   */\n      dup4\n        /* \"#utility.yul\":8488:8506   */\n      add\n        /* \"#utility.yul\":8479:8485   */\n      dup5\n        /* \"#utility.yul\":8435:8507   */\n      tag_104\n      jump\t// in\n    tag_242:\n        /* \"#utility.yul\":7750:8514   */\n      swap5\n      swap4\n      pop\n      pop\n      pop\n      pop\n      jump\t// out\n        /* \"#utility.yul\":8520:8610   */\n    tag_134:\n        /* \"#utility.yul\":8554:8561   */\n      0x00\n        /* \"#utility.yul\":8597:8602   */\n      dup2\n        /* \"#utility.yul\":8590:8603   */\n      iszero\n        /* \"#utility.yul\":8583:8604   */\n      iszero\n        /* \"#utility.yul\":8572:8604   */\n      swap1\n      pop\n        /* \"#utility.yul\":8520:8610   */\n      swap2\n      swap1\n      pop\n      jump\t// out\n        /* \"#utility.yul\":8616:8725   */\n    tag_135:\n        /* \"#utility.yul\":8697:8718   */\n      tag_245\n        /* \"#utility.yul\":8712:8717   */\n      dup2\n        /* \"#utility.yul\":8697:8718   */\n      tag_134\n      jump\t// in\n    tag_245:\n        /* \"#utility.yul\":8692:8695   */\n      dup3\n        /* \"#utility.yul\":8685:8719   */\n      mstore\n        /* \"#utility.yul\":8616:8725   */\n      pop\n      pop\n      jump\t// out\n        /* \"#utility.yul\":8731:9051   */\n    tag_72:\n        /* \"#utility.yul\":8846:8850   */\n      0x00\n        /* \"#utility.yul\":8884:8886   */\n      0x40\n        /* \"#utility.yul\":8873:8882   */\n      dup3\n        /* \"#utility.yul\":8869:8887   */\n      add\n        /* \"#utility.yul\":8861:8887   */\n      swap1\n      pop\n        /* \"#utility.yul\":8897:8968   */\n      tag_247\n        /* \"#utility.yul\":8965:8966   */\n      0x00\n        /* \"#utility.yul\":8954:8963   */\n      dup4\n        /* \"#utility.yul\":8950:8967   */\n      add\n        /* \"#utility.yul\":8941:8947   */\n      dup6\n        /* \"#utility.yul\":8897:8968   */\n      tag_104\n      jump\t// in\n    tag_247:\n        /* \"#utility.yul\":8978:9044   */\n      tag_248\n        /* \"#utility.yul\":9040:9042   */\n      0x20\n        /* \"#utility.yul\":9029:9038   */\n      dup4\n        /* \"#utility.yul\":9025:9043   */\n      add\n        /* \"#utility.yul\":9016:9022   */\n      dup5\n        /* \"#utility.yul\":8978:9044   */\n      tag_135\n      jump\t// in\n    tag_248:\n        /* \"#utility.yul\":8731:9051   */\n      swap4\n      swap3\n      pop\n      pop\n      pop\n      jump\t// out\n        /* \"#utility.yul\":9057:9389   */\n    tag_86:\n        /* \"#utility.yul\":9178:9182   */\n      0x00\n        /* \"#utility.yul\":9216:9218   */\n      0x40\n        /* \"#utility.yul\":9205:9214   */\n      dup3\n        /* \"#utility.yul\":9201:9219   */\n      add\n        /* \"#utility.yul\":9193:9219   */\n      swap1\n      pop\n        /* \"#utility.yul\":9229:9300   */\n      tag_250\n        /* \"#utility.yul\":9297:9298   */\n      0x00\n        /* \"#utility.yul\":9286:9295   */\n      dup4\n        /* \"#utility.yul\":9282:9299   */\n      add\n        /* \"#utility.yul\":9273:9279   */\n      dup6\n        /* \"#utility.yul\":9229:9300   */\n      tag_106\n      jump\t// in\n    tag_250:\n        /* \"#utility.yul\":9310:9382   */\n      tag_251\n        /* \"#utility.yul\":9378:9380   */\n      0x20\n        /* \"#utility.yul\":9367:9376   */\n      dup4\n        /* \"#utility.yul\":9363:9381   */\n      add\n        /* \"#utility.yul\":9354:9360   */\n      dup5\n        /* \"#utility.yul\":9310:9382   */\n      tag_106\n      jump\t// in\n    tag_251:\n        /* \"#utility.yul\":9057:9389   */\n      swap4\n      swap3\n      pop\n      pop\n      pop\n      jump\t// out\n        /* \"#utility.yul\":9395:9574   */\n    tag_136:\n        /* \"#utility.yul\":9535:9566   */\n      0x496e73756666696369656e7420726567697374726174696f6e20666565000000\n        /* \"#utility.yul\":9531:9532   */\n      0x00\n        /* \"#utility.yul\":9523:9529   */\n      dup3\n        /* \"#utility.yul\":9519:9533   */\n      add\n        /* \"#utility.yul\":9512:9567   */\n      mstore\n        /* \"#utility.yul\":9395:9574   */\n      pop\n      jump\t// out\n        /* \"#utility.yul\":9580:9946   */\n    tag_137:\n        /* \"#utility.yul\":9722:9725   */\n      0x00\n        /* \"#utility.yul\":9743:9810   */\n      tag_254\n        /* \"#utility.yul\":9807:9809   */\n      0x1d\n        /* \"#utility.yul\":9802:9805   */\n      dup4\n        /* \"#utility.yul\":9743:9810   */\n      tag_125\n      jump\t// in\n    tag_254:\n        /* \"#utility.yul\":9736:9810   */\n      swap2\n      pop\n        /* \"#utility.yul\":9819:9912   */\n      tag_255\n        /* \"#utility.yul\":9908:9911   */\n      dup3\n        /* \"#utility.yul\":9819:9912   */\n      tag_136\n      jump\t// in\n    tag_255:\n        /* \"#utility.yul\":9937:9939   */\n      0x20\n        /* \"#utility.yul\":9932:9935   */\n      dup3\n        /* \"#utility.yul\":9928:9940   */\n      add\n        /* \"#utility.yul\":9921:9940   */\n      swap1\n      pop\n        /* \"#utility.yul\":9580:9946   */\n      swap2\n      swap1\n      pop\n      jump\t// out\n        /* \"#utility.yul\":9952:10371   */\n    tag_89:\n        /* \"#utility.yul\":10118:10122   */\n      0x00\n        /* \"#utility.yul\":10156:10158   */\n      0x20\n        /* \"#utility.yul\":10145:10154   */\n      dup3\n        /* \"#utility.yul\":10141:10159   */\n      add\n        /* \"#utility.yul\":10133:10159   */\n      swap1\n      pop\n        /* \"#utility.yul\":10205:10214   */\n      dup2\n        /* \"#utility.yul\":10199:10203   */\n      dup2\n        /* \"#utility.yul\":10195:10215   */\n      sub\n        /* \"#utility.yul\":10191:10192   */\n      0x00\n        /* \"#utility.yul\":10180:10189   */\n      dup4\n        /* \"#utility.yul\":10176:10193   */\n      add\n        /* \"#utility.yul\":10169:10216   */\n      mstore\n        /* \"#utility.yul\":10233:10364   */\n      tag_257\n        /* \"#utility.yul\":10359:10363   */\n      dup2\n        /* \"#utility.yul\":10233:10364   */\n      tag_137\n      jump\t// in\n    tag_257:\n        /* \"#utility.yul\":10225:10364   */\n      swap1\n      pop\n        /* \"#utility.yul\":9952:10371   */\n      swap2\n      swap1\n      pop\n      jump\t// out\n        /* \"#utility.yul\":10377:10557   */\n    tag_138:\n        /* \"#utility.yul\":10425:10502   */\n      0x4e487b7100000000000000000000000000000000000000000000000000000000\n        /* \"#utility.yul\":10422:10423   */\n      0x00\n        /* \"#utility.yul\":10415:10503   */\n      mstore\n        /* \"#utility.yul\":10522:10526   */\n      0x11\n        /* \"#utility.yul\":10519:10520   */\n      0x04\n        /* \"#utility.yul\":10512:10527   */\n      mstore\n        /* \"#utility.yul\":10546:10550   */\n      0x24\n        /* \"#utility.yul\":10543:10544   */\n      0x00\n        /* \"#utility.yul\":10536:10551   */\n      revert\n        /* \"#utility.yul\":10563:10754   */\n    tag_94:\n        /* \"#utility.yul\":10603:10606   */\n      0x00\n        /* \"#utility.yul\":10622:10642   */\n      tag_260\n        /* \"#utility.yul\":10640:10641   */\n      dup3\n        /* \"#utility.yul\":10622:10642   */\n      tag_105\n      jump\t// in\n    tag_260:\n        /* \"#utility.yul\":10617:10642   */\n      swap2\n      pop\n        /* \"#utility.yul\":10656:10676   */\n      tag_261\n        /* \"#utility.yul\":10674:10675   */\n      dup4\n        /* \"#utility.yul\":10656:10676   */\n      tag_105\n      jump\t// in\n    tag_261:\n        /* \"#utility.yul\":10651:10676   */\n      swap3\n      pop\n        /* \"#utility.yul\":10699:10700   */\n      dup3\n        /* \"#utility.yul\":10696:10697   */\n      dup3\n        /* \"#utility.yul\":10692:10701   */\n      add\n        /* \"#utility.yul\":10685:10701   */\n      swap1\n      pop\n        /* \"#utility.yul\":10720:10723   */\n      dup1\n        /* \"#utility.yul\":10717:10718   */\n      dup3\n        /* \"#utility.yul\":10714:10724   */\n      gt\n        /* \"#utility.yul\":10711:10747   */\n      iszero\n      tag_262\n      jumpi\n        /* \"#utility.yul\":10727:10745   */\n      tag_263\n      tag_138\n      jump\t// in\n    tag_263:\n        /* \"#utility.yul\":10711:10747   */\n    tag_262:\n        /* \"#utility.yul\":10563:10754   */\n      swap3\n      swap2\n      pop\n      pop\n      jump\t// out\n        /* \"#utility.yul\":10760:10837   */\n    tag_139:\n        /* \"#utility.yul\":10797:10804   */\n      0x00\n        /* \"#utility.yul\":10826:10831   */\n      dup2\n        /* \"#utility.yul\":10815:10831   */\n      swap1\n      pop\n        /* \"#utility.yul\":10760:10837   */\n      swap2\n      swap1\n      pop\n      jump\t// out\n        /* \"#utility.yul\":10843:10961   */\n    tag_140:\n        /* \"#utility.yul\":10930:10954   */\n      tag_266\n        /* \"#utility.yul\":10948:10953   */\n      dup2\n        /* \"#utility.yul\":10930:10954   */\n      tag_139\n      jump\t// in\n    tag_266:\n        /* \"#utility.yul\":10925:10928   */\n      dup3\n        /* \"#utility.yul\":10918:10955   */\n      mstore\n        /* \"#utility.yul\":10843:10961   */\n      pop\n      pop\n      jump\t// out\n        /* \"#utility.yul\":10967:11115   */\n    tag_141:\n        /* \"#utility.yul\":11065:11071   */\n      dup3\n        /* \"#utility.yul\":11060:11063   */\n      dup2\n        /* \"#utility.yul\":11055:11058   */\n      dup4\n        /* \"#utility.yul\":11042:11072   */\n      calldatacopy\n        /* \"#utility.yul\":11106:11107   */\n      0x00\n        /* \"#utility.yul\":11097:11103   */\n      dup4\n        /* \"#utility.yul\":11092:11095   */\n      dup4\n        /* \"#utility.yul\":11088:11104   */\n      add\n        /* \"#utility.yul\":11081:11108   */\n      mstore\n        /* \"#utility.yul\":10967:11115   */\n      pop\n      pop\n      pop\n      jump\t// out\n        /* \"#utility.yul\":11121:11223   */\n    tag_142:\n        /* \"#utility.yul\":11162:11168   */\n      0x00\n        /* \"#utility.yul\":11213:11215   */\n      0x1f\n        /* \"#utility.yul\":11209:11216   */\n      not\n        /* \"#utility.yul\":11204:11206   */\n      0x1f\n        /* \"#utility.yul\":11197:11202   */\n      dup4\n        /* \"#utility.yul\":11193:11207   */\n      add\n        /* \"#utility.yul\":11189:11217   */\n      and\n        /* \"#utility.yul\":11179:11217   */\n      swap1\n      pop\n        /* \"#utility.yul\":11121:11223   */\n      swap2\n      swap1\n      pop\n      jump\t// out\n        /* \"#utility.yul\":11253:11570   */\n    tag_143:\n        /* \"#utility.yul\":11351:11354   */\n      0x00\n        /* \"#utility.yul\":11372:11443   */\n      tag_270\n        /* \"#utility.yul\":11436:11442   */\n      dup4\n        /* \"#utility.yul\":11431:11434   */\n      dup6\n        /* \"#utility.yul\":11372:11443   */\n      tag_125\n      jump\t// in\n    tag_270:\n        /* \"#utility.yul\":11365:11443   */\n      swap4\n      pop\n        /* \"#utility.yul\":11453:11509   */\n      tag_271\n        /* \"#utility.yul\":11502:11508   */\n      dup4\n        /* \"#utility.yul\":11497:11500   */\n      dup6\n        /* \"#utility.yul\":11490:11495   */\n      dup5\n        /* \"#utility.yul\":11453:11509   */\n      tag_141\n      jump\t// in\n    tag_271:\n        /* \"#utility.yul\":11534:11563   */\n      tag_272\n        /* \"#utility.yul\":11556:11562   */\n      dup4\n        /* \"#utility.yul\":11534:11563   */\n      tag_142\n      jump\t// in\n    tag_272:\n        /* \"#utility.yul\":11529:11532   */\n      dup5\n        /* \"#utility.yul\":11525:11564   */\n      add\n        /* \"#utility.yul\":11518:11564   */\n      swap1\n      pop\n        /* \"#utility.yul\":11253:11570   */\n      swap4\n      swap3\n      pop\n      pop\n      pop\n      jump\t// out\n        /* \"#utility.yul\":11576:11677   */\n    tag_144:\n        /* \"#utility.yul\":11612:11619   */\n      0x00\n        /* \"#utility.yul\":11652:11670   */\n      0xffffffffffffffff\n        /* \"#utility.yul\":11645:11650   */\n      dup3\n        /* \"#utility.yul\":11641:11671   */\n      and\n        /* \"#utility.yul\":11630:11671   */\n      swap1\n      pop\n        /* \"#utility.yul\":11576:11677   */\n      swap2\n      swap1\n      pop\n      jump\t// out\n        /* \"#utility.yul\":11683:11839   */\n    tag_145:\n        /* \"#utility.yul\":11740:11749   */\n      0x00\n        /* \"#utility.yul\":11773:11833   */\n      tag_275\n        /* \"#utility.yul\":11790:11832   */\n      tag_276\n        /* \"#utility.yul\":11799:11831   */\n      tag_277\n        /* \"#utility.yul\":11825:11830   */\n      dup5\n        /* \"#utility.yul\":11799:11831   */\n      tag_130\n      jump\t// in\n    tag_277:\n        /* \"#utility.yul\":11790:11832   */\n      tag_107\n      jump\t// in\n    tag_276:\n        /* \"#utility.yul\":11773:11833   */\n      tag_144\n      jump\t// in\n    tag_275:\n        /* \"#utility.yul\":11760:11833   */\n      swap1\n      pop\n        /* \"#utility.yul\":11683:11839   */\n      swap2\n      swap1\n      pop\n      jump\t// out\n        /* \"#utility.yul\":11845:11990   */\n    tag_146:\n        /* \"#utility.yul\":11939:11983   */\n      tag_279\n        /* \"#utility.yul\":11977:11982   */\n      dup2\n        /* \"#utility.yul\":11939:11983   */\n      tag_145\n      jump\t// in\n    tag_279:\n        /* \"#utility.yul\":11934:11937   */\n      dup3\n        /* \"#utility.yul\":11927:11984   */\n      mstore\n        /* \"#utility.yul\":11845:11990   */\n      pop\n      pop\n      jump\t// out\n        /* \"#utility.yul\":11996:12089   */\n    tag_147:\n        /* \"#utility.yul\":12032:12039   */\n      0x00\n        /* \"#utility.yul\":12072:12082   */\n      0xffffffff\n        /* \"#utility.yul\":12065:12070   */\n      dup3\n        /* \"#utility.yul\":12061:12083   */\n      and\n        /* \"#utility.yul\":12050:12083   */\n      swap1\n      pop\n        /* \"#utility.yul\":11996:12089   */\n      swap2\n      swap1\n      pop\n      jump\t// out\n        /* \"#utility.yul\":12095:12210   */\n    tag_148:\n        /* \"#utility.yul\":12180:12203   */\n      tag_282\n        /* \"#utility.yul\":12197:12202   */\n      dup2\n        /* \"#utility.yul\":12180:12203   */\n      tag_147\n      jump\t// in\n    tag_282:\n        /* \"#utility.yul\":12175:12178   */\n      dup3\n        /* \"#utility.yul\":12168:12204   */\n      mstore\n        /* \"#utility.yul\":12095:12210   */\n      pop\n      pop\n      jump\t// out\n        /* \"#utility.yul\":12216:12331   */\n    tag_149:\n        /* \"#utility.yul\":12301:12324   */\n      tag_284\n        /* \"#utility.yul\":12318:12323   */\n      dup2\n        /* \"#utility.yul\":12301:12324   */\n      tag_144\n      jump\t// in\n    tag_284:\n        /* \"#utility.yul\":12296:12299   */\n      dup3\n        /* \"#utility.yul\":12289:12325   */\n      mstore\n        /* \"#utility.yul\":12216:12331   */\n      pop\n      pop\n      jump\t// out\n        /* \"#utility.yul\":12337:13340   */\n    tag_96:\n        /* \"#utility.yul\":12631:12635   */\n      0x00\n        /* \"#utility.yul\":12669:12672   */\n      0xe0\n        /* \"#utility.yul\":12658:12667   */\n      dup3\n        /* \"#utility.yul\":12654:12673   */\n      add\n        /* \"#utility.yul\":12646:12673   */\n      swap1\n      pop\n        /* \"#utility.yul\":12683:12754   */\n      tag_286\n        /* \"#utility.yul\":12751:12752   */\n      0x00\n        /* \"#utility.yul\":12740:12749   */\n      dup4\n        /* \"#utility.yul\":12736:12753   */\n      add\n        /* \"#utility.yul\":12727:12733   */\n      dup12\n        /* \"#utility.yul\":12683:12754   */\n      tag_140\n      jump\t// in\n    tag_286:\n        /* \"#utility.yul\":12801:12810   */\n      dup2\n        /* \"#utility.yul\":12795:12799   */\n      dup2\n        /* \"#utility.yul\":12791:12811   */\n      sub\n        /* \"#utility.yul\":12786:12788   */\n      0x20\n        /* \"#utility.yul\":12775:12784   */\n      dup4\n        /* \"#utility.yul\":12771:12789   */\n      add\n        /* \"#utility.yul\":12764:12812   */\n      mstore\n        /* \"#utility.yul\":12829:12917   */\n      tag_287\n        /* \"#utility.yul\":12912:12916   */\n      dup2\n        /* \"#utility.yul\":12903:12909   */\n      dup10\n        /* \"#utility.yul\":12895:12901   */\n      dup12\n        /* \"#utility.yul\":12829:12917   */\n      tag_143\n      jump\t// in\n    tag_287:\n        /* \"#utility.yul\":12821:12917   */\n      swap1\n      pop\n        /* \"#utility.yul\":12927:12999   */\n      tag_288\n        /* \"#utility.yul\":12995:12997   */\n      0x40\n        /* \"#utility.yul\":12984:12993   */\n      dup4\n        /* \"#utility.yul\":12980:12998   */\n      add\n        /* \"#utility.yul\":12971:12977   */\n      dup9\n        /* \"#utility.yul\":12927:12999   */\n      tag_104\n      jump\t// in\n    tag_288:\n        /* \"#utility.yul\":13009:13081   */\n      tag_289\n        /* \"#utility.yul\":13077:13079   */\n      0x60\n        /* \"#utility.yul\":13066:13075   */\n      dup4\n        /* \"#utility.yul\":13062:13080   */\n      add\n        /* \"#utility.yul\":13053:13059   */\n      dup8\n        /* \"#utility.yul\":13009:13081   */\n      tag_104\n      jump\t// in\n    tag_289:\n        /* \"#utility.yul\":13091:13171   */\n      tag_290\n        /* \"#utility.yul\":13166:13169   */\n      0x80\n        /* \"#utility.yul\":13155:13164   */\n      dup4\n        /* \"#utility.yul\":13151:13170   */\n      add\n        /* \"#utility.yul\":13142:13148   */\n      dup7\n        /* \"#utility.yul\":13091:13171   */\n      tag_146\n      jump\t// in\n    tag_290:\n        /* \"#utility.yul\":13181:13252   */\n      tag_291\n        /* \"#utility.yul\":13247:13250   */\n      0xa0\n        /* \"#utility.yul\":13236:13245   */\n      dup4\n        /* \"#utility.yul\":13232:13251   */\n      add\n        /* \"#utility.yul\":13223:13229   */\n      dup6\n        /* \"#utility.yul\":13181:13252   */\n      tag_148\n      jump\t// in\n    tag_291:\n        /* \"#utility.yul\":13262:13333   */\n      tag_292\n        /* \"#utility.yul\":13328:13331   */\n      0xc0\n        /* \"#utility.yul\":13317:13326   */\n      dup4\n        /* \"#utility.yul\":13313:13332   */\n      add\n        /* \"#utility.yul\":13304:13310   */\n      dup5\n        /* \"#utility.yul\":13262:13333   */\n      tag_149\n      jump\t// in\n    tag_292:\n        /* \"#utility.yul\":12337:13340   */\n      swap10\n      swap9\n      pop\n      pop\n      pop\n      pop\n      pop\n      pop\n      pop\n      pop\n      pop\n      jump\t// out\n        /* \"#utility.yul\":13346:13679   */\n    tag_101:\n        /* \"#utility.yul\":13469:13473   */\n      0x00\n        /* \"#utility.yul\":13507:13509   */\n      0x20\n        /* \"#utility.yul\":13496:13505   */\n      dup3\n        /* \"#utility.yul\":13492:13510   */\n      add\n        /* \"#utility.yul\":13484:13510   */\n      swap1\n      pop\n        /* \"#utility.yul\":13556:13565   */\n      dup2\n        /* \"#utility.yul\":13550:13554   */\n      dup2\n        /* \"#utility.yul\":13546:13566   */\n      sub\n        /* \"#utility.yul\":13542:13543   */\n      0x00\n        /* \"#utility.yul\":13531:13540   */\n      dup4\n        /* \"#utility.yul\":13527:13544   */\n      add\n        /* \"#utility.yul\":13520:13567   */\n      mstore\n        /* \"#utility.yul\":13584:13672   */\n      tag_294\n        /* \"#utility.yul\":13667:13671   */\n      dup2\n        /* \"#utility.yul\":13658:13664   */\n      dup5\n        /* \"#utility.yul\":13650:13656   */\n      dup7\n        /* \"#utility.yul\":13584:13672   */\n      tag_143\n      jump\t// in\n    tag_294:\n        /* \"#utility.yul\":13576:13672   */\n      swap1\n      pop\n        /* \"#utility.yul\":13346:13679   */\n      swap4\n      swap3\n      pop\n      pop\n      pop\n      jump\t// out\n\n    auxdata: 0xa2646970667358221220907555bb275f6fca6c9388157c7b2e7d80f5ba51ea8c6bbff6b48b9302f28cb564736f6c634300081a0033\n}\n",
				"bytecode": {
					"linkReferences": {},
					"object": "608060405260405161121c38038061121c83398181016040528101906100259190610241565b855f806101000a81548173ffffffffffffffffffffffffffffffffffffffff021916908373ffffffffffffffffffffffffffffffffffffffff1602179055508460015f6101000a81548173ffffffffffffffffffffffffffffffffffffffff021916908373ffffffffffffffffffffffffffffffffffffffff1602179055508360025f6101000a81548173ffffffffffffffffffffffffffffffffffffffff021916908373ffffffffffffffffffffffffffffffffffffffff16021790555082600681905550816003819055508060045f6101000a81548173ffffffffffffffffffffffffffffffffffffffff021916908373ffffffffffffffffffffffffffffffffffffffff1602179055503360055f6101000a81548173ffffffffffffffffffffffffffffffffffffffff021916908373ffffffffffffffffffffffffffffffffffffffff1602179055505050505050506102ca565b5f80fd5b5f73ffffffffffffffffffffffffffffffffffffffff82169050919050565b5f6101aa82610181565b9050919050565b6101ba816101a0565b81146101c4575f80fd5b50565b5f815190506101d5816101b1565b92915050565b5f819050919050565b6101ed816101db565b81146101f7575f80fd5b50565b5f81519050610208816101e4565b92915050565b5f819050919050565b6102208161020e565b811461022a575f80fd5b50565b5f8151905061023b81610217565b92915050565b5f805f805f8060c0878903121561025b5761025a61017d565b5b5f61026889828a016101c7565b965050602061027989828a016101c7565b955050604061028a89828a016101c7565b945050606061029b89828a016101fa565b93505060806102ac89828a0161022d565b92505060a06102bd89828a016101c7565b9150509295509295509295565b610f45806102d75f395ff3fe608060405260043610610090575f3560e01c8063ab2397eb11610058578063ab2397eb14610152578063c2c589f014610168578063c320c72714610192578063e74b981b146101ba578063f2c298be146101e257610090565b806304f3bcec1461009457806314c44e09146100be57806346904840146100e85780637bf8f27a14610112578063a8e5fbc014610128575b5f80fd5b34801561009f575f80fd5b506100a86101fe565b6040516100b591906108d0565b60405180910390f35b3480156100c9575f80fd5b506100d2610223565b6040516100df9190610901565b60405180910390f35b3480156100f3575f80fd5b506100fc610229565b60405161010991906108d0565b60405180910390f35b34801561011d575f80fd5b5061012661024e565b005b348015610133575f80fd5b5061013c610389565b6040516101499190610975565b60405180910390f35b34801561015d575f80fd5b506101666103ac565b005b348015610173575f80fd5b5061017c6104e6565b60405161018991906109ae565b60405180910390f35b34801561019d575f80fd5b506101b860048036038101906101b391906109f9565b61050b565b005b3480156101c5575f80fd5b506101e060048036038101906101db9190610a4e565b6105a4565b005b6101fc60048036038101906101f79190610ada565b610676565b005b60025f9054906101000a900473ffffffffffffffffffffffffffffffffffffffff1681565b60035481565b60045f9054906101000a900473ffffffffffffffffffffffffffffffffffffffff1681565b60055f9054906101000a900473ffffffffffffffffffffffffffffffffffffffff1673ffffffffffffffffffffffffffffffffffffffff163373ffffffffffffffffffffffffffffffffffffffff16146102dd576040517f08c379a00000000000000000000000000000000000000000000000000000000081526004016102d490610b7f565b60405180910390fd5b5f8054906101000a900473ffffffffffffffffffffffffffffffffffffffff1673ffffffffffffffffffffffffffffffffffffffff16638cf8b41e305f60025f9054906101000a900473ffffffffffffffffffffffffffffffffffffffff166040518463ffffffff1660e01b815260040161035a93929190610c2d565b5f604051808303815f87803b158015610371575f80fd5b505af1158015610383573d5f803e3d5ffd5b50505050565b5f8054906101000a900473ffffffffffffffffffffffffffffffffffffffff1681565b60055f9054906101000a900473ffffffffffffffffffffffffffffffffffffffff1673ffffffffffffffffffffffffffffffffffffffff163373ffffffffffffffffffffffffffffffffffffffff161461043b576040517f08c379a000000000000000000000000000000000000000000000000000000000815260040161043290610b7f565b60405180910390fd5b60015f9054906101000a900473ffffffffffffffffffffffffffffffffffffffff1673ffffffffffffffffffffffffffffffffffffffff1663a22cb4655f8054906101000a900473ffffffffffffffffffffffffffffffffffffffff1660016040518363ffffffff1660e01b81526004016104b7929190610c8f565b5f604051808303815f87803b1580156104ce575f80fd5b505af11580156104e0573d5f803e3d5ffd5b50505050565b60015f9054906101000a900473ffffffffffffffffffffffffffffffffffffffff1681565b60055f9054906101000a900473ffffffffffffffffffffffffffffffffffffffff1673ffffffffffffffffffffffffffffffffffffffff163373ffffffffffffffffffffffffffffffffffffffff161461059a576040517f08c379a000000000000000000000000000000000000000000000000000000000815260040161059190610b7f565b60405180910390fd5b8060038190555050565b60055f9054906101000a900473ffffffffffffffffffffffffffffffffffffffff1673ffffffffffffffffffffffffffffffffffffffff163373ffffffffffffffffffffffffffffffffffffffff1614610633576040517f08c379a000000000000000000000000000000000000000000000000000000000815260040161062a90610b7f565b60405180910390fd5b8060045f6101000a81548173ffffffffffffffffffffffffffffffffffffffff021916908373ffffffffffffffffffffffffffffffffffffffff16021790555050565b7f6709f8c20cab685a0bc846fd193679b20dc9a5d814dfabfef5c66ce0564f5460346003546040516106a9929190610cb6565b60405180910390a16003543410156106f6576040517f08c379a00000000000000000000000000000000000000000000000000000000081526004016106ed90610d27565b60405180910390fd5b5f60035411156107685760045f9054906101000a900473ffffffffffffffffffffffffffffffffffffffff1673ffffffffffffffffffffffffffffffffffffffff166108fc60035490811502906040515f60405180830381858888f19350505050158015610766573d5f803e3d5ffd5b505b5f6205000090505f6301e13380426107809190610d72565b90505f8054906101000a900473ffffffffffffffffffffffffffffffffffffffff1673ffffffffffffffffffffffffffffffffffffffff166324c1af4460065486863360025f9054906101000a900473ffffffffffffffffffffffffffffffffffffffff165f89896040518963ffffffff1660e01b815260040161080b989796959493929190610e77565b5f604051808303815f87803b158015610822575f80fd5b505af1158015610834573d5f803e3d5ffd5b505050503373ffffffffffffffffffffffffffffffffffffffff166006547f38506b5a4c15fa3526645437424431e9107debed02363450779158fa3713be638686604051610883929190610eed565b60405180910390a350505050565b5f73ffffffffffffffffffffffffffffffffffffffff82169050919050565b5f6108ba82610891565b9050919050565b6108ca816108b0565b82525050565b5f6020820190506108e35f8301846108c1565b92915050565b5f819050919050565b6108fb816108e9565b82525050565b5f6020820190506109145f8301846108f2565b92915050565b5f819050919050565b5f61093d61093861093384610891565b61091a565b610891565b9050919050565b5f61094e82610923565b9050919050565b5f61095f82610944565b9050919050565b61096f81610955565b82525050565b5f6020820190506109885f830184610966565b92915050565b5f61099882610944565b9050919050565b6109a88161098e565b82525050565b5f6020820190506109c15f83018461099f565b92915050565b5f80fd5b5f80fd5b6109d8816108e9565b81146109e2575f80fd5b50565b5f813590506109f3816109cf565b92915050565b5f60208284031215610a0e57610a0d6109c7565b5b5f610a1b848285016109e5565b91505092915050565b610a2d816108b0565b8114610a37575f80fd5b50565b5f81359050610a4881610a24565b92915050565b5f60208284031215610a6357610a626109c7565b5b5f610a7084828501610a3a565b91505092915050565b5f80fd5b5f80fd5b5f80fd5b5f8083601f840112610a9a57610a99610a79565b5b8235905067ffffffffffffffff811115610ab757610ab6610a7d565b5b602083019150836001820283011115610ad357610ad2610a81565b5b9250929050565b5f8060208385031215610af057610aef6109c7565b5b5f83013567ffffffffffffffff811115610b0d57610b0c6109cb565b5b610b1985828601610a85565b92509250509250929050565b5f82825260208201905092915050565b7f4e6f74206f776e657200000000000000000000000000000000000000000000005f82015250565b5f610b69600983610b25565b9150610b7482610b35565b602082019050919050565b5f6020820190508181035f830152610b9681610b5d565b9050919050565b7f74616c68610000000000000000000000000000000000000000000000000000005f82015250565b5f610bd1600583610b25565b9150610bdc82610b9d565b602082019050919050565b5f819050919050565b5f61ffff82169050919050565b5f610c17610c12610c0d84610be7565b61091a565b610bf0565b9050919050565b610c2781610bfd565b82525050565b5f6080820190508181035f830152610c4481610bc5565b9050610c5360208301866108c1565b610c606040830185610c1e565b610c6d60608301846108c1565b949350505050565b5f8115159050919050565b610c8981610c75565b82525050565b5f604082019050610ca25f8301856108c1565b610caf6020830184610c80565b9392505050565b5f604082019050610cc95f8301856108f2565b610cd660208301846108f2565b9392505050565b7f496e73756666696369656e7420726567697374726174696f6e206665650000005f82015250565b5f610d11601d83610b25565b9150610d1c82610cdd565b602082019050919050565b5f6020820190508181035f830152610d3e81610d05565b9050919050565b7f4e487b71000000000000000000000000000000000000000000000000000000005f52601160045260245ffd5b5f610d7c826108e9565b9150610d87836108e9565b9250828201905080821115610d9f57610d9e610d45565b5b92915050565b5f819050919050565b610db781610da5565b82525050565b828183375f83830152505050565b5f601f19601f8301169050919050565b5f610de68385610b25565b9350610df3838584610dbd565b610dfc83610dcb565b840190509392505050565b5f67ffffffffffffffff82169050919050565b5f610e34610e2f610e2a84610be7565b61091a565b610e07565b9050919050565b610e4481610e1a565b82525050565b5f63ffffffff82169050919050565b610e6281610e4a565b82525050565b610e7181610e07565b82525050565b5f60e082019050610e8a5f83018b610dae565b8181036020830152610e9d81898b610ddb565b9050610eac60408301886108c1565b610eb960608301876108c1565b610ec66080830186610e3b565b610ed360a0830185610e59565b610ee060c0830184610e68565b9998505050505050505050565b5f6020820190508181035f830152610f06818486610ddb565b9050939250505056fea2646970667358221220907555bb275f6fca6c9388157c7b2e7d80f5ba51ea8c6bbff6b48b9302f28cb564736f6c634300081a0033",
					"opcodes": "PUSH1 0x80 PUSH1 0x40 MSTORE PUSH1 0x40 MLOAD PUSH2 0x121C CODESIZE SUB DUP1 PUSH2 0x121C DUP4 CODECOPY DUP2 DUP2 ADD PUSH1 0x40 MSTORE DUP2 ADD SWAP1 PUSH2 0x25 SWAP2 SWAP1 PUSH2 0x241 JUMP JUMPDEST DUP6 PUSH0 DUP1 PUSH2 0x100 EXP DUP2 SLOAD DUP2 PUSH20 0xFFFFFFFFFFFFFFFFFFFFFFFFFFFFFFFFFFFFFFFF MUL NOT AND SWAP1 DUP4 PUSH20 0xFFFFFFFFFFFFFFFFFFFFFFFFFFFFFFFFFFFFFFFF AND MUL OR SWAP1 SSTORE POP DUP5 PUSH1 0x1 PUSH0 PUSH2 0x100 EXP DUP2 SLOAD DUP2 PUSH20 0xFFFFFFFFFFFFFFFFFFFFFFFFFFFFFFFFFFFFFFFF MUL NOT AND SWAP1 DUP4 PUSH20 0xFFFFFFFFFFFFFFFFFFFFFFFFFFFFFFFFFFFFFFFF AND MUL OR SWAP1 SSTORE POP DUP4 PUSH1 0x2 PUSH0 PUSH2 0x100 EXP DUP2 SLOAD DUP2 PUSH20 0xFFFFFFFFFFFFFFFFFFFFFFFFFFFFFFFFFFFFFFFF MUL NOT AND SWAP1 DUP4 PUSH20 0xFFFFFFFFFFFFFFFFFFFFFFFFFFFFFFFFFFFFFFFF AND MUL OR SWAP1 SSTORE POP DUP3 PUSH1 0x6 DUP2 SWAP1 SSTORE POP DUP2 PUSH1 0x3 DUP2 SWAP1 SSTORE POP DUP1 PUSH1 0x4 PUSH0 PUSH2 0x100 EXP DUP2 SLOAD DUP2 PUSH20 0xFFFFFFFFFFFFFFFFFFFFFFFFFFFFFFFFFFFFFFFF MUL NOT AND SWAP1 DUP4 PUSH20 0xFFFFFFFFFFFFFFFFFFFFFFFFFFFFFFFFFFFFFFFF AND MUL OR SWAP1 SSTORE POP CALLER PUSH1 0x5 PUSH0 PUSH2 0x100 EXP DUP2 SLOAD DUP2 PUSH20 0xFFFFFFFFFFFFFFFFFFFFFFFFFFFFFFFFFFFFFFFF MUL NOT AND SWAP1 DUP4 PUSH20 0xFFFFFFFFFFFFFFFFFFFFFFFFFFFFFFFFFFFFFFFF AND MUL OR SWAP1 SSTORE POP POP POP POP POP POP POP PUSH2 0x2CA JUMP JUMPDEST PUSH0 DUP1 REVERT JUMPDEST PUSH0 PUSH20 0xFFFFFFFFFFFFFFFFFFFFFFFFFFFFFFFFFFFFFFFF DUP3 AND SWAP1 POP SWAP2 SWAP1 POP JUMP JUMPDEST PUSH0 PUSH2 0x1AA DUP3 PUSH2 0x181 JUMP JUMPDEST SWAP1 POP SWAP2 SWAP1 POP JUMP JUMPDEST PUSH2 0x1BA DUP2 PUSH2 0x1A0 JUMP JUMPDEST DUP2 EQ PUSH2 0x1C4 JUMPI PUSH0 DUP1 REVERT JUMPDEST POP JUMP JUMPDEST PUSH0 DUP2 MLOAD SWAP1 POP PUSH2 0x1D5 DUP2 PUSH2 0x1B1 JUMP JUMPDEST SWAP3 SWAP2 POP POP JUMP JUMPDEST PUSH0 DUP2 SWAP1 POP SWAP2 SWAP1 POP JUMP JUMPDEST PUSH2 0x1ED DUP2 PUSH2 0x1DB JUMP JUMPDEST DUP2 EQ PUSH2 0x1F7 JUMPI PUSH0 DUP1 REVERT JUMPDEST POP JUMP JUMPDEST PUSH0 DUP2 MLOAD SWAP1 POP PUSH2 0x208 DUP2 PUSH2 0x1E4 JUMP JUMPDEST SWAP3 SWAP2 POP POP JUMP JUMPDEST PUSH0 DUP2 SWAP1 POP SWAP2 SWAP1 POP JUMP JUMPDEST PUSH2 0x220 DUP2 PUSH2 0x20E JUMP JUMPDEST DUP2 EQ PUSH2 0x22A JUMPI PUSH0 DUP1 REVERT JUMPDEST POP JUMP JUMPDEST PUSH0 DUP2 MLOAD SWAP1 POP PUSH2 0x23B DUP2 PUSH2 0x217 JUMP JUMPDEST SWAP3 SWAP2 POP POP JUMP JUMPDEST PUSH0 DUP1 PUSH0 DUP1 PUSH0 DUP1 PUSH1 0xC0 DUP8 DUP10 SUB SLT ISZERO PUSH2 0x25B JUMPI PUSH2 0x25A PUSH2 0x17D JUMP JUMPDEST JUMPDEST PUSH0 PUSH2 0x268 DUP10 DUP3 DUP11 ADD PUSH2 0x1C7 JUMP JUMPDEST SWAP7 POP POP PUSH1 0x20 PUSH2 0x279 DUP10 DUP3 DUP11 ADD PUSH2 0x1C7 JUMP JUMPDEST SWAP6 POP POP PUSH1 0x40 PUSH2 0x28A DUP10 DUP3 DUP11 ADD PUSH2 0x1C7 JUMP JUMPDEST SWAP5 POP POP PUSH1 0x60 PUSH2 0x29B DUP10 DUP3 DUP11 ADD PUSH2 0x1FA JUMP JUMPDEST SWAP4 POP POP PUSH1 0x80 PUSH2 0x2AC DUP10 DUP3 DUP11 ADD PUSH2 0x22D JUMP JUMPDEST SWAP3 POP POP PUSH1 0xA0 PUSH2 0x2BD DUP10 DUP3 DUP11 ADD PUSH2 0x1C7 JUMP JUMPDEST SWAP2 POP POP SWAP3 SWAP6 POP SWAP3 SWAP6 POP SWAP3 SWAP6 JUMP JUMPDEST PUSH2 0xF45 DUP1 PUSH2 0x2D7 PUSH0 CODECOPY PUSH0 RETURN INVALID PUSH1 0x80 PUSH1 0x40 MSTORE PUSH1 0x4 CALLDATASIZE LT PUSH2 0x90 JUMPI PUSH0 CALLDATALOAD PUSH1 0xE0 SHR DUP1 PUSH4 0xAB2397EB GT PUSH2 0x58 JUMPI DUP1 PUSH4 0xAB2397EB EQ PUSH2 0x152 JUMPI DUP1 PUSH4 0xC2C589F0 EQ PUSH2 0x168 JUMPI DUP1 PUSH4 0xC320C727 EQ PUSH2 0x192 JUMPI DUP1 PUSH4 0xE74B981B EQ PUSH2 0x1BA JUMPI DUP1 PUSH4 0xF2C298BE EQ PUSH2 0x1E2 JUMPI PUSH2 0x90 JUMP JUMPDEST DUP1 PUSH4 0x4F3BCEC EQ PUSH2 0x94 JUMPI DUP1 PUSH4 0x14C44E09 EQ PUSH2 0xBE JUMPI DUP1 PUSH4 0x46904840 EQ PUSH2 0xE8 JUMPI DUP1 PUSH4 0x7BF8F27A EQ PUSH2 0x112 JUMPI DUP1 PUSH4 0xA8E5FBC0 EQ PUSH2 0x128 JUMPI JUMPDEST PUSH0 DUP1 REVERT JUMPDEST CALLVALUE DUP1 ISZERO PUSH2 0x9F JUMPI PUSH0 DUP1 REVERT JUMPDEST POP PUSH2 0xA8 PUSH2 0x1FE JUMP JUMPDEST PUSH1 0x40 MLOAD PUSH2 0xB5 SWAP2 SWAP1 PUSH2 0x8D0 JUMP JUMPDEST PUSH1 0x40 MLOAD DUP1 SWAP2 SUB SWAP1 RETURN JUMPDEST CALLVALUE DUP1 ISZERO PUSH2 0xC9 JUMPI PUSH0 DUP1 REVERT JUMPDEST POP PUSH2 0xD2 PUSH2 0x223 JUMP JUMPDEST PUSH1 0x40 MLOAD PUSH2 0xDF SWAP2 SWAP1 PUSH2 0x901 JUMP JUMPDEST PUSH1 0x40 MLOAD DUP1 SWAP2 SUB SWAP1 RETURN JUMPDEST CALLVALUE DUP1 ISZERO PUSH2 0xF3 JUMPI PUSH0 DUP1 REVERT JUMPDEST POP PUSH2 0xFC PUSH2 0x229 JUMP JUMPDEST PUSH1 0x40 MLOAD PUSH2 0x109 SWAP2 SWAP1 PUSH2 0x8D0 JUMP JUMPDEST PUSH1 0x40 MLOAD DUP1 SWAP2 SUB SWAP1 RETURN JUMPDEST CALLVALUE DUP1 ISZERO PUSH2 0x11D JUMPI PUSH0 DUP1 REVERT JUMPDEST POP PUSH2 0x126 PUSH2 0x24E JUMP JUMPDEST STOP JUMPDEST CALLVALUE DUP1 ISZERO PUSH2 0x133 JUMPI PUSH0 DUP1 REVERT JUMPDEST POP PUSH2 0x13C PUSH2 0x389 JUMP JUMPDEST PUSH1 0x40 MLOAD PUSH2 0x149 SWAP2 SWAP1 PUSH2 0x975 JUMP JUMPDEST PUSH1 0x40 MLOAD DUP1 SWAP2 SUB SWAP1 RETURN JUMPDEST CALLVALUE DUP1 ISZERO PUSH2 0x15D JUMPI PUSH0 DUP1 REVERT JUMPDEST POP PUSH2 0x166 PUSH2 0x3AC JUMP JUMPDEST STOP JUMPDEST CALLVALUE DUP1 ISZERO PUSH2 0x173 JUMPI PUSH0 DUP1 REVERT JUMPDEST POP PUSH2 0x17C PUSH2 0x4E6 JUMP JUMPDEST PUSH1 0x40 MLOAD PUSH2 0x189 SWAP2 SWAP1 PUSH2 0x9AE JUMP JUMPDEST PUSH1 0x40 MLOAD DUP1 SWAP2 SUB SWAP1 RETURN JUMPDEST CALLVALUE DUP1 ISZERO PUSH2 0x19D JUMPI PUSH0 DUP1 REVERT JUMPDEST POP PUSH2 0x1B8 PUSH1 0x4 DUP1 CALLDATASIZE SUB DUP2 ADD SWAP1 PUSH2 0x1B3 SWAP2 SWAP1 PUSH2 0x9F9 JUMP JUMPDEST PUSH2 0x50B JUMP JUMPDEST STOP JUMPDEST CALLVALUE DUP1 ISZERO PUSH2 0x1C5 JUMPI PUSH0 DUP1 REVERT JUMPDEST POP PUSH2 0x1E0 PUSH1 0x4 DUP1 CALLDATASIZE SUB DUP2 ADD SWAP1 PUSH2 0x1DB SWAP2 SWAP1 PUSH2 0xA4E JUMP JUMPDEST PUSH2 0x5A4 JUMP JUMPDEST STOP JUMPDEST PUSH2 0x1FC PUSH1 0x4 DUP1 CALLDATASIZE SUB DUP2 ADD SWAP1 PUSH2 0x1F7 SWAP2 SWAP1 PUSH2 0xADA JUMP JUMPDEST PUSH2 0x676 JUMP JUMPDEST STOP JUMPDEST PUSH1 0x2 PUSH0 SWAP1 SLOAD SWAP1 PUSH2 0x100 EXP SWAP1 DIV PUSH20 0xFFFFFFFFFFFFFFFFFFFFFFFFFFFFFFFFFFFFFFFF AND DUP2 JUMP JUMPDEST PUSH1 0x3 SLOAD DUP2 JUMP JUMPDEST PUSH1 0x4 PUSH0 SWAP1 SLOAD SWAP1 PUSH2 0x100 EXP SWAP1 DIV PUSH20 0xFFFFFFFFFFFFFFFFFFFFFFFFFFFFFFFFFFFFFFFF AND DUP2 JUMP JUMPDEST PUSH1 0x5 PUSH0 SWAP1 SLOAD SWAP1 PUSH2 0x100 EXP SWAP1 DIV PUSH20 0xFFFFFFFFFFFFFFFFFFFFFFFFFFFFFFFFFFFFFFFF AND PUSH20 0xFFFFFFFFFFFFFFFFFFFFFFFFFFFFFFFFFFFFFFFF AND CALLER PUSH20 0xFFFFFFFFFFFFFFFFFFFFFFFFFFFFFFFFFFFFFFFF AND EQ PUSH2 0x2DD JUMPI PUSH1 0x40 MLOAD PUSH32 0x8C379A000000000000000000000000000000000000000000000000000000000 DUP2 MSTORE PUSH1 0x4 ADD PUSH2 0x2D4 SWAP1 PUSH2 0xB7F JUMP JUMPDEST PUSH1 0x40 MLOAD DUP1 SWAP2 SUB SWAP1 REVERT JUMPDEST PUSH0 DUP1 SLOAD SWAP1 PUSH2 0x100 EXP SWAP1 DIV PUSH20 0xFFFFFFFFFFFFFFFFFFFFFFFFFFFFFFFFFFFFFFFF AND PUSH20 0xFFFFFFFFFFFFFFFFFFFFFFFFFFFFFFFFFFFFFFFF AND PUSH4 0x8CF8B41E ADDRESS PUSH0 PUSH1 0x2 PUSH0 SWAP1 SLOAD SWAP1 PUSH2 0x100 EXP SWAP1 DIV PUSH20 0xFFFFFFFFFFFFFFFFFFFFFFFFFFFFFFFFFFFFFFFF AND PUSH1 0x40 MLOAD DUP5 PUSH4 0xFFFFFFFF AND PUSH1 0xE0 SHL DUP2 MSTORE PUSH1 0x4 ADD PUSH2 0x35A SWAP4 SWAP3 SWAP2 SWAP1 PUSH2 0xC2D JUMP JUMPDEST PUSH0 PUSH1 0x40 MLOAD DUP1 DUP4 SUB DUP2 PUSH0 DUP8 DUP1 EXTCODESIZE ISZERO DUP1 ISZERO PUSH2 0x371 JUMPI PUSH0 DUP1 REVERT JUMPDEST POP GAS CALL ISZERO DUP1 ISZERO PUSH2 0x383 JUMPI RETURNDATASIZE PUSH0 DUP1 RETURNDATACOPY RETURNDATASIZE PUSH0 REVERT JUMPDEST POP POP POP POP JUMP JUMPDEST PUSH0 DUP1 SLOAD SWAP1 PUSH2 0x100 EXP SWAP1 DIV PUSH20 0xFFFFFFFFFFFFFFFFFFFFFFFFFFFFFFFFFFFFFFFF AND DUP2 JUMP JUMPDEST PUSH1 0x5 PUSH0 SWAP1 SLOAD SWAP1 PUSH2 0x100 EXP SWAP1 DIV PUSH20 0xFFFFFFFFFFFFFFFFFFFFFFFFFFFFFFFFFFFFFFFF AND PUSH20 0xFFFFFFFFFFFFFFFFFFFFFFFFFFFFFFFFFFFFFFFF AND CALLER PUSH20 0xFFFFFFFFFFFFFFFFFFFFFFFFFFFFFFFFFFFFFFFF AND EQ PUSH2 0x43B JUMPI PUSH1 0x40 MLOAD PUSH32 0x8C379A000000000000000000000000000000000000000000000000000000000 DUP2 MSTORE PUSH1 0x4 ADD PUSH2 0x432 SWAP1 PUSH2 0xB7F JUMP JUMPDEST PUSH1 0x40 MLOAD DUP1 SWAP2 SUB SWAP1 REVERT JUMPDEST PUSH1 0x1 PUSH0 SWAP1 SLOAD SWAP1 PUSH2 0x100 EXP SWAP1 DIV PUSH20 0xFFFFFFFFFFFFFFFFFFFFFFFFFFFFFFFFFFFFFFFF AND PUSH20 0xFFFFFFFFFFFFFFFFFFFFFFFFFFFFFFFFFFFFFFFF AND PUSH4 0xA22CB465 PUSH0 DUP1 SLOAD SWAP1 PUSH2 0x100 EXP SWAP1 DIV PUSH20 0xFFFFFFFFFFFFFFFFFFFFFFFFFFFFFFFFFFFFFFFF AND PUSH1 0x1 PUSH1 0x40 MLOAD DUP4 PUSH4 0xFFFFFFFF AND PUSH1 0xE0 SHL DUP2 MSTORE PUSH1 0x4 ADD PUSH2 0x4B7 SWAP3 SWAP2 SWAP1 PUSH2 0xC8F JUMP JUMPDEST PUSH0 PUSH1 0x40 MLOAD DUP1 DUP4 SUB DUP2 PUSH0 DUP8 DUP1 EXTCODESIZE ISZERO DUP1 ISZERO PUSH2 0x4CE JUMPI PUSH0 DUP1 REVERT JUMPDEST POP GAS CALL ISZERO DUP1 ISZERO PUSH2 0x4E0 JUMPI RETURNDATASIZE PUSH0 DUP1 RETURNDATACOPY RETURNDATASIZE PUSH0 REVERT JUMPDEST POP POP POP POP JUMP JUMPDEST PUSH1 0x1 PUSH0 SWAP1 SLOAD SWAP1 PUSH2 0x100 EXP SWAP1 DIV PUSH20 0xFFFFFFFFFFFFFFFFFFFFFFFFFFFFFFFFFFFFFFFF AND DUP2 JUMP JUMPDEST PUSH1 0x5 PUSH0 SWAP1 SLOAD SWAP1 PUSH2 0x100 EXP SWAP1 DIV PUSH20 0xFFFFFFFFFFFFFFFFFFFFFFFFFFFFFFFFFFFFFFFF AND PUSH20 0xFFFFFFFFFFFFFFFFFFFFFFFFFFFFFFFFFFFFFFFF AND CALLER PUSH20 0xFFFFFFFFFFFFFFFFFFFFFFFFFFFFFFFFFFFFFFFF AND EQ PUSH2 0x59A JUMPI PUSH1 0x40 MLOAD PUSH32 0x8C379A000000000000000000000000000000000000000000000000000000000 DUP2 MSTORE PUSH1 0x4 ADD PUSH2 0x591 SWAP1 PUSH2 0xB7F JUMP JUMPDEST PUSH1 0x40 MLOAD DUP1 SWAP2 SUB SWAP1 REVERT JUMPDEST DUP1 PUSH1 0x3 DUP2 SWAP1 SSTORE POP POP JUMP JUMPDEST PUSH1 0x5 PUSH0 SWAP1 SLOAD SWAP1 PUSH2 0x100 EXP SWAP1 DIV PUSH20 0xFFFFFFFFFFFFFFFFFFFFFFFFFFFFFFFFFFFFFFFF AND PUSH20 0xFFFFFFFFFFFFFFFFFFFFFFFFFFFFFFFFFFFFFFFF AND CALLER PUSH20 0xFFFFFFFFFFFFFFFFFFFFFFFFFFFFFFFFFFFFFFFF AND EQ PUSH2 0x633 JUMPI PUSH1 0x40 MLOAD PUSH32 0x8C379A000000000000000000000000000000000000000000000000000000000 DUP2 MSTORE PUSH1 0x4 ADD PUSH2 0x62A SWAP1 PUSH2 0xB7F JUMP JUMPDEST PUSH1 0x40 MLOAD DUP1 SWAP2 SUB SWAP1 REVERT JUMPDEST DUP1 PUSH1 0x4 PUSH0 PUSH2 0x100 EXP DUP2 SLOAD DUP2 PUSH20 0xFFFFFFFFFFFFFFFFFFFFFFFFFFFFFFFFFFFFFFFF MUL NOT AND SWAP1 DUP4 PUSH20 0xFFFFFFFFFFFFFFFFFFFFFFFFFFFFFFFFFFFFFFFF AND MUL OR SWAP1 SSTORE POP POP JUMP JUMPDEST PUSH32 0x6709F8C20CAB685A0BC846FD193679B20DC9A5D814DFABFEF5C66CE0564F5460 CALLVALUE PUSH1 0x3 SLOAD PUSH1 0x40 MLOAD PUSH2 0x6A9 SWAP3 SWAP2 SWAP1 PUSH2 0xCB6 JUMP JUMPDEST PUSH1 0x40 MLOAD DUP1 SWAP2 SUB SWAP1 LOG1 PUSH1 0x3 SLOAD CALLVALUE LT ISZERO PUSH2 0x6F6 JUMPI PUSH1 0x40 MLOAD PUSH32 0x8C379A000000000000000000000000000000000000000000000000000000000 DUP2 MSTORE PUSH1 0x4 ADD PUSH2 0x6ED SWAP1 PUSH2 0xD27 JUMP JUMPDEST PUSH1 0x40 MLOAD DUP1 SWAP2 SUB SWAP1 REVERT JUMPDEST PUSH0 PUSH1 0x3 SLOAD GT ISZERO PUSH2 0x768 JUMPI PUSH1 0x4 PUSH0 SWAP1 SLOAD SWAP1 PUSH2 0x100 EXP SWAP1 DIV PUSH20 0xFFFFFFFFFFFFFFFFFFFFFFFFFFFFFFFFFFFFFFFF AND PUSH20 0xFFFFFFFFFFFFFFFFFFFFFFFFFFFFFFFFFFFFFFFF AND PUSH2 0x8FC PUSH1 0x3 SLOAD SWAP1 DUP2 ISZERO MUL SWAP1 PUSH1 0x40 MLOAD PUSH0 PUSH1 0x40 MLOAD DUP1 DUP4 SUB DUP2 DUP6 DUP9 DUP9 CALL SWAP4 POP POP POP POP ISZERO DUP1 ISZERO PUSH2 0x766 JUMPI RETURNDATASIZE PUSH0 DUP1 RETURNDATACOPY RETURNDATASIZE PUSH0 REVERT JUMPDEST POP JUMPDEST PUSH0 PUSH3 0x50000 SWAP1 POP PUSH0 PUSH4 0x1E13380 TIMESTAMP PUSH2 0x780 SWAP2 SWAP1 PUSH2 0xD72 JUMP JUMPDEST SWAP1 POP PUSH0 DUP1 SLOAD SWAP1 PUSH2 0x100 EXP SWAP1 DIV PUSH20 0xFFFFFFFFFFFFFFFFFFFFFFFFFFFFFFFFFFFFFFFF AND PUSH20 0xFFFFFFFFFFFFFFFFFFFFFFFFFFFFFFFFFFFFFFFF AND PUSH4 0x24C1AF44 PUSH1 0x6 SLOAD DUP7 DUP7 CALLER PUSH1 0x2 PUSH0 SWAP1 SLOAD SWAP1 PUSH2 0x100 EXP SWAP1 DIV PUSH20 0xFFFFFFFFFFFFFFFFFFFFFFFFFFFFFFFFFFFFFFFF AND PUSH0 DUP10 DUP10 PUSH1 0x40 MLOAD DUP10 PUSH4 0xFFFFFFFF AND PUSH1 0xE0 SHL DUP2 MSTORE PUSH1 0x4 ADD PUSH2 0x80B SWAP9 SWAP8 SWAP7 SWAP6 SWAP5 SWAP4 SWAP3 SWAP2 SWAP1 PUSH2 0xE77 JUMP JUMPDEST PUSH0 PUSH1 0x40 MLOAD DUP1 DUP4 SUB DUP2 PUSH0 DUP8 DUP1 EXTCODESIZE ISZERO DUP1 ISZERO PUSH2 0x822 JUMPI PUSH0 DUP1 REVERT JUMPDEST POP GAS CALL ISZERO DUP1 ISZERO PUSH2 0x834 JUMPI RETURNDATASIZE PUSH0 DUP1 RETURNDATACOPY RETURNDATASIZE PUSH0 REVERT JUMPDEST POP POP POP POP CALLER PUSH20 0xFFFFFFFFFFFFFFFFFFFFFFFFFFFFFFFFFFFFFFFF AND PUSH1 0x6 SLOAD PUSH32 0x38506B5A4C15FA3526645437424431E9107DEBED02363450779158FA3713BE63 DUP7 DUP7 PUSH1 0x40 MLOAD PUSH2 0x883 SWAP3 SWAP2 SWAP1 PUSH2 0xEED JUMP JUMPDEST PUSH1 0x40 MLOAD DUP1 SWAP2 SUB SWAP1 LOG3 POP POP POP POP JUMP JUMPDEST PUSH0 PUSH20 0xFFFFFFFFFFFFFFFFFFFFFFFFFFFFFFFFFFFFFFFF DUP3 AND SWAP1 POP SWAP2 SWAP1 POP JUMP JUMPDEST PUSH0 PUSH2 0x8BA DUP3 PUSH2 0x891 JUMP JUMPDEST SWAP1 POP SWAP2 SWAP1 POP JUMP JUMPDEST PUSH2 0x8CA DUP2 PUSH2 0x8B0 JUMP JUMPDEST DUP3 MSTORE POP POP JUMP JUMPDEST PUSH0 PUSH1 0x20 DUP3 ADD SWAP1 POP PUSH2 0x8E3 PUSH0 DUP4 ADD DUP5 PUSH2 0x8C1 JUMP JUMPDEST SWAP3 SWAP2 POP POP JUMP JUMPDEST PUSH0 DUP2 SWAP1 POP SWAP2 SWAP1 POP JUMP JUMPDEST PUSH2 0x8FB DUP2 PUSH2 0x8E9 JUMP JUMPDEST DUP3 MSTORE POP POP JUMP JUMPDEST PUSH0 PUSH1 0x20 DUP3 ADD SWAP1 POP PUSH2 0x914 PUSH0 DUP4 ADD DUP5 PUSH2 0x8F2 JUMP JUMPDEST SWAP3 SWAP2 POP POP JUMP JUMPDEST PUSH0 DUP2 SWAP1 POP SWAP2 SWAP1 POP JUMP JUMPDEST PUSH0 PUSH2 0x93D PUSH2 0x938 PUSH2 0x933 DUP5 PUSH2 0x891 JUMP JUMPDEST PUSH2 0x91A JUMP JUMPDEST PUSH2 0x891 JUMP JUMPDEST SWAP1 POP SWAP2 SWAP1 POP JUMP JUMPDEST PUSH0 PUSH2 0x94E DUP3 PUSH2 0x923 JUMP JUMPDEST SWAP1 POP SWAP2 SWAP1 POP JUMP JUMPDEST PUSH0 PUSH2 0x95F DUP3 PUSH2 0x944 JUMP JUMPDEST SWAP1 POP SWAP2 SWAP1 POP JUMP JUMPDEST PUSH2 0x96F DUP2 PUSH2 0x955 JUMP JUMPDEST DUP3 MSTORE POP POP JUMP JUMPDEST PUSH0 PUSH1 0x20 DUP3 ADD SWAP1 POP PUSH2 0x988 PUSH0 DUP4 ADD DUP5 PUSH2 0x966 JUMP JUMPDEST SWAP3 SWAP2 POP POP JUMP JUMPDEST PUSH0 PUSH2 0x998 DUP3 PUSH2 0x944 JUMP JUMPDEST SWAP1 POP SWAP2 SWAP1 POP JUMP JUMPDEST PUSH2 0x9A8 DUP2 PUSH2 0x98E JUMP JUMPDEST DUP3 MSTORE POP POP JUMP JUMPDEST PUSH0 PUSH1 0x20 DUP3 ADD SWAP1 POP PUSH2 0x9C1 PUSH0 DUP4 ADD DUP5 PUSH2 0x99F JUMP JUMPDEST SWAP3 SWAP2 POP POP JUMP JUMPDEST PUSH0 DUP1 REVERT JUMPDEST PUSH0 DUP1 REVERT JUMPDEST PUSH2 0x9D8 DUP2 PUSH2 0x8E9 JUMP JUMPDEST DUP2 EQ PUSH2 0x9E2 JUMPI PUSH0 DUP1 REVERT JUMPDEST POP JUMP JUMPDEST PUSH0 DUP2 CALLDATALOAD SWAP1 POP PUSH2 0x9F3 DUP2 PUSH2 0x9CF JUMP JUMPDEST SWAP3 SWAP2 POP POP JUMP JUMPDEST PUSH0 PUSH1 0x20 DUP3 DUP5 SUB SLT ISZERO PUSH2 0xA0E JUMPI PUSH2 0xA0D PUSH2 0x9C7 JUMP JUMPDEST JUMPDEST PUSH0 PUSH2 0xA1B DUP5 DUP3 DUP6 ADD PUSH2 0x9E5 JUMP JUMPDEST SWAP2 POP POP SWAP3 SWAP2 POP POP JUMP JUMPDEST PUSH2 0xA2D DUP2 PUSH2 0x8B0 JUMP JUMPDEST DUP2 EQ PUSH2 0xA37 JUMPI PUSH0 DUP1 REVERT JUMPDEST POP JUMP JUMPDEST PUSH0 DUP2 CALLDATALOAD SWAP1 POP PUSH2 0xA48 DUP2 PUSH2 0xA24 JUMP JUMPDEST SWAP3 SWAP2 POP POP JUMP JUMPDEST PUSH0 PUSH1 0x20 DUP3 DUP5 SUB SLT ISZERO PUSH2 0xA63 JUMPI PUSH2 0xA62 PUSH2 0x9C7 JUMP JUMPDEST JUMPDEST PUSH0 PUSH2 0xA70 DUP5 DUP3 DUP6 ADD PUSH2 0xA3A JUMP JUMPDEST SWAP2 POP POP SWAP3 SWAP2 POP POP JUMP JUMPDEST PUSH0 DUP1 REVERT JUMPDEST PUSH0 DUP1 REVERT JUMPDEST PUSH0 DUP1 REVERT JUMPDEST PUSH0 DUP1 DUP4 PUSH1 0x1F DUP5 ADD SLT PUSH2 0xA9A JUMPI PUSH2 0xA99 PUSH2 0xA79 JUMP JUMPDEST JUMPDEST DUP3 CALLDATALOAD SWAP1 POP PUSH8 0xFFFFFFFFFFFFFFFF DUP2 GT ISZERO PUSH2 0xAB7 JUMPI PUSH2 0xAB6 PUSH2 0xA7D JUMP JUMPDEST JUMPDEST PUSH1 0x20 DUP4 ADD SWAP2 POP DUP4 PUSH1 0x1 DUP3 MUL DUP4 ADD GT ISZERO PUSH2 0xAD3 JUMPI PUSH2 0xAD2 PUSH2 0xA81 JUMP JUMPDEST JUMPDEST SWAP3 POP SWAP3 SWAP1 POP JUMP JUMPDEST PUSH0 DUP1 PUSH1 0x20 DUP4 DUP6 SUB SLT ISZERO PUSH2 0xAF0 JUMPI PUSH2 0xAEF PUSH2 0x9C7 JUMP JUMPDEST JUMPDEST PUSH0 DUP4 ADD CALLDATALOAD PUSH8 0xFFFFFFFFFFFFFFFF DUP2 GT ISZERO PUSH2 0xB0D JUMPI PUSH2 0xB0C PUSH2 0x9CB JUMP JUMPDEST JUMPDEST PUSH2 0xB19 DUP6 DUP3 DUP7 ADD PUSH2 0xA85 JUMP JUMPDEST SWAP3 POP SWAP3 POP POP SWAP3 POP SWAP3 SWAP1 POP JUMP JUMPDEST PUSH0 DUP3 DUP3 MSTORE PUSH1 0x20 DUP3 ADD SWAP1 POP SWAP3 SWAP2 POP POP JUMP JUMPDEST PUSH32 0x4E6F74206F776E65720000000000000000000000000000000000000000000000 PUSH0 DUP3 ADD MSTORE POP JUMP JUMPDEST PUSH0 PUSH2 0xB69 PUSH1 0x9 DUP4 PUSH2 0xB25 JUMP JUMPDEST SWAP2 POP PUSH2 0xB74 DUP3 PUSH2 0xB35 JUMP JUMPDEST PUSH1 0x20 DUP3 ADD SWAP1 POP SWAP2 SWAP1 POP JUMP JUMPDEST PUSH0 PUSH1 0x20 DUP3 ADD SWAP1 POP DUP2 DUP2 SUB PUSH0 DUP4 ADD MSTORE PUSH2 0xB96 DUP2 PUSH2 0xB5D JUMP JUMPDEST SWAP1 POP SWAP2 SWAP1 POP JUMP JUMPDEST PUSH32 0x74616C6861000000000000000000000000000000000000000000000000000000 PUSH0 DUP3 ADD MSTORE POP JUMP JUMPDEST PUSH0 PUSH2 0xBD1 PUSH1 0x5 DUP4 PUSH2 0xB25 JUMP JUMPDEST SWAP2 POP PUSH2 0xBDC DUP3 PUSH2 0xB9D JUMP JUMPDEST PUSH1 0x20 DUP3 ADD SWAP1 POP SWAP2 SWAP1 POP JUMP JUMPDEST PUSH0 DUP2 SWAP1 POP SWAP2 SWAP1 POP JUMP JUMPDEST PUSH0 PUSH2 0xFFFF DUP3 AND SWAP1 POP SWAP2 SWAP1 POP JUMP JUMPDEST PUSH0 PUSH2 0xC17 PUSH2 0xC12 PUSH2 0xC0D DUP5 PUSH2 0xBE7 JUMP JUMPDEST PUSH2 0x91A JUMP JUMPDEST PUSH2 0xBF0 JUMP JUMPDEST SWAP1 POP SWAP2 SWAP1 POP JUMP JUMPDEST PUSH2 0xC27 DUP2 PUSH2 0xBFD JUMP JUMPDEST DUP3 MSTORE POP POP JUMP JUMPDEST PUSH0 PUSH1 0x80 DUP3 ADD SWAP1 POP DUP2 DUP2 SUB PUSH0 DUP4 ADD MSTORE PUSH2 0xC44 DUP2 PUSH2 0xBC5 JUMP JUMPDEST SWAP1 POP PUSH2 0xC53 PUSH1 0x20 DUP4 ADD DUP7 PUSH2 0x8C1 JUMP JUMPDEST PUSH2 0xC60 PUSH1 0x40 DUP4 ADD DUP6 PUSH2 0xC1E JUMP JUMPDEST PUSH2 0xC6D PUSH1 0x60 DUP4 ADD DUP5 PUSH2 0x8C1 JUMP JUMPDEST SWAP5 SWAP4 POP POP POP POP JUMP JUMPDEST PUSH0 DUP2 ISZERO ISZERO SWAP1 POP SWAP2 SWAP1 POP JUMP JUMPDEST PUSH2 0xC89 DUP2 PUSH2 0xC75 JUMP JUMPDEST DUP3 MSTORE POP POP JUMP JUMPDEST PUSH0 PUSH1 0x40 DUP3 ADD SWAP1 POP PUSH2 0xCA2 PUSH0 DUP4 ADD DUP6 PUSH2 0x8C1 JUMP JUMPDEST PUSH2 0xCAF PUSH1 0x20 DUP4 ADD DUP5 PUSH2 0xC80 JUMP JUMPDEST SWAP4 SWAP3 POP POP POP JUMP JUMPDEST PUSH0 PUSH1 0x40 DUP3 ADD SWAP1 POP PUSH2 0xCC9 PUSH0 DUP4 ADD DUP6 PUSH2 0x8F2 JUMP JUMPDEST PUSH2 0xCD6 PUSH1 0x20 DUP4 ADD DUP5 PUSH2 0x8F2 JUMP JUMPDEST SWAP4 SWAP3 POP POP POP JUMP JUMPDEST PUSH32 0x496E73756666696369656E7420726567697374726174696F6E20666565000000 PUSH0 DUP3 ADD MSTORE POP JUMP JUMPDEST PUSH0 PUSH2 0xD11 PUSH1 0x1D DUP4 PUSH2 0xB25 JUMP JUMPDEST SWAP2 POP PUSH2 0xD1C DUP3 PUSH2 0xCDD JUMP JUMPDEST PUSH1 0x20 DUP3 ADD SWAP1 POP SWAP2 SWAP1 POP JUMP JUMPDEST PUSH0 PUSH1 0x20 DUP3 ADD SWAP1 POP DUP2 DUP2 SUB PUSH0 DUP4 ADD MSTORE PUSH2 0xD3E DUP2 PUSH2 0xD05 JUMP JUMPDEST SWAP1 POP SWAP2 SWAP1 POP JUMP JUMPDEST PUSH32 0x4E487B7100000000000000000000000000000000000000000000000000000000 PUSH0 MSTORE PUSH1 0x11 PUSH1 0x4 MSTORE PUSH1 0x24 PUSH0 REVERT JUMPDEST PUSH0 PUSH2 0xD7C DUP3 PUSH2 0x8E9 JUMP JUMPDEST SWAP2 POP PUSH2 0xD87 DUP4 PUSH2 0x8E9 JUMP JUMPDEST SWAP3 POP DUP3 DUP3 ADD SWAP1 POP DUP1 DUP3 GT ISZERO PUSH2 0xD9F JUMPI PUSH2 0xD9E PUSH2 0xD45 JUMP JUMPDEST JUMPDEST SWAP3 SWAP2 POP POP JUMP JUMPDEST PUSH0 DUP2 SWAP1 POP SWAP2 SWAP1 POP JUMP JUMPDEST PUSH2 0xDB7 DUP2 PUSH2 0xDA5 JUMP JUMPDEST DUP3 MSTORE POP POP JUMP JUMPDEST DUP3 DUP2 DUP4 CALLDATACOPY PUSH0 DUP4 DUP4 ADD MSTORE POP POP POP JUMP JUMPDEST PUSH0 PUSH1 0x1F NOT PUSH1 0x1F DUP4 ADD AND SWAP1 POP SWAP2 SWAP1 POP JUMP JUMPDEST PUSH0 PUSH2 0xDE6 DUP4 DUP6 PUSH2 0xB25 JUMP JUMPDEST SWAP4 POP PUSH2 0xDF3 DUP4 DUP6 DUP5 PUSH2 0xDBD JUMP JUMPDEST PUSH2 0xDFC DUP4 PUSH2 0xDCB JUMP JUMPDEST DUP5 ADD SWAP1 POP SWAP4 SWAP3 POP POP POP JUMP JUMPDEST PUSH0 PUSH8 0xFFFFFFFFFFFFFFFF DUP3 AND SWAP1 POP SWAP2 SWAP1 POP JUMP JUMPDEST PUSH0 PUSH2 0xE34 PUSH2 0xE2F PUSH2 0xE2A DUP5 PUSH2 0xBE7 JUMP JUMPDEST PUSH2 0x91A JUMP JUMPDEST PUSH2 0xE07 JUMP JUMPDEST SWAP1 POP SWAP2 SWAP1 POP JUMP JUMPDEST PUSH2 0xE44 DUP2 PUSH2 0xE1A JUMP JUMPDEST DUP3 MSTORE POP POP JUMP JUMPDEST PUSH0 PUSH4 0xFFFFFFFF DUP3 AND SWAP1 POP SWAP2 SWAP1 POP JUMP JUMPDEST PUSH2 0xE62 DUP2 PUSH2 0xE4A JUMP JUMPDEST DUP3 MSTORE POP POP JUMP JUMPDEST PUSH2 0xE71 DUP2 PUSH2 0xE07 JUMP JUMPDEST DUP3 MSTORE POP POP JUMP JUMPDEST PUSH0 PUSH1 0xE0 DUP3 ADD SWAP1 POP PUSH2 0xE8A PUSH0 DUP4 ADD DUP12 PUSH2 0xDAE JUMP JUMPDEST DUP2 DUP2 SUB PUSH1 0x20 DUP4 ADD MSTORE PUSH2 0xE9D DUP2 DUP10 DUP12 PUSH2 0xDDB JUMP JUMPDEST SWAP1 POP PUSH2 0xEAC PUSH1 0x40 DUP4 ADD DUP9 PUSH2 0x8C1 JUMP JUMPDEST PUSH2 0xEB9 PUSH1 0x60 DUP4 ADD DUP8 PUSH2 0x8C1 JUMP JUMPDEST PUSH2 0xEC6 PUSH1 0x80 DUP4 ADD DUP7 PUSH2 0xE3B JUMP JUMPDEST PUSH2 0xED3 PUSH1 0xA0 DUP4 ADD DUP6 PUSH2 0xE59 JUMP JUMPDEST PUSH2 0xEE0 PUSH1 0xC0 DUP4 ADD DUP5 PUSH2 0xE68 JUMP JUMPDEST SWAP10 SWAP9 POP POP POP POP POP POP POP POP POP JUMP JUMPDEST PUSH0 PUSH1 0x20 DUP3 ADD SWAP1 POP DUP2 DUP2 SUB PUSH0 DUP4 ADD MSTORE PUSH2 0xF06 DUP2 DUP5 DUP7 PUSH2 0xDDB JUMP JUMPDEST SWAP1 POP SWAP4 SWAP3 POP POP POP JUMP INVALID LOG2 PUSH5 0x6970667358 0x22 SLT KECCAK256 SWAP1 PUSH22 0x55BB275F6FCA6C9388157C7B2E7D80F5BA51EA8C6BBF 0xF6 0xB4 DUP12 SWAP4 MUL CALLCODE DUP13 0xB5 PUSH5 0x736F6C6343 STOP ADDMOD BYTE STOP CALLER "
				},
				"gasEstimates": {
					"creation": {
						"codeDepositCost": "781800",
						"executionCost": "infinite",
						"totalCost": "infinite"
					},
					"external": {
						"approveWrapperForDomain()": "infinite",
						"ensRegistrar()": "infinite",
						"feeRecipient()": "2553",
						"nameWrapper()": "infinite",
						"register(string)": "infinite",
						"registrationFee()": "2448",
						"resolver()": "2509",
						"setFeeRecipient(address)": "26950",
						"setRegistrationFee(uint256)": "24728",
						"wrapDomain()": "infinite"
					}
				},
				"methodIdentifiers": {
					"approveWrapperForDomain()": "ab2397eb",
					"ensRegistrar()": "c2c589f0",
					"feeRecipient()": "46904840",
					"nameWrapper()": "a8e5fbc0",
					"register(string)": "f2c298be",
					"registrationFee()": "14c44e09",
					"resolver()": "04f3bcec",
					"setFeeRecipient(address)": "e74b981b",
					"setRegistrationFee(uint256)": "c320c727",
					"wrapDomain()": "7bf8f27a"
				}
			},
			"storageLayout": {
				"storage": [
					{
						"astId": 73,
						"contract": "contracts/SubdomainRegistrar.sol:SubdomainRegistrar",
						"label": "nameWrapper",
						"offset": 0,
						"slot": "0",
						"type": "t_contract(INameWrapper)50"
					},
					{
						"astId": 76,
						"contract": "contracts/SubdomainRegistrar.sol:SubdomainRegistrar",
						"label": "ensRegistrar",
						"offset": 0,
						"slot": "1",
						"type": "t_contract(IENSRegistrar)70"
					},
					{
						"astId": 78,
						"contract": "contracts/SubdomainRegistrar.sol:SubdomainRegistrar",
						"label": "resolver",
						"offset": 0,
						"slot": "2",
						"type": "t_address"
					},
					{
						"astId": 80,
						"contract": "contracts/SubdomainRegistrar.sol:SubdomainRegistrar",
						"label": "registrationFee",
						"offset": 0,
						"slot": "3",
						"type": "t_uint256"
					},
					{
						"astId": 82,
						"contract": "contracts/SubdomainRegistrar.sol:SubdomainRegistrar",
						"label": "feeRecipient",
						"offset": 0,
						"slot": "4",
						"type": "t_address"
					},
					{
						"astId": 84,
						"contract": "contracts/SubdomainRegistrar.sol:SubdomainRegistrar",
						"label": "owner",
						"offset": 0,
						"slot": "5",
						"type": "t_address"
					},
					{
						"astId": 86,
						"contract": "contracts/SubdomainRegistrar.sol:SubdomainRegistrar",
						"label": "parentNode",
						"offset": 0,
						"slot": "6",
						"type": "t_bytes32"
					}
				],
				"types": {
					"t_address": {
						"encoding": "inplace",
						"label": "address",
						"numberOfBytes": "20"
					},
					"t_bytes32": {
						"encoding": "inplace",
						"label": "bytes32",
						"numberOfBytes": "32"
					},
					"t_contract(IENSRegistrar)70": {
						"encoding": "inplace",
						"label": "contract IENSRegistrar",
						"numberOfBytes": "20"
					},
					"t_contract(INameWrapper)50": {
						"encoding": "inplace",
						"label": "contract INameWrapper",
						"numberOfBytes": "20"
					},
					"t_uint256": {
						"encoding": "inplace",
						"label": "uint256",
						"numberOfBytes": "32"
					}
				}
			},
			"userdoc": {
				"kind": "user",
				"methods": {},
				"version": 1
			}
		}
	}
}