{
	"data": {
		"bytecode": {
			"linkReferences": {},
			"object": "6080604052604051610cb9380380610cb983398181016040528101906100259190610200565b845f5f6101000a81548173ffffffffffffffffffffffffffffffffffffffff021916908373ffffffffffffffffffffffffffffffffffffffff1602179055508360015f6101000a81548173ffffffffffffffffffffffffffffffffffffffff021916908373ffffffffffffffffffffffffffffffffffffffff16021790555082600581905550816002819055508060035f6101000a81548173ffffffffffffffffffffffffffffffffffffffff021916908373ffffffffffffffffffffffffffffffffffffffff1602179055503360045f6101000a81548173ffffffffffffffffffffffffffffffffffffffff021916908373ffffffffffffffffffffffffffffffffffffffff1602179055505050505050610277565b5f5ffd5b5f73ffffffffffffffffffffffffffffffffffffffff82169050919050565b5f61016982610140565b9050919050565b6101798161015f565b8114610183575f5ffd5b50565b5f8151905061019481610170565b92915050565b5f819050919050565b6101ac8161019a565b81146101b6575f5ffd5b50565b5f815190506101c7816101a3565b92915050565b5f819050919050565b6101df816101cd565b81146101e9575f5ffd5b50565b5f815190506101fa816101d6565b92915050565b5f5f5f5f5f60a086880312156102195761021861013c565b5b5f61022688828901610186565b955050602061023788828901610186565b9450506040610248888289016101b9565b9350506060610259888289016101ec565b925050608061026a88828901610186565b9150509295509295909350565b610a35806102845f395ff3fe60806040526004361061006f575f3560e01c8063a8e5fbc01161004d578063a8e5fbc0146100f1578063c320c7271461011b578063e74b981b14610143578063f2c298be1461016b5761006f565b806304f3bcec1461007357806314c44e091461009d57806346904840146100c7575b5f5ffd5b34801561007e575f5ffd5b50610087610187565b6040516100949190610571565b60405180910390f35b3480156100a8575f5ffd5b506100b16101ac565b6040516100be91906105a2565b60405180910390f35b3480156100d2575f5ffd5b506100db6101b2565b6040516100e89190610571565b60405180910390f35b3480156100fc575f5ffd5b506101056101d7565b6040516101129190610616565b60405180910390f35b348015610126575f5ffd5b50610141600480360381019061013c9190610661565b6101fb565b005b34801561014e575f5ffd5b50610169600480360381019061016491906106b6565b610294565b005b61018560048036038101906101809190610742565b610366565b005b60015f9054906101000a900473ffffffffffffffffffffffffffffffffffffffff1681565b60025481565b60035f9054906101000a900473ffffffffffffffffffffffffffffffffffffffff1681565b5f5f9054906101000a900473ffffffffffffffffffffffffffffffffffffffff1681565b60045f9054906101000a900473ffffffffffffffffffffffffffffffffffffffff1673ffffffffffffffffffffffffffffffffffffffff163373ffffffffffffffffffffffffffffffffffffffff161461028a576040517f08c379a0000000000000000000000000000000000000000000000000000000008152600401610281906107e7565b60405180910390fd5b8060028190555050565b60045f9054906101000a900473ffffffffffffffffffffffffffffffffffffffff1673ffffffffffffffffffffffffffffffffffffffff163373ffffffffffffffffffffffffffffffffffffffff1614610323576040517f08c379a000000000000000000000000000000000000000000000000000000000815260040161031a906107e7565b60405180910390fd5b8060035f6101000a81548173ffffffffffffffffffffffffffffffffffffffff021916908373ffffffffffffffffffffffffffffffffffffffff16021790555050565b7f6709f8c20cab685a0bc846fd193679b20dc9a5d814dfabfef5c66ce0564f546034600254604051610399929190610805565b60405180910390a160035f9054906101000a900473ffffffffffffffffffffffffffffffffffffffff1673ffffffffffffffffffffffffffffffffffffffff166108fc60025490811502906040515f60405180830381858888f19350505050158015610407573d5f5f3e3d5ffd5b505f6205000090505f6301e13380426104209190610859565b90505f5f9054906101000a900473ffffffffffffffffffffffffffffffffffffffff1673ffffffffffffffffffffffffffffffffffffffff166324c1af4460055486863360015f9054906101000a900473ffffffffffffffffffffffffffffffffffffffff165f89896040518963ffffffff1660e01b81526004016104ac989796959493929190610967565b5f604051808303815f87803b1580156104c3575f5ffd5b505af11580156104d5573d5f5f3e3d5ffd5b505050503373ffffffffffffffffffffffffffffffffffffffff166005547f38506b5a4c15fa3526645437424431e9107debed02363450779158fa3713be6386866040516105249291906109dd565b60405180910390a350505050565b5f73ffffffffffffffffffffffffffffffffffffffff82169050919050565b5f61055b82610532565b9050919050565b61056b81610551565b82525050565b5f6020820190506105845f830184610562565b92915050565b5f819050919050565b61059c8161058a565b82525050565b5f6020820190506105b55f830184610593565b92915050565b5f819050919050565b5f6105de6105d96105d484610532565b6105bb565b610532565b9050919050565b5f6105ef826105c4565b9050919050565b5f610600826105e5565b9050919050565b610610816105f6565b82525050565b5f6020820190506106295f830184610607565b92915050565b5f5ffd5b5f5ffd5b6106408161058a565b811461064a575f5ffd5b50565b5f8135905061065b81610637565b92915050565b5f602082840312156106765761067561062f565b5b5f6106838482850161064d565b91505092915050565b61069581610551565b811461069f575f5ffd5b50565b5f813590506106b08161068c565b92915050565b5f602082840312156106cb576106ca61062f565b5b5f6106d8848285016106a2565b91505092915050565b5f5ffd5b5f5ffd5b5f5ffd5b5f5f83601f840112610702576107016106e1565b5b8235905067ffffffffffffffff81111561071f5761071e6106e5565b5b60208301915083600182028301111561073b5761073a6106e9565b5b9250929050565b5f5f602083850312156107585761075761062f565b5b5f83013567ffffffffffffffff81111561077557610774610633565b5b610781858286016106ed565b92509250509250929050565b5f82825260208201905092915050565b7f4e6f74206f776e657200000000000000000000000000000000000000000000005f82015250565b5f6107d160098361078d565b91506107dc8261079d565b602082019050919050565b5f6020820190508181035f8301526107fe816107c5565b9050919050565b5f6040820190506108185f830185610593565b6108256020830184610593565b9392505050565b7f4e487b71000000000000000000000000000000000000000000000000000000005f52601160045260245ffd5b5f6108638261058a565b915061086e8361058a565b92508282019050808211156108865761088561082c565b5b92915050565b5f819050919050565b61089e8161088c565b82525050565b828183375f83830152505050565b5f601f19601f8301169050919050565b5f6108cd838561078d565b93506108da8385846108a4565b6108e3836108b2565b840190509392505050565b5f819050919050565b5f67ffffffffffffffff82169050919050565b5f61092461091f61091a846108ee565b6105bb565b6108f7565b9050919050565b6109348161090a565b82525050565b5f63ffffffff82169050919050565b6109528161093a565b82525050565b610961816108f7565b82525050565b5f60e08201905061097a5f83018b610895565b818103602083015261098d81898b6108c2565b905061099c6040830188610562565b6109a96060830187610562565b6109b6608083018661092b565b6109c360a0830185610949565b6109d060c0830184610958565b9998505050505050505050565b5f6020820190508181035f8301526109f68184866108c2565b9050939250505056fea2646970667358221220281fb353039d26d2f10428de90cea6607437029a385037abe4c3a05939dacbac64736f6c634300081d0033",
			"opcodes": "PUSH1 0x80 PUSH1 0x40 MSTORE PUSH1 0x40 MLOAD PUSH2 0xCB9 CODESIZE SUB DUP1 PUSH2 0xCB9 DUP4 CODECOPY DUP2 DUP2 ADD PUSH1 0x40 MSTORE DUP2 ADD SWAP1 PUSH2 0x25 SWAP2 SWAP1 PUSH2 0x200 JUMP JUMPDEST DUP5 PUSH0 PUSH0 PUSH2 0x100 EXP DUP2 SLOAD DUP2 PUSH20 0xFFFFFFFFFFFFFFFFFFFFFFFFFFFFFFFFFFFFFFFF MUL NOT AND SWAP1 DUP4 PUSH20 0xFFFFFFFFFFFFFFFFFFFFFFFFFFFFFFFFFFFFFFFF AND MUL OR SWAP1 SSTORE POP DUP4 PUSH1 0x1 PUSH0 PUSH2 0x100 EXP DUP2 SLOAD DUP2 PUSH20 0xFFFFFFFFFFFFFFFFFFFFFFFFFFFFFFFFFFFFFFFF MUL NOT AND SWAP1 DUP4 PUSH20 0xFFFFFFFFFFFFFFFFFFFFFFFFFFFFFFFFFFFFFFFF AND MUL OR SWAP1 SSTORE POP DUP3 PUSH1 0x5 DUP2 SWAP1 SSTORE POP DUP2 PUSH1 0x2 DUP2 SWAP1 SSTORE POP DUP1 PUSH1 0x3 PUSH0 PUSH2 0x100 EXP DUP2 SLOAD DUP2 PUSH20 0xFFFFFFFFFFFFFFFFFFFFFFFFFFFFFFFFFFFFFFFF MUL NOT AND SWAP1 DUP4 PUSH20 0xFFFFFFFFFFFFFFFFFFFFFFFFFFFFFFFFFFFFFFFF AND MUL OR SWAP1 SSTORE POP CALLER PUSH1 0x4 PUSH0 PUSH2 0x100 EXP DUP2 SLOAD DUP2 PUSH20 0xFFFFFFFFFFFFFFFFFFFFFFFFFFFFFFFFFFFFFFFF MUL NOT AND SWAP1 DUP4 PUSH20 0xFFFFFFFFFFFFFFFFFFFFFFFFFFFFFFFFFFFFFFFF AND MUL OR SWAP1 SSTORE POP POP POP POP POP POP PUSH2 0x277 JUMP JUMPDEST PUSH0 PUSH0 REVERT JUMPDEST PUSH0 PUSH20 0xFFFFFFFFFFFFFFFFFFFFFFFFFFFFFFFFFFFFFFFF DUP3 AND SWAP1 POP SWAP2 SWAP1 POP JUMP JUMPDEST PUSH0 PUSH2 0x169 DUP3 PUSH2 0x140 JUMP JUMPDEST SWAP1 POP SWAP2 SWAP1 POP JUMP JUMPDEST PUSH2 0x179 DUP2 PUSH2 0x15F JUMP JUMPDEST DUP2 EQ PUSH2 0x183 JUMPI PUSH0 PUSH0 REVERT JUMPDEST POP JUMP JUMPDEST PUSH0 DUP2 MLOAD SWAP1 POP PUSH2 0x194 DUP2 PUSH2 0x170 JUMP JUMPDEST SWAP3 SWAP2 POP POP JUMP JUMPDEST PUSH0 DUP2 SWAP1 POP SWAP2 SWAP1 POP JUMP JUMPDEST PUSH2 0x1AC DUP2 PUSH2 0x19A JUMP JUMPDEST DUP2 EQ PUSH2 0x1B6 JUMPI PUSH0 PUSH0 REVERT JUMPDEST POP JUMP JUMPDEST PUSH0 DUP2 MLOAD SWAP1 POP PUSH2 0x1C7 DUP2 PUSH2 0x1A3 JUMP JUMPDEST SWAP3 SWAP2 POP POP JUMP JUMPDEST PUSH0 DUP2 SWAP1 POP SWAP2 SWAP1 POP JUMP JUMPDEST PUSH2 0x1DF DUP2 PUSH2 0x1CD JUMP JUMPDEST DUP2 EQ PUSH2 0x1E9 JUMPI PUSH0 PUSH0 REVERT JUMPDEST POP JUMP JUMPDEST PUSH0 DUP2 MLOAD SWAP1 POP PUSH2 0x1FA DUP2 PUSH2 0x1D6 JUMP JUMPDEST SWAP3 SWAP2 POP POP JUMP JUMPDEST PUSH0 PUSH0 PUSH0 PUSH0 PUSH0 PUSH1 0xA0 DUP7 DUP9 SUB SLT ISZERO PUSH2 0x219 JUMPI PUSH2 0x218 PUSH2 0x13C JUMP JUMPDEST JUMPDEST PUSH0 PUSH2 0x226 DUP9 DUP3 DUP10 ADD PUSH2 0x186 JUMP JUMPDEST SWAP6 POP POP PUSH1 0x20 PUSH2 0x237 DUP9 DUP3 DUP10 ADD PUSH2 0x186 JUMP JUMPDEST SWAP5 POP POP PUSH1 0x40 PUSH2 0x248 DUP9 DUP3 DUP10 ADD PUSH2 0x1B9 JUMP JUMPDEST SWAP4 POP POP PUSH1 0x60 PUSH2 0x259 DUP9 DUP3 DUP10 ADD PUSH2 0x1EC JUMP JUMPDEST SWAP3 POP POP PUSH1 0x80 PUSH2 0x26A DUP9 DUP3 DUP10 ADD PUSH2 0x186 JUMP JUMPDEST SWAP2 POP POP SWAP3 SWAP6 POP SWAP3 SWAP6 SWAP1 SWAP4 POP JUMP JUMPDEST PUSH2 0xA35 DUP1 PUSH2 0x284 PUSH0 CODECOPY PUSH0 RETURN INVALID PUSH1 0x80 PUSH1 0x40 MSTORE PUSH1 0x4 CALLDATASIZE LT PUSH2 0x6F JUMPI PUSH0 CALLDATALOAD PUSH1 0xE0 SHR DUP1 PUSH4 0xA8E5FBC0 GT PUSH2 0x4D JUMPI DUP1 PUSH4 0xA8E5FBC0 EQ PUSH2 0xF1 JUMPI DUP1 PUSH4 0xC320C727 EQ PUSH2 0x11B JUMPI DUP1 PUSH4 0xE74B981B EQ PUSH2 0x143 JUMPI DUP1 PUSH4 0xF2C298BE EQ PUSH2 0x16B JUMPI PUSH2 0x6F JUMP JUMPDEST DUP1 PUSH4 0x4F3BCEC EQ PUSH2 0x73 JUMPI DUP1 PUSH4 0x14C44E09 EQ PUSH2 0x9D JUMPI DUP1 PUSH4 0x46904840 EQ PUSH2 0xC7 JUMPI JUMPDEST PUSH0 PUSH0 REVERT JUMPDEST CALLVALUE DUP1 ISZERO PUSH2 0x7E JUMPI PUSH0 PUSH0 REVERT JUMPDEST POP PUSH2 0x87 PUSH2 0x187 JUMP JUMPDEST PUSH1 0x40 MLOAD PUSH2 0x94 SWAP2 SWAP1 PUSH2 0x571 JUMP JUMPDEST PUSH1 0x40 MLOAD DUP1 SWAP2 SUB SWAP1 RETURN JUMPDEST CALLVALUE DUP1 ISZERO PUSH2 0xA8 JUMPI PUSH0 PUSH0 REVERT JUMPDEST POP PUSH2 0xB1 PUSH2 0x1AC JUMP JUMPDEST PUSH1 0x40 MLOAD PUSH2 0xBE SWAP2 SWAP1 PUSH2 0x5A2 JUMP JUMPDEST PUSH1 0x40 MLOAD DUP1 SWAP2 SUB SWAP1 RETURN JUMPDEST CALLVALUE DUP1 ISZERO PUSH2 0xD2 JUMPI PUSH0 PUSH0 REVERT JUMPDEST POP PUSH2 0xDB PUSH2 0x1B2 JUMP JUMPDEST PUSH1 0x40 MLOAD PUSH2 0xE8 SWAP2 SWAP1 PUSH2 0x571 JUMP JUMPDEST PUSH1 0x40 MLOAD DUP1 SWAP2 SUB SWAP1 RETURN JUMPDEST CALLVALUE DUP1 ISZERO PUSH2 0xFC JUMPI PUSH0 PUSH0 REVERT JUMPDEST POP PUSH2 0x105 PUSH2 0x1D7 JUMP JUMPDEST PUSH1 0x40 MLOAD PUSH2 0x112 SWAP2 SWAP1 PUSH2 0x616 JUMP JUMPDEST PUSH1 0x40 MLOAD DUP1 SWAP2 SUB SWAP1 RETURN JUMPDEST CALLVALUE DUP1 ISZERO PUSH2 0x126 JUMPI PUSH0 PUSH0 REVERT JUMPDEST POP PUSH2 0x141 PUSH1 0x4 DUP1 CALLDATASIZE SUB DUP2 ADD SWAP1 PUSH2 0x13C SWAP2 SWAP1 PUSH2 0x661 JUMP JUMPDEST PUSH2 0x1FB JUMP JUMPDEST STOP JUMPDEST CALLVALUE DUP1 ISZERO PUSH2 0x14E JUMPI PUSH0 PUSH0 REVERT JUMPDEST POP PUSH2 0x169 PUSH1 0x4 DUP1 CALLDATASIZE SUB DUP2 ADD SWAP1 PUSH2 0x164 SWAP2 SWAP1 PUSH2 0x6B6 JUMP JUMPDEST PUSH2 0x294 JUMP JUMPDEST STOP JUMPDEST PUSH2 0x185 PUSH1 0x4 DUP1 CALLDATASIZE SUB DUP2 ADD SWAP1 PUSH2 0x180 SWAP2 SWAP1 PUSH2 0x742 JUMP JUMPDEST PUSH2 0x366 JUMP JUMPDEST STOP JUMPDEST PUSH1 0x1 PUSH0 SWAP1 SLOAD SWAP1 PUSH2 0x100 EXP SWAP1 DIV PUSH20 0xFFFFFFFFFFFFFFFFFFFFFFFFFFFFFFFFFFFFFFFF AND DUP2 JUMP JUMPDEST PUSH1 0x2 SLOAD DUP2 JUMP JUMPDEST PUSH1 0x3 PUSH0 SWAP1 SLOAD SWAP1 PUSH2 0x100 EXP SWAP1 DIV PUSH20 0xFFFFFFFFFFFFFFFFFFFFFFFFFFFFFFFFFFFFFFFF AND DUP2 JUMP JUMPDEST PUSH0 PUSH0 SWAP1 SLOAD SWAP1 PUSH2 0x100 EXP SWAP1 DIV PUSH20 0xFFFFFFFFFFFFFFFFFFFFFFFFFFFFFFFFFFFFFFFF AND DUP2 JUMP JUMPDEST PUSH1 0x4 PUSH0 SWAP1 SLOAD SWAP1 PUSH2 0x100 EXP SWAP1 DIV PUSH20 0xFFFFFFFFFFFFFFFFFFFFFFFFFFFFFFFFFFFFFFFF AND PUSH20 0xFFFFFFFFFFFFFFFFFFFFFFFFFFFFFFFFFFFFFFFF AND CALLER PUSH20 0xFFFFFFFFFFFFFFFFFFFFFFFFFFFFFFFFFFFFFFFF AND EQ PUSH2 0x28A JUMPI PUSH1 0x40 MLOAD PUSH32 0x8C379A000000000000000000000000000000000000000000000000000000000 DUP2 MSTORE PUSH1 0x4 ADD PUSH2 0x281 SWAP1 PUSH2 0x7E7 JUMP JUMPDEST PUSH1 0x40 MLOAD DUP1 SWAP2 SUB SWAP1 REVERT JUMPDEST DUP1 PUSH1 0x2 DUP2 SWAP1 SSTORE POP POP JUMP JUMPDEST PUSH1 0x4 PUSH0 SWAP1 SLOAD SWAP1 PUSH2 0x100 EXP SWAP1 DIV PUSH20 0xFFFFFFFFFFFFFFFFFFFFFFFFFFFFFFFFFFFFFFFF AND PUSH20 0xFFFFFFFFFFFFFFFFFFFFFFFFFFFFFFFFFFFFFFFF AND CALLER PUSH20 0xFFFFFFFFFFFFFFFFFFFFFFFFFFFFFFFFFFFFFFFF AND EQ PUSH2 0x323 JUMPI PUSH1 0x40 MLOAD PUSH32 0x8C379A000000000000000000000000000000000000000000000000000000000 DUP2 MSTORE PUSH1 0x4 ADD PUSH2 0x31A SWAP1 PUSH2 0x7E7 JUMP JUMPDEST PUSH1 0x40 MLOAD DUP1 SWAP2 SUB SWAP1 REVERT JUMPDEST DUP1 PUSH1 0x3 PUSH0 PUSH2 0x100 EXP DUP2 SLOAD DUP2 PUSH20 0xFFFFFFFFFFFFFFFFFFFFFFFFFFFFFFFFFFFFFFFF MUL NOT AND SWAP1 DUP4 PUSH20 0xFFFFFFFFFFFFFFFFFFFFFFFFFFFFFFFFFFFFFFFF AND MUL OR SWAP1 SSTORE POP POP JUMP JUMPDEST PUSH32 0x6709F8C20CAB685A0BC846FD193679B20DC9A5D814DFABFEF5C66CE0564F5460 CALLVALUE PUSH1 0x2 SLOAD PUSH1 0x40 MLOAD PUSH2 0x399 SWAP3 SWAP2 SWAP1 PUSH2 0x805 JUMP JUMPDEST PUSH1 0x40 MLOAD DUP1 SWAP2 SUB SWAP1 LOG1 PUSH1 0x3 PUSH0 SWAP1 SLOAD SWAP1 PUSH2 0x100 EXP SWAP1 DIV PUSH20 0xFFFFFFFFFFFFFFFFFFFFFFFFFFFFFFFFFFFFFFFF AND PUSH20 0xFFFFFFFFFFFFFFFFFFFFFFFFFFFFFFFFFFFFFFFF AND PUSH2 0x8FC PUSH1 0x2 SLOAD SWAP1 DUP2 ISZERO MUL SWAP1 PUSH1 0x40 MLOAD PUSH0 PUSH1 0x40 MLOAD DUP1 DUP4 SUB DUP2 DUP6 DUP9 DUP9 CALL SWAP4 POP POP POP POP ISZERO DUP1 ISZERO PUSH2 0x407 JUMPI RETURNDATASIZE PUSH0 PUSH0 RETURNDATACOPY RETURNDATASIZE PUSH0 REVERT JUMPDEST POP PUSH0 PUSH3 0x50000 SWAP1 POP PUSH0 PUSH4 0x1E13380 TIMESTAMP PUSH2 0x420 SWAP2 SWAP1 PUSH2 0x859 JUMP JUMPDEST SWAP1 POP PUSH0 PUSH0 SWAP1 SLOAD SWAP1 PUSH2 0x100 EXP SWAP1 DIV PUSH20 0xFFFFFFFFFFFFFFFFFFFFFFFFFFFFFFFFFFFFFFFF AND PUSH20 0xFFFFFFFFFFFFFFFFFFFFFFFFFFFFFFFFFFFFFFFF AND PUSH4 0x24C1AF44 PUSH1 0x5 SLOAD DUP7 DUP7 CALLER PUSH1 0x1 PUSH0 SWAP1 SLOAD SWAP1 PUSH2 0x100 EXP SWAP1 DIV PUSH20 0xFFFFFFFFFFFFFFFFFFFFFFFFFFFFFFFFFFFFFFFF AND PUSH0 DUP10 DUP10 PUSH1 0x40 MLOAD DUP10 PUSH4 0xFFFFFFFF AND PUSH1 0xE0 SHL DUP2 MSTORE PUSH1 0x4 ADD PUSH2 0x4AC SWAP9 SWAP8 SWAP7 SWAP6 SWAP5 SWAP4 SWAP3 SWAP2 SWAP1 PUSH2 0x967 JUMP JUMPDEST PUSH0 PUSH1 0x40 MLOAD DUP1 DUP4 SUB DUP2 PUSH0 DUP8 DUP1 EXTCODESIZE ISZERO DUP1 ISZERO PUSH2 0x4C3 JUMPI PUSH0 PUSH0 REVERT JUMPDEST POP GAS CALL ISZERO DUP1 ISZERO PUSH2 0x4D5 JUMPI RETURNDATASIZE PUSH0 PUSH0 RETURNDATACOPY RETURNDATASIZE PUSH0 REVERT JUMPDEST POP POP POP POP CALLER PUSH20 0xFFFFFFFFFFFFFFFFFFFFFFFFFFFFFFFFFFFFFFFF AND PUSH1 0x5 SLOAD PUSH32 0x38506B5A4C15FA3526645437424431E9107DEBED02363450779158FA3713BE63 DUP7 DUP7 PUSH1 0x40 MLOAD PUSH2 0x524 SWAP3 SWAP2 SWAP1 PUSH2 0x9DD JUMP JUMPDEST PUSH1 0x40 MLOAD DUP1 SWAP2 SUB SWAP1 LOG3 POP POP POP POP JUMP JUMPDEST PUSH0 PUSH20 0xFFFFFFFFFFFFFFFFFFFFFFFFFFFFFFFFFFFFFFFF DUP3 AND SWAP1 POP SWAP2 SWAP1 POP JUMP JUMPDEST PUSH0 PUSH2 0x55B DUP3 PUSH2 0x532 JUMP JUMPDEST SWAP1 POP SWAP2 SWAP1 POP JUMP JUMPDEST PUSH2 0x56B DUP2 PUSH2 0x551 JUMP JUMPDEST DUP3 MSTORE POP POP JUMP JUMPDEST PUSH0 PUSH1 0x20 DUP3 ADD SWAP1 POP PUSH2 0x584 PUSH0 DUP4 ADD DUP5 PUSH2 0x562 JUMP JUMPDEST SWAP3 SWAP2 POP POP JUMP JUMPDEST PUSH0 DUP2 SWAP1 POP SWAP2 SWAP1 POP JUMP JUMPDEST PUSH2 0x59C DUP2 PUSH2 0x58A JUMP JUMPDEST DUP3 MSTORE POP POP JUMP JUMPDEST PUSH0 PUSH1 0x20 DUP3 ADD SWAP1 POP PUSH2 0x5B5 PUSH0 DUP4 ADD DUP5 PUSH2 0x593 JUMP JUMPDEST SWAP3 SWAP2 POP POP JUMP JUMPDEST PUSH0 DUP2 SWAP1 POP SWAP2 SWAP1 POP JUMP JUMPDEST PUSH0 PUSH2 0x5DE PUSH2 0x5D9 PUSH2 0x5D4 DUP5 PUSH2 0x532 JUMP JUMPDEST PUSH2 0x5BB JUMP JUMPDEST PUSH2 0x532 JUMP JUMPDEST SWAP1 POP SWAP2 SWAP1 POP JUMP JUMPDEST PUSH0 PUSH2 0x5EF DUP3 PUSH2 0x5C4 JUMP JUMPDEST SWAP1 POP SWAP2 SWAP1 POP JUMP JUMPDEST PUSH0 PUSH2 0x600 DUP3 PUSH2 0x5E5 JUMP JUMPDEST SWAP1 POP SWAP2 SWAP1 POP JUMP JUMPDEST PUSH2 0x610 DUP2 PUSH2 0x5F6 JUMP JUMPDEST DUP3 MSTORE POP POP JUMP JUMPDEST PUSH0 PUSH1 0x20 DUP3 ADD SWAP1 POP PUSH2 0x629 PUSH0 DUP4 ADD DUP5 PUSH2 0x607 JUMP JUMPDEST SWAP3 SWAP2 POP POP JUMP JUMPDEST PUSH0 PUSH0 REVERT JUMPDEST PUSH0 PUSH0 REVERT JUMPDEST PUSH2 0x640 DUP2 PUSH2 0x58A JUMP JUMPDEST DUP2 EQ PUSH2 0x64A JUMPI PUSH0 PUSH0 REVERT JUMPDEST POP JUMP JUMPDEST PUSH0 DUP2 CALLDATALOAD SWAP1 POP PUSH2 0x65B DUP2 PUSH2 0x637 JUMP JUMPDEST SWAP3 SWAP2 POP POP JUMP JUMPDEST PUSH0 PUSH1 0x20 DUP3 DUP5 SUB SLT ISZERO PUSH2 0x676 JUMPI PUSH2 0x675 PUSH2 0x62F JUMP JUMPDEST JUMPDEST PUSH0 PUSH2 0x683 DUP5 DUP3 DUP6 ADD PUSH2 0x64D JUMP JUMPDEST SWAP2 POP POP SWAP3 SWAP2 POP POP JUMP JUMPDEST PUSH2 0x695 DUP2 PUSH2 0x551 JUMP JUMPDEST DUP2 EQ PUSH2 0x69F JUMPI PUSH0 PUSH0 REVERT JUMPDEST POP JUMP JUMPDEST PUSH0 DUP2 CALLDATALOAD SWAP1 POP PUSH2 0x6B0 DUP2 PUSH2 0x68C JUMP JUMPDEST SWAP3 SWAP2 POP POP JUMP JUMPDEST PUSH0 PUSH1 0x20 DUP3 DUP5 SUB SLT ISZERO PUSH2 0x6CB JUMPI PUSH2 0x6CA PUSH2 0x62F JUMP JUMPDEST JUMPDEST PUSH0 PUSH2 0x6D8 DUP5 DUP3 DUP6 ADD PUSH2 0x6A2 JUMP JUMPDEST SWAP2 POP POP SWAP3 SWAP2 POP POP JUMP JUMPDEST PUSH0 PUSH0 REVERT JUMPDEST PUSH0 PUSH0 REVERT JUMPDEST PUSH0 PUSH0 REVERT JUMPDEST PUSH0 PUSH0 DUP4 PUSH1 0x1F DUP5 ADD SLT PUSH2 0x702 JUMPI PUSH2 0x701 PUSH2 0x6E1 JUMP JUMPDEST JUMPDEST DUP3 CALLDATALOAD SWAP1 POP PUSH8 0xFFFFFFFFFFFFFFFF DUP2 GT ISZERO PUSH2 0x71F JUMPI PUSH2 0x71E PUSH2 0x6E5 JUMP JUMPDEST JUMPDEST PUSH1 0x20 DUP4 ADD SWAP2 POP DUP4 PUSH1 0x1 DUP3 MUL DUP4 ADD GT ISZERO PUSH2 0x73B JUMPI PUSH2 0x73A PUSH2 0x6E9 JUMP JUMPDEST JUMPDEST SWAP3 POP SWAP3 SWAP1 POP JUMP JUMPDEST PUSH0 PUSH0 PUSH1 0x20 DUP4 DUP6 SUB SLT ISZERO PUSH2 0x758 JUMPI PUSH2 0x757 PUSH2 0x62F JUMP JUMPDEST JUMPDEST PUSH0 DUP4 ADD CALLDATALOAD PUSH8 0xFFFFFFFFFFFFFFFF DUP2 GT ISZERO PUSH2 0x775 JUMPI PUSH2 0x774 PUSH2 0x633 JUMP JUMPDEST JUMPDEST PUSH2 0x781 DUP6 DUP3 DUP7 ADD PUSH2 0x6ED JUMP JUMPDEST SWAP3 POP SWAP3 POP POP SWAP3 POP SWAP3 SWAP1 POP JUMP JUMPDEST PUSH0 DUP3 DUP3 MSTORE PUSH1 0x20 DUP3 ADD SWAP1 POP SWAP3 SWAP2 POP POP JUMP JUMPDEST PUSH32 0x4E6F74206F776E65720000000000000000000000000000000000000000000000 PUSH0 DUP3 ADD MSTORE POP JUMP JUMPDEST PUSH0 PUSH2 0x7D1 PUSH1 0x9 DUP4 PUSH2 0x78D JUMP JUMPDEST SWAP2 POP PUSH2 0x7DC DUP3 PUSH2 0x79D JUMP JUMPDEST PUSH1 0x20 DUP3 ADD SWAP1 POP SWAP2 SWAP1 POP JUMP JUMPDEST PUSH0 PUSH1 0x20 DUP3 ADD SWAP1 POP DUP2 DUP2 SUB PUSH0 DUP4 ADD MSTORE PUSH2 0x7FE DUP2 PUSH2 0x7C5 JUMP JUMPDEST SWAP1 POP SWAP2 SWAP1 POP JUMP JUMPDEST PUSH0 PUSH1 0x40 DUP3 ADD SWAP1 POP PUSH2 0x818 PUSH0 DUP4 ADD DUP6 PUSH2 0x593 JUMP JUMPDEST PUSH2 0x825 PUSH1 0x20 DUP4 ADD DUP5 PUSH2 0x593 JUMP JUMPDEST SWAP4 SWAP3 POP POP POP JUMP JUMPDEST PUSH32 0x4E487B7100000000000000000000000000000000000000000000000000000000 PUSH0 MSTORE PUSH1 0x11 PUSH1 0x4 MSTORE PUSH1 0x24 PUSH0 REVERT JUMPDEST PUSH0 PUSH2 0x863 DUP3 PUSH2 0x58A JUMP JUMPDEST SWAP2 POP PUSH2 0x86E DUP4 PUSH2 0x58A JUMP JUMPDEST SWAP3 POP DUP3 DUP3 ADD SWAP1 POP DUP1 DUP3 GT ISZERO PUSH2 0x886 JUMPI PUSH2 0x885 PUSH2 0x82C JUMP JUMPDEST JUMPDEST SWAP3 SWAP2 POP POP JUMP JUMPDEST PUSH0 DUP2 SWAP1 POP SWAP2 SWAP1 POP JUMP JUMPDEST PUSH2 0x89E DUP2 PUSH2 0x88C JUMP JUMPDEST DUP3 MSTORE POP POP JUMP JUMPDEST DUP3 DUP2 DUP4 CALLDATACOPY PUSH0 DUP4 DUP4 ADD MSTORE POP POP POP JUMP JUMPDEST PUSH0 PUSH1 0x1F NOT PUSH1 0x1F DUP4 ADD AND SWAP1 POP SWAP2 SWAP1 POP JUMP JUMPDEST PUSH0 PUSH2 0x8CD DUP4 DUP6 PUSH2 0x78D JUMP JUMPDEST SWAP4 POP PUSH2 0x8DA DUP4 DUP6 DUP5 PUSH2 0x8A4 JUMP JUMPDEST PUSH2 0x8E3 DUP4 PUSH2 0x8B2 JUMP JUMPDEST DUP5 ADD SWAP1 POP SWAP4 SWAP3 POP POP POP JUMP JUMPDEST PUSH0 DUP2 SWAP1 POP SWAP2 SWAP1 POP JUMP JUMPDEST PUSH0 PUSH8 0xFFFFFFFFFFFFFFFF DUP3 AND SWAP1 POP SWAP2 SWAP1 POP JUMP JUMPDEST PUSH0 PUSH2 0x924 PUSH2 0x91F PUSH2 0x91A DUP5 PUSH2 0x8EE JUMP JUMPDEST PUSH2 0x5BB JUMP JUMPDEST PUSH2 0x8F7 JUMP JUMPDEST SWAP1 POP SWAP2 SWAP1 POP JUMP JUMPDEST PUSH2 0x934 DUP2 PUSH2 0x90A JUMP JUMPDEST DUP3 MSTORE POP POP JUMP JUMPDEST PUSH0 PUSH4 0xFFFFFFFF DUP3 AND SWAP1 POP SWAP2 SWAP1 POP JUMP JUMPDEST PUSH2 0x952 DUP2 PUSH2 0x93A JUMP JUMPDEST DUP3 MSTORE POP POP JUMP JUMPDEST PUSH2 0x961 DUP2 PUSH2 0x8F7 JUMP JUMPDEST DUP3 MSTORE POP POP JUMP JUMPDEST PUSH0 PUSH1 0xE0 DUP3 ADD SWAP1 POP PUSH2 0x97A PUSH0 DUP4 ADD DUP12 PUSH2 0x895 JUMP JUMPDEST DUP2 DUP2 SUB PUSH1 0x20 DUP4 ADD MSTORE PUSH2 0x98D DUP2 DUP10 DUP12 PUSH2 0x8C2 JUMP JUMPDEST SWAP1 POP PUSH2 0x99C PUSH1 0x40 DUP4 ADD DUP9 PUSH2 0x562 JUMP JUMPDEST PUSH2 0x9A9 PUSH1 0x60 DUP4 ADD DUP8 PUSH2 0x562 JUMP JUMPDEST PUSH2 0x9B6 PUSH1 0x80 DUP4 ADD DUP7 PUSH2 0x92B JUMP JUMPDEST PUSH2 0x9C3 PUSH1 0xA0 DUP4 ADD DUP6 PUSH2 0x949 JUMP JUMPDEST PUSH2 0x9D0 PUSH1 0xC0 DUP4 ADD DUP5 PUSH2 0x958 JUMP JUMPDEST SWAP10 SWAP9 POP POP POP POP POP POP POP POP POP JUMP JUMPDEST PUSH0 PUSH1 0x20 DUP3 ADD SWAP1 POP DUP2 DUP2 SUB PUSH0 DUP4 ADD MSTORE PUSH2 0x9F6 DUP2 DUP5 DUP7 PUSH2 0x8C2 JUMP JUMPDEST SWAP1 POP SWAP4 SWAP3 POP POP POP JUMP INVALID LOG2 PUSH5 0x6970667358 0x22 SLT KECCAK256 0x28 0x1F 0xB3 MSTORE8 SUB SWAP14 0x26 0xD2 CALL DIV 0x28 0xDE SWAP1 0xCE 0xA6 PUSH1 0x74 CALLDATACOPY MUL SWAP11 CODESIZE POP CALLDATACOPY 0xAB RETF 0xC3 LOG0 MSIZE CODECOPY 0xDA 0xCB 0xAC PUSH5 0x736F6C6343 STOP ADDMOD SAR STOP CALLER "
		},
		"gasEstimates": {
			"creation": {
				"codeDepositCost": "522600",
				"executionCost": "infinite",
				"totalCost": "infinite"
			},
			"external": {
				"feeRecipient()": "2553",
				"nameWrapper()": "infinite",
				"register(string)": "infinite",
				"registrationFee()": "2448",
				"resolver()": "2509",
				"setFeeRecipient(address)": "26928",
				"setRegistrationFee(uint256)": "24706"
			}
		},
		"methodIdentifiers": {
			"feeRecipient()": "46904840",
			"nameWrapper()": "a8e5fbc0",
			"register(string)": "f2c298be",
			"registrationFee()": "14c44e09",
			"resolver()": "04f3bcec",
			"setFeeRecipient(address)": "e74b981b",
			"setRegistrationFee(uint256)": "c320c727"
		}
	},
	"abi": [
		{
			"inputs": [
				{
					"internalType": "address",
					"name": "_nameWrapper",
					"type": "address"
				},
				{
					"internalType": "address",
					"name": "_resolver",
					"type": "address"
				},
				{
					"internalType": "bytes32",
					"name": "_parentNode",
					"type": "bytes32"
				},
				{
					"internalType": "uint256",
					"name": "_registrationFee",
					"type": "uint256"
				},
				{
					"internalType": "address",
					"name": "_feeRecipient",
					"type": "address"
				}
			],
			"stateMutability": "payable",
			"type": "constructor"
		},
		{
			"anonymous": false,
			"inputs": [
				{
					"indexed": false,
					"internalType": "uint256",
					"name": "msgValue",
					"type": "uint256"
				},
				{
					"indexed": false,
					"internalType": "uint256",
					"name": "registrationFee",
					"type": "uint256"
				}
			],
			"name": "LogPaymentDetails",
			"type": "event"
		},
		{
			"anonymous": false,
			"inputs": [
				{
					"indexed": true,
					"internalType": "bytes32",
					"name": "parentNode",
					"type": "bytes32"
				},
				{
					"indexed": false,
					"internalType": "string",
					"name": "label",
					"type": "string"
				},
				{
					"indexed": true,
					"internalType": "address",
					"name": "owner",
					"type": "address"
				}
			],
			"name": "SubdomainRegistered",
			"type": "event"
		},
		{
			"inputs": [],
			"name": "feeRecipient",
			"outputs": [
				{
					"internalType": "address",
					"name": "",
					"type": "address"
				}
			],
			"stateMutability": "view",
			"type": "function"
		},
		{
			"inputs": [],
			"name": "nameWrapper",
			"outputs": [
				{
					"internalType": "contract INameWrapper",
					"name": "",
					"type": "address"
				}
			],
			"stateMutability": "view",
			"type": "function"
		},
		{
			"inputs": [
				{
					"internalType": "string",
					"name": "label",
					"type": "string"
				}
			],
			"name": "register",
			"outputs": [],
			"stateMutability": "payable",
			"type": "function"
		},
		{
			"inputs": [],
			"name": "registrationFee",
			"outputs": [
				{
					"internalType": "uint256",
					"name": "",
					"type": "uint256"
				}
			],
			"stateMutability": "view",
			"type": "function"
		},
		{
			"inputs": [],
			"name": "resolver",
			"outputs": [
				{
					"internalType": "address",
					"name": "",
					"type": "address"
				}
			],
			"stateMutability": "view",
			"type": "function"
		},
		{
			"inputs": [
				{
					"internalType": "address",
					"name": "_feeRecipient",
					"type": "address"
				}
			],
			"name": "setFeeRecipient",
			"outputs": [],
			"stateMutability": "nonpayable",
			"type": "function"
		},
		{
			"inputs": [
				{
					"internalType": "uint256",
					"name": "_registrationFee",
					"type": "uint256"
				}
			],
			"name": "setRegistrationFee",
			"outputs": [],
			"stateMutability": "nonpayable",
			"type": "function"
		}
	]
}